{
  "_format": "hh-sol-artifact-1",
  "contractName": "BabyDogeManager",
  "sourceName": "contracts/RenouncedContract.sol",
  "abi": [
    {
      "inputs": [
        {
          "internalType": "address",
          "name": "_bnbReciever",
          "type": "address"
        },
        {
          "internalType": "address",
          "name": "_babyDogeReciever",
          "type": "address"
        },
        {
          "internalType": "address",
          "name": "_lpTokenAddress",
          "type": "address"
        },
        {
          "internalType": "address",
          "name": "_babyDogeAddress",
          "type": "address"
        },
        {
          "internalType": "address",
          "name": "_router",
          "type": "address"
        },
        {
          "internalType": "address",
          "name": "_communityAddress",
          "type": "address"
        },
        {
          "internalType": "address",
          "name": "_registryAddress",
          "type": "address"
        },
        {
          "internalType": "address",
          "name": "_teamAddress",
          "type": "address"
        }
      ],
      "stateMutability": "nonpayable",
      "type": "constructor"
    },
    {
      "anonymous": false,
      "inputs": [
        {
          "indexed": true,
          "internalType": "address",
          "name": "previousOwner",
          "type": "address"
        },
        {
          "indexed": true,
          "internalType": "address",
          "name": "newOwner",
          "type": "address"
        }
      ],
      "name": "OwnershipTransferred",
      "type": "event"
    },
    {
      "stateMutability": "payable",
      "type": "fallback"
    },
    {
      "inputs": [],
      "name": "PancakeRouter",
      "outputs": [
        {
          "internalType": "address",
          "name": "",
          "type": "address"
        }
      ],
      "stateMutability": "view",
      "type": "function"
    },
    {
      "inputs": [],
      "name": "WBNB",
      "outputs": [
        {
          "internalType": "address",
          "name": "",
          "type": "address"
        }
      ],
      "stateMutability": "view",
      "type": "function"
    },
    {
      "inputs": [],
      "name": "_owner",
      "outputs": [
        {
          "internalType": "address",
          "name": "",
          "type": "address"
        }
      ],
      "stateMutability": "view",
      "type": "function"
    },
    {
      "inputs": [],
      "name": "babyDogeAddress",
      "outputs": [
        {
          "internalType": "address",
          "name": "",
          "type": "address"
        }
      ],
      "stateMutability": "view",
      "type": "function"
    },
    {
      "inputs": [],
      "name": "babyDogeReciever",
      "outputs": [
        {
          "internalType": "address",
          "name": "",
          "type": "address"
        }
      ],
      "stateMutability": "view",
      "type": "function"
    },
    {
      "inputs": [],
      "name": "bnbReciever",
      "outputs": [
        {
          "internalType": "address",
          "name": "",
          "type": "address"
        }
      ],
      "stateMutability": "view",
      "type": "function"
    },
    {
      "inputs": [
        {
          "internalType": "bytes",
          "name": "",
          "type": "bytes"
        }
      ],
      "name": "checkUpkeep",
      "outputs": [
        {
          "internalType": "bool",
          "name": "upkeepNeeded",
          "type": "bool"
        },
        {
          "internalType": "bytes",
          "name": "",
          "type": "bytes"
        }
      ],
      "stateMutability": "nonpayable",
      "type": "function"
    },
    {
      "inputs": [],
      "name": "claimTokensInBoth",
      "outputs": [],
      "stateMutability": "nonpayable",
      "type": "function"
    },
    {
      "inputs": [],
      "name": "communityPercent",
      "outputs": [
        {
          "internalType": "uint256",
          "name": "",
          "type": "uint256"
        }
      ],
      "stateMutability": "view",
      "type": "function"
    },
    {
      "inputs": [],
      "name": "communityWallet",
      "outputs": [
        {
          "internalType": "address",
          "name": "",
          "type": "address"
        }
      ],
      "stateMutability": "view",
      "type": "function"
    },
    {
      "inputs": [],
      "name": "emergencyWithdrawLP",
      "outputs": [],
      "stateMutability": "nonpayable",
      "type": "function"
    },
    {
      "inputs": [
        {
          "internalType": "address",
          "name": "_tokenAddress",
          "type": "address"
        }
      ],
      "name": "emergencyWithdrawToken",
      "outputs": [],
      "stateMutability": "nonpayable",
      "type": "function"
    },
    {
      "inputs": [],
      "name": "exchangeLP",
      "outputs": [],
      "stateMutability": "nonpayable",
      "type": "function"
    },
    {
      "inputs": [
        {
          "internalType": "address",
          "name": "_account",
          "type": "address"
        }
      ],
      "name": "excludeFromFee",
      "outputs": [],
      "stateMutability": "nonpayable",
      "type": "function"
    },
    {
      "inputs": [
        {
          "internalType": "address",
          "name": "_account",
          "type": "address"
        }
      ],
      "name": "excludeFromReward",
      "outputs": [],
      "stateMutability": "nonpayable",
      "type": "function"
    },
    {
      "inputs": [],
      "name": "getUnlockTime",
      "outputs": [
        {
          "internalType": "uint256",
          "name": "",
          "type": "uint256"
        }
      ],
      "stateMutability": "view",
      "type": "function"
    },
    {
      "inputs": [
        {
          "internalType": "address",
          "name": "_account",
          "type": "address"
        }
      ],
      "name": "includeInFee",
      "outputs": [],
      "stateMutability": "nonpayable",
      "type": "function"
    },
    {
      "inputs": [
        {
          "internalType": "address",
          "name": "_account",
          "type": "address"
        }
      ],
      "name": "includeInReward",
      "outputs": [],
      "stateMutability": "nonpayable",
      "type": "function"
    },
    {
      "inputs": [],
      "name": "interval",
      "outputs": [
        {
          "internalType": "uint256",
          "name": "",
          "type": "uint256"
        }
      ],
      "stateMutability": "view",
      "type": "function"
    },
    {
      "inputs": [],
      "name": "lastTimestamp",
      "outputs": [
        {
          "internalType": "uint256",
          "name": "",
          "type": "uint256"
        }
      ],
      "stateMutability": "view",
      "type": "function"
    },
    {
      "inputs": [
        {
          "internalType": "uint256",
          "name": "time",
          "type": "uint256"
        }
      ],
      "name": "lock",
      "outputs": [],
      "stateMutability": "nonpayable",
      "type": "function"
    },
    {
      "inputs": [
        {
          "internalType": "uint256",
          "name": "_time",
          "type": "uint256"
        }
      ],
      "name": "lockBabyDoge",
      "outputs": [],
      "stateMutability": "nonpayable",
      "type": "function"
    },
    {
      "inputs": [],
      "name": "lpTokenAddress",
      "outputs": [
        {
          "internalType": "address",
          "name": "",
          "type": "address"
        }
      ],
      "stateMutability": "view",
      "type": "function"
    },
    {
      "inputs": [],
      "name": "owner",
      "outputs": [
        {
          "internalType": "address",
          "name": "",
          "type": "address"
        }
      ],
      "stateMutability": "view",
      "type": "function"
    },
    {
      "inputs": [
        {
          "internalType": "bytes",
          "name": "",
          "type": "bytes"
        }
      ],
      "name": "performUpkeep",
      "outputs": [],
      "stateMutability": "nonpayable",
      "type": "function"
    },
    {
      "inputs": [],
      "name": "registryAddress",
      "outputs": [
        {
          "internalType": "address",
          "name": "",
          "type": "address"
        }
      ],
      "stateMutability": "view",
      "type": "function"
    },
    {
      "inputs": [],
      "name": "renounceOwnership",
      "outputs": [],
      "stateMutability": "nonpayable",
      "type": "function"
    },
    {
      "inputs": [
        {
          "internalType": "address",
          "name": "_babyDogeAddress",
          "type": "address"
        }
      ],
      "name": "setBabyDogeAddress",
      "outputs": [],
      "stateMutability": "nonpayable",
      "type": "function"
    },
    {
      "inputs": [
        {
          "internalType": "uint256",
          "name": "_communityPercent",
          "type": "uint256"
        }
      ],
      "name": "setCommunityPercent",
      "outputs": [],
      "stateMutability": "nonpayable",
      "type": "function"
    },
    {
      "inputs": [
        {
          "internalType": "address",
          "name": "_communityWallet",
          "type": "address"
        }
      ],
      "name": "setCommunityWallet",
      "outputs": [],
      "stateMutability": "nonpayable",
      "type": "function"
    },
    {
      "inputs": [],
      "name": "setCountDown",
      "outputs": [],
      "stateMutability": "nonpayable",
      "type": "function"
    },
    {
      "inputs": [
        {
          "internalType": "uint256",
          "name": "_interval",
          "type": "uint256"
        }
      ],
      "name": "setInterval",
      "outputs": [],
      "stateMutability": "nonpayable",
      "type": "function"
    },
    {
      "inputs": [
        {
          "internalType": "uint256",
          "name": "_liquidityFee",
          "type": "uint256"
        }
      ],
      "name": "setLiquidityFeePercent",
      "outputs": [],
      "stateMutability": "nonpayable",
      "type": "function"
    },
    {
      "inputs": [
        {
          "internalType": "address",
          "name": "_lpTokenAddress",
          "type": "address"
        }
      ],
      "name": "setLpTokenAddress",
      "outputs": [],
      "stateMutability": "nonpayable",
      "type": "function"
    },
    {
      "inputs": [
        {
          "internalType": "uint256",
          "name": "_maxTxPercent",
          "type": "uint256"
        }
      ],
      "name": "setMaxTxPercent",
      "outputs": [],
      "stateMutability": "nonpayable",
      "type": "function"
    },
    {
      "inputs": [
        {
          "internalType": "uint256",
          "name": "_swapNumber",
          "type": "uint256"
        }
      ],
      "name": "setNumTokensSellToAddToLiquidity",
      "outputs": [],
      "stateMutability": "nonpayable",
      "type": "function"
    },
    {
      "inputs": [
        {
          "internalType": "address",
          "name": "_router",
          "type": "address"
        }
      ],
      "name": "setRouter",
      "outputs": [],
      "stateMutability": "nonpayable",
      "type": "function"
    },
    {
      "inputs": [
        {
          "internalType": "bool",
          "name": "_enabled",
          "type": "bool"
        }
      ],
      "name": "setSwapAndLiquifyEnabled",
      "outputs": [],
      "stateMutability": "nonpayable",
      "type": "function"
    },
    {
      "inputs": [
        {
          "internalType": "uint256",
          "name": "_taxFee",
          "type": "uint256"
        }
      ],
      "name": "setTaxFeePercent",
      "outputs": [],
      "stateMutability": "nonpayable",
      "type": "function"
    },
    {
      "inputs": [
        {
          "internalType": "address",
          "name": "_teamAddress",
          "type": "address"
        }
      ],
      "name": "setTeamAddress",
      "outputs": [],
      "stateMutability": "nonpayable",
      "type": "function"
    },
    {
      "inputs": [],
      "name": "teamAddress",
      "outputs": [
        {
          "internalType": "address",
          "name": "",
          "type": "address"
        }
      ],
      "stateMutability": "view",
      "type": "function"
    },
    {
      "inputs": [
        {
          "internalType": "address",
          "name": "_account",
          "type": "address"
        }
      ],
      "name": "teamExcludeFromFee",
      "outputs": [],
      "stateMutability": "nonpayable",
      "type": "function"
    },
    {
      "inputs": [
        {
          "internalType": "address",
          "name": "_account",
          "type": "address"
        }
      ],
      "name": "teamExcludeFromReward",
      "outputs": [],
      "stateMutability": "nonpayable",
      "type": "function"
    },
    {
      "inputs": [
        {
          "internalType": "address",
          "name": "_account",
          "type": "address"
        }
      ],
      "name": "teamIncludeInFee",
      "outputs": [],
      "stateMutability": "nonpayable",
      "type": "function"
    },
    {
      "inputs": [
        {
          "internalType": "address",
          "name": "_account",
          "type": "address"
        }
      ],
      "name": "teamIncludeInReward",
      "outputs": [],
      "stateMutability": "nonpayable",
      "type": "function"
    },
    {
      "inputs": [
        {
          "internalType": "address",
          "name": "_newOwner",
          "type": "address"
        }
      ],
      "name": "transferBabyDogeOwnership",
      "outputs": [],
      "stateMutability": "nonpayable",
      "type": "function"
    },
    {
      "inputs": [
        {
          "internalType": "address",
          "name": "newOwner",
          "type": "address"
        }
      ],
      "name": "transferOwnership",
      "outputs": [],
      "stateMutability": "nonpayable",
      "type": "function"
    },
    {
      "inputs": [],
      "name": "unlock",
      "outputs": [],
      "stateMutability": "nonpayable",
      "type": "function"
    },
    {
      "inputs": [
        {
          "internalType": "address",
          "name": "",
          "type": "address"
        }
      ],
      "name": "whiteListed",
      "outputs": [
        {
          "internalType": "bool",
          "name": "",
          "type": "bool"
        }
      ],
      "stateMutability": "view",
      "type": "function"
    },
    {
      "stateMutability": "payable",
      "type": "receive"
    }
  ],
  "bytecode": "0x60e0604052600480546001600160a01b03199081167310ed43c718714eb63d5aa57b78b54704e256024e179091556228206f6005557fd0a1e359811322d97991e03f863a0c30c2cf029c00000000000000000000000060c052600780548216737b3ec232b08bd7b4b3305be0c044d907b2df960b17905560088054821673c748673057861a797275cd8a068abb95a902e8de1790556009805490911673c736ca3d9b1e90af4230bd8f9626528b3d4e0ee01790556107d0600b55348015620000c657600080fd5b50604051620024e3380380620024e3833981016040819052620000e991620001b7565b606097881b6001600160601b03199081166080529690971b90951660a052600a80546001600160a01b03199081166001600160a01b03938416179091556009805482169583169590951790945560088054851693821693909317928390556004805485169282169290921790915560078054841694821694909417909355600d80549184169183169190911790556000805433908316179055600c805490911691909216179055426006556200025e565b80516001600160a01b0381168114620001b257600080fd5b919050565b600080600080600080600080610100898b031215620001d4578384fd5b620001df896200019a565b9750620001ef60208a016200019a565b9650620001ff60408a016200019a565b95506200020f60608a016200019a565b94506200021f60808a016200019a565b93506200022f60a08a016200019a565b92506200023f60c08a016200019a565b91506200024f60e08a016200019a565b90509295985092959890939650565b60805160601c60a05160601c60c05160601c612230620002b36000396000818161112101528181611a4c0152611b090152600081816115770152611c1d0152600081816113760152611ca801526122306000f3fe6080604052600436106102b15760003560e01c80638dd9500211610175578063d543dbeb116100dc578063ecb1e84411610095578063f0f165af1161006f578063f0f165af146107af578063f2fde38b146107cf578063f5ae497a146107ef578063fa0fca8414610804576102b8565b8063ecb1e84414610765578063ed9aab5114610785578063eda0228f1461079a576102b8565b8063d543dbeb146106bb578063dc8ab6b8146106db578063dd467064146106fb578063e3cd9d691461071b578063e52c377514610730578063ea2f0b3714610745576102b8565b8063b2bdfa7b1161012e578063b2bdfa7b1461061c578063c0d7865514610631578063c49b9a8014610651578063c757483914610671578063c7de612214610686578063cbd6149a1461069b576102b8565b80638dd95002146105935780638ee88c53146105a8578063947a36fb146105c85780639654fc38146105dd578063a69df4b5146105f2578063a7caecc714610607576102b8565b8063477d9d62116102195780636e04ff0d116101d25780636e04ff0d146104f1578063715018a61461051f5780637841739814610534578063844284d71461054957806385d6bb811461055e5780638da5cb5b1461057e576102b8565b8063477d9d621461043c57806352390c021461045c57806354bce2541461047c578063602bc62b1461049c57806365651d78146104b15780636690864e146104d1576102b8565b80631b30a8041161026b5780631b30a8041461037a5780631c75f0851461039a57806322a90082146103bc5780633685d419146103dc578063437823ec146103fc5780634585e33b1461041c576102b8565b8062ad22b7146102ba5780630384d2a3146102da578063061c82d0146102fa5780630c8357211461031a57806319d8ac611461032f5780631af032031461035a576102b8565b366102b857005b005b3480156102c657600080fd5b506102b86102d5366004611cd4565b610831565b3480156102e657600080fd5b506102b86102f5366004611da7565b6108d4565b34801561030657600080fd5b506102b8610315366004611da7565b610939565b34801561032657600080fd5b506102b861099d565b34801561033b57600080fd5b50610344610a53565b604051610351919061213c565b60405180910390f35b34801561036657600080fd5b506102b8610375366004611cd4565b610a59565b34801561038657600080fd5b506102b8610395366004611cd4565b610b95565b3480156103a657600080fd5b506103af610bfa565b6040516103519190611dfd565b3480156103c857600080fd5b506102b86103d7366004611da7565b610c09565b3480156103e857600080fd5b506102b86103f7366004611cd4565b610c43565b34801561040857600080fd5b506102b8610417366004611cd4565b610ca8565b34801561042857600080fd5b506102b8610437366004611d3a565b610d0d565b34801561044857600080fd5b506102b8610457366004611cd4565b610d52565b34801561046857600080fd5b506102b8610477366004611cd4565b610dca565b34801561048857600080fd5b506102b8610497366004611cd4565b610dff565b3480156104a857600080fd5b50610344610e34565b3480156104bd57600080fd5b506102b86104cc366004611cd4565b610e3a565b3480156104dd57600080fd5b506102b86104ec366004611cd4565b610e91565b3480156104fd57600080fd5b5061051161050c366004611d3a565b610ee8565b604051610351929190611e75565b34801561052b57600080fd5b506102b8610f07565b34801561054057600080fd5b506102b8610f74565b34801561055557600080fd5b506103446110b3565b34801561056a57600080fd5b506102b8610579366004611cd4565b6110b9565b34801561058a57600080fd5b506103af611110565b34801561059f57600080fd5b506103af61111f565b3480156105b457600080fd5b506102b86105c3366004611da7565b611143565b3480156105d457600080fd5b506103446111a8565b3480156105e957600080fd5b506103af6111ae565b3480156105fe57600080fd5b506102b86111bd565b34801561061357600080fd5b506102b8611257565b34801561062857600080fd5b506103af61129a565b34801561063d57600080fd5b506102b861064c366004611cd4565b6112a9565b34801561065d57600080fd5b506102b861066c366004611d02565b611300565b34801561067d57600080fd5b506103af611365565b34801561069257600080fd5b506103af611374565b3480156106a757600080fd5b506102b86106b6366004611cd4565b611398565b3480156106c757600080fd5b506102b86106d6366004611da7565b6113ef565b3480156106e757600080fd5b506102b86106f6366004611da7565b611454565b34801561070757600080fd5b506102b8610716366004611da7565b6114b0565b34801561072757600080fd5b506102b8611540565b34801561073c57600080fd5b506103af611575565b34801561075157600080fd5b506102b8610760366004611cd4565b611599565b34801561077157600080fd5b506102b8610780366004611cd4565b6115ce565b34801561079157600080fd5b506103af611603565b3480156107a657600080fd5b506103af611612565b3480156107bb57600080fd5b506102b86107ca366004611da7565b611621565b3480156107db57600080fd5b506102b86107ea366004611cd4565b611686565b3480156107fb57600080fd5b506103af61172a565b34801561081057600080fd5b5061082461081f366004611cd4565b611739565b6040516103519190611e6a565b61083961174e565b600c546001600160a01b0390811691161461086f5760405162461bcd60e51b815260040161086690612075565b60405180910390fd5b600d5460405163291c860160e11b81526001600160a01b03909116906352390c029061089f908490600401611dfd565b600060405180830381600087803b1580156108b957600080fd5b505af11580156108cd573d6000803e3d6000fd5b5050505050565b6108dc61174e565b6000546001600160a01b039081169116146109095760405162461bcd60e51b815260040161086690612040565b600d546040516337519c1960e21b81526001600160a01b039091169063dd4670649061089f90849060040161213c565b61094161174e565b6000546001600160a01b0390811691161461096e5760405162461bcd60e51b815260040161086690612040565b600d546040516261c82d60e41b81526001600160a01b039091169063061c82d09061089f90849060040161213c565b6109a561174e565b6000546001600160a01b039081169116146109d25760405162461bcd60e51b815260040161086690612040565b600d60009054906101000a90046001600160a01b03166001600160a01b03166348c54b9d6040518163ffffffff1660e01b8152600401600060405180830381600087803b158015610a2257600080fd5b505af1158015610a36573d6000803e3d6000fd5b5050600054610a5192506001600160a01b0316905047611752565b565b60065481565b610a6161174e565b6000546001600160a01b03908116911614610a8e5760405162461bcd60e51b815260040161086690612040565b6040516370a0823160e01b81526000906001600160a01b038316906370a0823190610abd903090600401611dfd565b60206040518083038186803b158015610ad557600080fd5b505afa158015610ae9573d6000803e3d6000fd5b505050506040513d601f19601f82011682018060405250810190610b0d9190611dbf565b60405163a9059cbb60e01b81529091506001600160a01b0383169063a9059cbb90610b3e9033908590600401611e51565b602060405180830381600087803b158015610b5857600080fd5b505af1158015610b6c573d6000803e3d6000fd5b505050506040513d601f19601f82011682018060405250810190610b909190611d1e565b505050565b610b9d61174e565b600c546001600160a01b03908116911614610bca5760405162461bcd60e51b815260040161086690612075565b600d5460405163ea2f0b3760e01b81526001600160a01b039091169063ea2f0b379061089f908490600401611dfd565b600c546001600160a01b031681565b610c1161174e565b6000546001600160a01b03908116911614610c3e5760405162461bcd60e51b815260040161086690612040565b600555565b610c4b61174e565b6000546001600160a01b03908116911614610c785760405162461bcd60e51b815260040161086690612040565b600d54604051633685d41960e01b81526001600160a01b0390911690633685d4199061089f908490600401611dfd565b610cb061174e565b6000546001600160a01b03908116911614610cdd5760405162461bcd60e51b815260040161086690612040565b600d546040516310de08fb60e21b81526001600160a01b039091169063437823ec9061089f908490600401611dfd565b610d1561174e565b6007546001600160a01b03908116911614610d425760405162461bcd60e51b815260040161086690611ed2565b610d4a6117ee565b505042600655565b610d5a61174e565b6000546001600160a01b03908116911614610d875760405162461bcd60e51b815260040161086690612040565b6001600160a01b038116610d9a57600080fd5b600d5460405163f2fde38b60e01b81526001600160a01b039091169063f2fde38b9061089f908490600401611dfd565b610dd261174e565b6000546001600160a01b0390811691161461086f5760405162461bcd60e51b815260040161086690612040565b610e0761174e565b600c546001600160a01b03908116911614610cdd5760405162461bcd60e51b815260040161086690612075565b60025490565b610e4261174e565b6000546001600160a01b03908116911614610e6f5760405162461bcd60e51b815260040161086690612040565b600980546001600160a01b0319166001600160a01b0392909216919091179055565b610e9961174e565b6000546001600160a01b03908116911614610ec65760405162461bcd60e51b815260040161086690612040565b600c80546001600160a01b0319166001600160a01b0392909216919091179055565b6000606060055460065442610efd919061219c565b1191509250929050565b610f0f61174e565b6000546001600160a01b03908116911614610f3c5760405162461bcd60e51b815260040161086690612040565b600080546040516001600160a01b03909116906000805160206121db833981519152908390a3600080546001600160a01b0319169055565b610f7c61174e565b6000546001600160a01b03908116911614610fa95760405162461bcd60e51b815260040161086690612040565b6009546040516370a0823160e01b81526000916001600160a01b0316906370a0823190610fda903090600401611dfd565b60206040518083038186803b158015610ff257600080fd5b505afa158015611006573d6000803e3d6000fd5b505050506040513d601f19601f8201168201806040525081019061102a9190611dbf565b60095460405163a9059cbb60e01b81529192506001600160a01b03169063a9059cbb9061105d9033908590600401611e51565b602060405180830381600087803b15801561107757600080fd5b505af115801561108b573d6000803e3d6000fd5b505050506040513d601f19601f820116820180604052508101906110af9190611d1e565b5050565b600b5481565b6110c161174e565b6000546001600160a01b039081169116146110ee5760405162461bcd60e51b815260040161086690612040565b600a80546001600160a01b0319166001600160a01b0392909216919091179055565b6000546001600160a01b031690565b7f000000000000000000000000000000000000000000000000000000000000000081565b61114b61174e565b6000546001600160a01b039081169116146111785760405162461bcd60e51b815260040161086690612040565b600d54604051638ee88c5360e01b81526001600160a01b0390911690638ee88c539061089f90849060040161213c565b60055481565b6008546001600160a01b031681565b6001546001600160a01b031633146111e75760405162461bcd60e51b8152600401610866906120f9565b60025442116112085760405162461bcd60e51b8152600401610866906120c2565b600154600080546040516001600160a01b0393841693909116916000805160206121db83398151915291a3600154600080546001600160a01b0319166001600160a01b03909216919091179055565b61125f61174e565b6000546001600160a01b0390811691161461128c5760405162461bcd60e51b815260040161086690612040565b6112946117ee565b42600655565b6000546001600160a01b031681565b6112b161174e565b6000546001600160a01b039081169116146112de5760405162461bcd60e51b815260040161086690612040565b600480546001600160a01b0319166001600160a01b0392909216919091179055565b61130861174e565b6000546001600160a01b039081169116146113355760405162461bcd60e51b815260040161086690612040565b600d54604051630189373560e71b81526001600160a01b039091169063c49b9a809061089f908490600401611e6a565b600a546001600160a01b031681565b7f000000000000000000000000000000000000000000000000000000000000000081565b6113a061174e565b6000546001600160a01b039081169116146113cd5760405162461bcd60e51b815260040161086690612040565b600880546001600160a01b0319166001600160a01b0392909216919091179055565b6113f761174e565b6000546001600160a01b039081169116146114245760405162461bcd60e51b815260040161086690612040565b600d5460405163d543dbeb60e01b81526001600160a01b039091169063d543dbeb9061089f90849060040161213c565b61145c61174e565b6000546001600160a01b039081169116146114895760405162461bcd60e51b815260040161086690612040565b6107d08111156114ab5760405162461bcd60e51b815260040161086690611ff9565b600b55565b6114b861174e565b6000546001600160a01b039081169116146114e55760405162461bcd60e51b815260040161086690612040565b60008054600180546001600160a01b03199081166001600160a01b038416179091551690556115148142612145565b600255600080546040516001600160a01b03909116906000805160206121db833981519152908390a350565b61154861174e565b6000546001600160a01b039081169116146112945760405162461bcd60e51b815260040161086690612040565b7f000000000000000000000000000000000000000000000000000000000000000081565b6115a161174e565b6000546001600160a01b03908116911614610bca5760405162461bcd60e51b815260040161086690612040565b6115d661174e565b600c546001600160a01b03908116911614610c785760405162461bcd60e51b815260040161086690612075565b6007546001600160a01b031681565b6004546001600160a01b031681565b61162961174e565b6000546001600160a01b039081169116146116565760405162461bcd60e51b815260040161086690612040565b600d5460405163f0f165af60e01b81526001600160a01b039091169063f0f165af9061089f90849060040161213c565b61168e61174e565b6000546001600160a01b039081169116146116bb5760405162461bcd60e51b815260040161086690612040565b6001600160a01b0381166116e15760405162461bcd60e51b815260040161086690611f1f565b600080546040516001600160a01b03808516939216916000805160206121db83398151915291a3600080546001600160a01b0319166001600160a01b0392909216919091179055565b6009546001600160a01b031681565b60036020526000908152604090205460ff1681565b3390565b804710156117725760405162461bcd60e51b815260040161086690611fc2565b6000826001600160a01b03168260405161178b90611dfa565b60006040518083038185875af1925050503d80600081146117c8576040519150601f19603f3d011682016040523d82523d6000602084013e6117cd565b606091505b5050905080610b905760405162461bcd60e51b815260040161086690611f65565b600b541561192257600b546009546040516370a0823160e01b815260009291612710916001600160a01b03909116906370a0823190611831903090600401611dfd565b60206040518083038186803b15801561184957600080fd5b505afa15801561185d573d6000803e3d6000fd5b505050506040513d601f19601f820116820180604052508101906118819190611dbf565b61188b919061215d565b611895919061217d565b600954600a5460405163a9059cbb60e01b81529293506001600160a01b039182169263a9059cbb926118cd9216908590600401611e51565b602060405180830381600087803b1580156118e757600080fd5b505af11580156118fb573d6000803e3d6000fd5b505050506040513d601f19601f8201168201806040525081019061191f9190611d1e565b50505b6009546040516370a0823160e01b81526000916001600160a01b0316906370a0823190611953903090600401611dfd565b60206040518083038186803b15801561196b57600080fd5b505afa15801561197f573d6000803e3d6000fd5b505050506040513d601f19601f820116820180604052508101906119a39190611dbf565b6009546004805460405163095ea7b360e01b81529394506001600160a01b039283169363095ea7b3936119db93921691869101611e51565b602060405180830381600087803b1580156119f557600080fd5b505af1158015611a09573d6000803e3d6000fd5b505050506040513d601f19601f82011682018060405250810190611a2d9190611d1e565b506004546008546000916001600160a01b039081169163baa2abde91167f00000000000000000000000000000000000000000000000000000000000000008560018030611a7c426104b0612145565b6040518863ffffffff1660e01b8152600401611a9e9796959493929190611e11565b6040805180830381600087803b158015611ab757600080fd5b505af1158015611acb573d6000803e3d6000fd5b505050506040513d601f19601f82011682018060405250810190611aef9190611dd7565b604051632e1a7d4d60e01b81529092506001600160a01b037f0000000000000000000000000000000000000000000000000000000000000000169150632e1a7d4d90611b3f90849060040161213c565b600060405180830381600087803b158015611b5957600080fd5b505af1158015611b6d573d6000803e3d6000fd5b50506008546040516370a0823160e01b8152600093506001600160a01b0390911691506370a0823190611ba4903090600401611dfd565b60206040518083038186803b158015611bbc57600080fd5b505afa158015611bd0573d6000803e3d6000fd5b505050506040513d601f19601f82011682018060405250810190611bf49190611dbf565b60085460405163a9059cbb60e01b81529192506001600160a01b03169063a9059cbb90611c47907f0000000000000000000000000000000000000000000000000000000000000000908590600401611e51565b602060405180830381600087803b158015611c6157600080fd5b505af1158015611c75573d6000803e3d6000fd5b505050506040513d601f19601f82011682018060405250810190611c999190611d1e565b5047611cce6001600160a01b037f00000000000000000000000000000000000000000000000000000000000000001682611752565b50505050565b600060208284031215611ce5578081fd5b81356001600160a01b0381168114611cfb578182fd5b9392505050565b600060208284031215611d13578081fd5b8135611cfb816121c9565b600060208284031215611d2f578081fd5b8151611cfb816121c9565b60008060208385031215611d4c578081fd5b823567ffffffffffffffff80821115611d63578283fd5b818501915085601f830112611d76578283fd5b813581811115611d84578384fd5b866020828501011115611d95578384fd5b60209290920196919550909350505050565b600060208284031215611db8578081fd5b5035919050565b600060208284031215611dd0578081fd5b5051919050565b60008060408385031215611de9578182fd5b505080516020909101519092909150565b90565b6001600160a01b0391909116815260200190565b6001600160a01b039788168152958716602087015260408601949094526060850192909252608084015290921660a082015260c081019190915260e00190565b6001600160a01b03929092168252602082015260400190565b901515815260200190565b6000831515825260206040818401528351806040850152825b81811015611eaa57858101830151858201606001528201611e8e565b81811115611ebb5783606083870101525b50601f01601f191692909201606001949350505050565b6020808252602d908201527f4f6e6c7920436861696e6c696e6b204b6565706572732063616e2063616c6c2060408201526c3a3434b990333ab731ba34b7b760991b606082015260800190565b60208082526026908201527f4f776e61626c653a206e6577206f776e657220697320746865207a65726f206160408201526564647265737360d01b606082015260800190565b6020808252603a908201527f416464726573733a20756e61626c6520746f2073656e642076616c75652c207260408201527f6563697069656e74206d61792068617665207265766572746564000000000000606082015260800190565b6020808252601d908201527f416464726573733a20696e73756666696369656e742062616c616e6365000000604082015260600190565b60208082526027908201527f436f6d6d756e6974792050657263656e742063616e74206265206d6f7265207460408201526668656e2032302560c81b606082015260800190565b6020808252818101527f4f776e61626c653a2063616c6c6572206973206e6f7420746865206f776e6572604082015260600190565b6020808252602d908201527f4f6e6c79207468652042616279446f6765205465616d2063616e2063616c6c2060408201526c3a3434b990333ab731ba34b7b760991b606082015260800190565b6020808252601f908201527f436f6e7472616374206973206c6f636b656420756e74696c2037206461797300604082015260600190565b60208082526023908201527f596f7520646f6e27742068617665207065726d697373696f6e20746f20756e6c6040820152626f636b60e81b606082015260800190565b90815260200190565b60008219821115612158576121586121b3565b500190565b60008261217857634e487b7160e01b81526012600452602481fd5b500490565b6000816000190483118215151615612197576121976121b3565b500290565b6000828210156121ae576121ae6121b3565b500390565b634e487b7160e01b600052601160045260246000fd5b80151581146121d757600080fd5b5056fe8be0079c531659141344cd1fd0a4f28419497f9722a3daafe3b4186f6b6457e0a26469706673582212203e0e0e88b835080e5a492bcf66ef093c0f7085ce604c9a7bf351fbd0026578d164736f6c63430008000033",
  "linkReferences": {},
  "deployedLinkReferences": {}
}