{
  "_format": "hh-sol-artifact-1",
  "contractName": "BabyDogeBurner",
  "sourceName": "contracts/RenouncedContract.sol",
  "abi": [
    {
      "inputs": [
        {
          "internalType": "address",
          "name": "_bnbReciever",
          "type": "address"
        },
        {
          "internalType": "address",
          "name": "_babyDogeReciever",
          "type": "address"
        },
        {
          "internalType": "address",
          "name": "_keeperContract",
          "type": "address"
        },
        {
          "internalType": "address",
          "name": "_lpTokenAddress",
          "type": "address"
        },
        {
          "internalType": "address",
          "name": "_babyDoge",
          "type": "address"
        },
        {
          "internalType": "address",
          "name": "_router",
          "type": "address"
        },
        {
          "internalType": "address",
          "name": "_WBNB",
          "type": "address"
        }
      ],
      "stateMutability": "nonpayable",
      "type": "constructor"
    },
    {
      "anonymous": false,
      "inputs": [
        {
          "indexed": true,
          "internalType": "address",
          "name": "previousOwner",
          "type": "address"
        },
        {
          "indexed": true,
          "internalType": "address",
          "name": "newOwner",
          "type": "address"
        }
      ],
      "name": "OwnershipTransferred",
      "type": "event"
    },
    {
      "stateMutability": "payable",
      "type": "fallback"
    },
    {
      "inputs": [],
      "name": "PancakeRouter",
      "outputs": [
        {
          "internalType": "address",
          "name": "",
          "type": "address"
        }
      ],
      "stateMutability": "view",
      "type": "function"
    },
    {
      "inputs": [],
      "name": "WBNB",
      "outputs": [
        {
          "internalType": "address",
          "name": "",
          "type": "address"
        }
      ],
      "stateMutability": "view",
      "type": "function"
    },
    {
      "inputs": [],
      "name": "babyDogeAddress",
      "outputs": [
        {
          "internalType": "address",
          "name": "",
          "type": "address"
        }
      ],
      "stateMutability": "view",
      "type": "function"
    },
    {
      "inputs": [],
      "name": "babyDogeReciever",
      "outputs": [
        {
          "internalType": "address",
          "name": "",
          "type": "address"
        }
      ],
      "stateMutability": "view",
      "type": "function"
    },
    {
      "inputs": [],
      "name": "bnbReciever",
      "outputs": [
        {
          "internalType": "address",
          "name": "",
          "type": "address"
        }
      ],
      "stateMutability": "view",
      "type": "function"
    },
    {
      "inputs": [
        {
          "internalType": "bytes",
          "name": "",
          "type": "bytes"
        }
      ],
      "name": "checkUpkeep",
      "outputs": [
        {
          "internalType": "bool",
          "name": "upkeepNeeded",
          "type": "bool"
        },
        {
          "internalType": "bytes",
          "name": "",
          "type": "bytes"
        }
      ],
      "stateMutability": "nonpayable",
      "type": "function"
    },
    {
      "inputs": [],
      "name": "exchangeLP",
      "outputs": [],
      "stateMutability": "nonpayable",
      "type": "function"
    },
    {
      "inputs": [],
      "name": "keeperAddress",
      "outputs": [
        {
          "internalType": "address",
          "name": "",
          "type": "address"
        }
      ],
      "stateMutability": "view",
      "type": "function"
    },
    {
      "inputs": [],
      "name": "lpTokenAddress",
      "outputs": [
        {
          "internalType": "address",
          "name": "",
          "type": "address"
        }
      ],
      "stateMutability": "view",
      "type": "function"
    },
    {
      "inputs": [],
      "name": "owner",
      "outputs": [
        {
          "internalType": "address",
          "name": "",
          "type": "address"
        }
      ],
      "stateMutability": "view",
      "type": "function"
    },
    {
      "inputs": [
        {
          "internalType": "bytes",
          "name": "",
          "type": "bytes"
        }
      ],
      "name": "performUpkeep",
      "outputs": [],
      "stateMutability": "nonpayable",
      "type": "function"
    },
    {
      "inputs": [],
      "name": "renounceOwnership",
      "outputs": [],
      "stateMutability": "nonpayable",
      "type": "function"
    },
    {
      "inputs": [
        {
          "internalType": "address",
          "name": "_bnbReciever",
          "type": "address"
        }
      ],
      "name": "setBNBReciever",
      "outputs": [],
      "stateMutability": "nonpayable",
      "type": "function"
    },
    {
      "inputs": [
        {
          "internalType": "address",
          "name": "_babyDogeReciever",
          "type": "address"
        }
      ],
      "name": "setBabyDogeReciever",
      "outputs": [],
      "stateMutability": "nonpayable",
      "type": "function"
    },
    {
      "inputs": [
        {
          "internalType": "address",
          "name": "_keeperAddress",
          "type": "address"
        }
      ],
      "name": "setKeeper",
      "outputs": [],
      "stateMutability": "nonpayable",
      "type": "function"
    },
    {
      "inputs": [
        {
          "internalType": "address",
          "name": "_router",
          "type": "address"
        }
      ],
      "name": "setRouter",
      "outputs": [],
      "stateMutability": "nonpayable",
      "type": "function"
    },
    {
      "inputs": [
        {
          "internalType": "address",
          "name": "newOwner",
          "type": "address"
        }
      ],
      "name": "transferOwnership",
      "outputs": [],
      "stateMutability": "nonpayable",
      "type": "function"
    },
    {
      "inputs": [
        {
          "internalType": "address",
          "name": "",
          "type": "address"
        }
      ],
      "name": "whiteListed",
      "outputs": [
        {
          "internalType": "bool",
          "name": "",
          "type": "bool"
        }
      ],
      "stateMutability": "view",
      "type": "function"
    },
    {
      "stateMutability": "payable",
      "type": "receive"
    }
  ],
  "bytecode": "0x60a06040523480156200001157600080fd5b5060405162001d9338038062001d93833981810160405281019062000037919062000304565b620000576200004b6200022160201b60201c565b6200022960201b60201c565b82600160006101000a81548173ffffffffffffffffffffffffffffffffffffffff021916908373ffffffffffffffffffffffffffffffffffffffff16021790555083600260006101000a81548173ffffffffffffffffffffffffffffffffffffffff021916908373ffffffffffffffffffffffffffffffffffffffff16021790555081600460006101000a81548173ffffffffffffffffffffffffffffffffffffffff021916908373ffffffffffffffffffffffffffffffffffffffff1602179055508073ffffffffffffffffffffffffffffffffffffffff1660808173ffffffffffffffffffffffffffffffffffffffff1660601b8152505086600560006101000a81548173ffffffffffffffffffffffffffffffffffffffff021916908373ffffffffffffffffffffffffffffffffffffffff16021790555085600760006101000a81548173ffffffffffffffffffffffffffffffffffffffff021916908373ffffffffffffffffffffffffffffffffffffffff16021790555084600660006101000a81548173ffffffffffffffffffffffffffffffffffffffff021916908373ffffffffffffffffffffffffffffffffffffffff16021790555050505050505050620003ff565b600033905090565b60008060009054906101000a900473ffffffffffffffffffffffffffffffffffffffff169050816000806101000a81548173ffffffffffffffffffffffffffffffffffffffff021916908373ffffffffffffffffffffffffffffffffffffffff1602179055508173ffffffffffffffffffffffffffffffffffffffff168173ffffffffffffffffffffffffffffffffffffffff167f8be0079c531659141344cd1fd0a4f28419497f9722a3daafe3b4186f6b6457e060405160405180910390a35050565b600081519050620002fe81620003e5565b92915050565b600080600080600080600060e0888a0312156200032057600080fd5b6000620003308a828b01620002ed565b9750506020620003438a828b01620002ed565b9650506040620003568a828b01620002ed565b9550506060620003698a828b01620002ed565b94505060806200037c8a828b01620002ed565b93505060a06200038f8a828b01620002ed565b92505060c0620003a28a828b01620002ed565b91505092959891949750929550565b6000620003be82620003c5565b9050919050565b600073ffffffffffffffffffffffffffffffffffffffff82169050919050565b620003f081620003b1565b8114620003fc57600080fd5b50565b60805160601c61196062000433600039600081816107d001528181610ad901528181610d060152610db101526119606000f3fe60806040526004361061010d5760003560e01c8063a7caecc711610095578063e52c377511610064578063e52c377514610326578063eda0228f14610351578063f2fde38b1461037c578063f5ae497a146103a5578063fa0fca84146103d057610114565b8063a7caecc714610290578063b67a85bd146102a7578063c0d78655146102d2578063c7de6122146102fb57610114565b8063715018a6116100dc578063715018a6146101cf578063748747e6146101e65780638da5cb5b1461020f5780638dd950021461023a5780639654fc381461026557610114565b8063056612cf146101165780631c9f35db1461013f5780634585e33b146101685780636e04ff0d1461019157610114565b3661011457005b005b34801561012257600080fd5b5061013d60048036038101906101389190611320565b61040d565b005b34801561014b57600080fd5b5061016660048036038101906101619190611320565b6104cd565b005b34801561017457600080fd5b5061018f600480360381019061018a9190611372565b61058d565b005b34801561019d57600080fd5b506101b860048036038101906101b39190611372565b610599565b6040516101c69291906116da565b60405180910390f35b3480156101db57600080fd5b506101e461065d565b005b3480156101f257600080fd5b5061020d60048036038101906102089190611320565b6106e5565b005b34801561021b57600080fd5b506102246107a5565b604051610231919061160c565b60405180910390f35b34801561024657600080fd5b5061024f6107ce565b60405161025c919061160c565b60405180910390f35b34801561027157600080fd5b5061027a6107f2565b604051610287919061160c565b60405180910390f35b34801561029c57600080fd5b506102a5610818565b005b3480156102b357600080fd5b506102bc610f35565b6040516102c9919061160c565b60405180910390f35b3480156102de57600080fd5b506102f960048036038101906102f49190611320565b610f5b565b005b34801561030757600080fd5b5061031061101b565b60405161031d919061160c565b60405180910390f35b34801561033257600080fd5b5061033b611041565b604051610348919061160c565b60405180910390f35b34801561035d57600080fd5b50610366611067565b604051610373919061160c565b60405180910390f35b34801561038857600080fd5b506103a3600480360381019061039e9190611320565b61108d565b005b3480156103b157600080fd5b506103ba611185565b6040516103c7919061160c565b60405180910390f35b3480156103dc57600080fd5b506103f760048036038101906103f29190611320565b6111ab565b60405161040491906116bf565b60405180910390f35b6104156111cb565b73ffffffffffffffffffffffffffffffffffffffff166104336107a5565b73ffffffffffffffffffffffffffffffffffffffff1614610489576040517f08c379a00000000000000000000000000000000000000000000000000000000081526004016104809061174a565b60405180910390fd5b80600560006101000a81548173ffffffffffffffffffffffffffffffffffffffff021916908373ffffffffffffffffffffffffffffffffffffffff16021790555050565b6104d56111cb565b73ffffffffffffffffffffffffffffffffffffffff166104f36107a5565b73ffffffffffffffffffffffffffffffffffffffff1614610549576040517f08c379a00000000000000000000000000000000000000000000000000000000081526004016105409061174a565b60405180910390fd5b80600760006101000a81548173ffffffffffffffffffffffffffffffffffffffff021916908373ffffffffffffffffffffffffffffffffffffffff16021790555050565b610595610818565b5050565b6000606068022b1c8c1227a00000600260009054906101000a900473ffffffffffffffffffffffffffffffffffffffff1673ffffffffffffffffffffffffffffffffffffffff166370a08231306040518263ffffffff1660e01b8152600401610602919061160c565b60206040518083038186803b15801561061a57600080fd5b505afa15801561062e573d6000803e3d6000fd5b505050506040513d601f19601f8201168201806040525081019061065291906113b7565b101591509250929050565b6106656111cb565b73ffffffffffffffffffffffffffffffffffffffff166106836107a5565b73ffffffffffffffffffffffffffffffffffffffff16146106d9576040517f08c379a00000000000000000000000000000000000000000000000000000000081526004016106d09061174a565b60405180910390fd5b6106e360006111d3565b565b6106ed6111cb565b73ffffffffffffffffffffffffffffffffffffffff1661070b6107a5565b73ffffffffffffffffffffffffffffffffffffffff1614610761576040517f08c379a00000000000000000000000000000000000000000000000000000000081526004016107589061174a565b60405180910390fd5b80600660006101000a81548173ffffffffffffffffffffffffffffffffffffffff021916908373ffffffffffffffffffffffffffffffffffffffff16021790555050565b60008060009054906101000a900473ffffffffffffffffffffffffffffffffffffffff16905090565b7f000000000000000000000000000000000000000000000000000000000000000081565b600160009054906101000a900473ffffffffffffffffffffffffffffffffffffffff1681565b6108206111cb565b73ffffffffffffffffffffffffffffffffffffffff16600660009054906101000a900473ffffffffffffffffffffffffffffffffffffffff1673ffffffffffffffffffffffffffffffffffffffff1614806108b4575061087e6111cb565b73ffffffffffffffffffffffffffffffffffffffff1661089c6107a5565b73ffffffffffffffffffffffffffffffffffffffff16145b6108f3576040517f08c379a00000000000000000000000000000000000000000000000000000000081526004016108ea9061176a565b60405180910390fd5b6000600260009054906101000a900473ffffffffffffffffffffffffffffffffffffffff1673ffffffffffffffffffffffffffffffffffffffff166370a08231306040518263ffffffff1660e01b8152600401610950919061160c565b60206040518083038186803b15801561096857600080fd5b505afa15801561097c573d6000803e3d6000fd5b505050506040513d601f19601f820116820180604052508101906109a091906113b7565b9050600260009054906101000a900473ffffffffffffffffffffffffffffffffffffffff1673ffffffffffffffffffffffffffffffffffffffff1663095ea7b3600460009054906101000a900473ffffffffffffffffffffffffffffffffffffffff16836040518363ffffffff1660e01b8152600401610a21929190611696565b602060405180830381600087803b158015610a3b57600080fd5b505af1158015610a4f573d6000803e3d6000fd5b505050506040513d601f19601f82011682018060405250810190610a739190611349565b506000600460009054906101000a900473ffffffffffffffffffffffffffffffffffffffff1673ffffffffffffffffffffffffffffffffffffffff1663baa2abde600160009054906101000a900473ffffffffffffffffffffffffffffffffffffffff167f000000000000000000000000000000000000000000000000000000000000000085600180306104b042610b0b91906117c2565b6040518863ffffffff1660e01b8152600401610b2d9796959493929190611627565b6040805180830381600087803b158015610b4657600080fd5b505af1158015610b5a573d6000803e3d6000fd5b505050506040513d601f19601f82011682018060405250810190610b7e91906113e0565b9150506000600160009054906101000a900473ffffffffffffffffffffffffffffffffffffffff1673ffffffffffffffffffffffffffffffffffffffff166370a08231306040518263ffffffff1660e01b8152600401610bde919061160c565b60206040518083038186803b158015610bf657600080fd5b505afa158015610c0a573d6000803e3d6000fd5b505050506040513d601f19601f82011682018060405250810190610c2e91906113b7565b9050600160009054906101000a900473ffffffffffffffffffffffffffffffffffffffff1673ffffffffffffffffffffffffffffffffffffffff1663a9059cbb600760009054906101000a900473ffffffffffffffffffffffffffffffffffffffff16836040518363ffffffff1660e01b8152600401610caf929190611696565b602060405180830381600087803b158015610cc957600080fd5b505af1158015610cdd573d6000803e3d6000fd5b505050506040513d601f19601f82011682018060405250810190610d019190611349565b5060007f000000000000000000000000000000000000000000000000000000000000000073ffffffffffffffffffffffffffffffffffffffff166370a08231306040518263ffffffff1660e01b8152600401610d5d919061160c565b60206040518083038186803b158015610d7557600080fd5b505afa158015610d89573d6000803e3d6000fd5b505050506040513d601f19601f82011682018060405250810190610dad91906113b7565b90507f000000000000000000000000000000000000000000000000000000000000000073ffffffffffffffffffffffffffffffffffffffff1663a9059cbb600560009054906101000a900473ffffffffffffffffffffffffffffffffffffffff16836040518363ffffffff1660e01b8152600401610e2c929190611696565b602060405180830381600087803b158015610e4657600080fd5b505af1158015610e5a573d6000803e3d6000fd5b505050506040513d601f19601f82011682018060405250810190610e7e9190611349565b506000803373ffffffffffffffffffffffffffffffffffffffff1647604051610ea6906115f7565b60006040518083038185875af1925050503d8060008114610ee3576040519150601f19603f3d011682016040523d82523d6000602084013e610ee8565b606091505b509150915081610f2d576040517f08c379a0000000000000000000000000000000000000000000000000000000008152600401610f249061172a565b60405180910390fd5b505050505050565b600660009054906101000a900473ffffffffffffffffffffffffffffffffffffffff1681565b610f636111cb565b73ffffffffffffffffffffffffffffffffffffffff16610f816107a5565b73ffffffffffffffffffffffffffffffffffffffff1614610fd7576040517f08c379a0000000000000000000000000000000000000000000000000000000008152600401610fce9061174a565b60405180910390fd5b80600460006101000a81548173ffffffffffffffffffffffffffffffffffffffff021916908373ffffffffffffffffffffffffffffffffffffffff16021790555050565b600560009054906101000a900473ffffffffffffffffffffffffffffffffffffffff1681565b600760009054906101000a900473ffffffffffffffffffffffffffffffffffffffff1681565b600460009054906101000a900473ffffffffffffffffffffffffffffffffffffffff1681565b6110956111cb565b73ffffffffffffffffffffffffffffffffffffffff166110b36107a5565b73ffffffffffffffffffffffffffffffffffffffff1614611109576040517f08c379a00000000000000000000000000000000000000000000000000000000081526004016111009061174a565b60405180910390fd5b600073ffffffffffffffffffffffffffffffffffffffff168173ffffffffffffffffffffffffffffffffffffffff161415611179576040517f08c379a00000000000000000000000000000000000000000000000000000000081526004016111709061170a565b60405180910390fd5b611182816111d3565b50565b600260009054906101000a900473ffffffffffffffffffffffffffffffffffffffff1681565b60036020528060005260406000206000915054906101000a900460ff1681565b600033905090565b60008060009054906101000a900473ffffffffffffffffffffffffffffffffffffffff169050816000806101000a81548173ffffffffffffffffffffffffffffffffffffffff021916908373ffffffffffffffffffffffffffffffffffffffff1602179055508173ffffffffffffffffffffffffffffffffffffffff168173ffffffffffffffffffffffffffffffffffffffff167f8be0079c531659141344cd1fd0a4f28419497f9722a3daafe3b4186f6b6457e060405160405180910390a35050565b6000813590506112a6816118e5565b92915050565b6000815190506112bb816118fc565b92915050565b60008083601f8401126112d357600080fd5b8235905067ffffffffffffffff8111156112ec57600080fd5b60208301915083600182028301111561130457600080fd5b9250929050565b60008151905061131a81611913565b92915050565b60006020828403121561133257600080fd5b600061134084828501611297565b91505092915050565b60006020828403121561135b57600080fd5b6000611369848285016112ac565b91505092915050565b6000806020838503121561138557600080fd5b600083013567ffffffffffffffff81111561139f57600080fd5b6113ab858286016112c1565b92509250509250929050565b6000602082840312156113c957600080fd5b60006113d78482850161130b565b91505092915050565b600080604083850312156113f357600080fd5b60006114018582860161130b565b92505060206114128582860161130b565b9150509250929050565b61142581611818565b82525050565b6114348161182a565b82525050565b60006114458261178a565b61144f8185611795565b935061145f818560208601611872565b611468816118d4565b840191505092915050565b61147c81611860565b82525050565b600061148f6026836117b1565b91507f4f776e61626c653a206e6577206f776e657220697320746865207a65726f206160008301527f64647265737300000000000000000000000000000000000000000000000000006020830152604082019050919050565b60006114f56014836117b1565b91507f4661696c656420746f2073656e642045746865720000000000000000000000006000830152602082019050919050565b60006115356020836117b1565b91507f4f776e61626c653a2063616c6c6572206973206e6f7420746865206f776e65726000830152602082019050919050565b60006115756000836117a6565b9150600082019050919050565b600061158f6025836117b1565b91507f43616c6c6572206973206e6f7420746865204b6565706572206f72207468652060008301527f4f776e65720000000000000000000000000000000000000000000000000000006020830152604082019050919050565b6115f181611856565b82525050565b600061160282611568565b9150819050919050565b6000602082019050611621600083018461141c565b92915050565b600060e08201905061163c600083018a61141c565b611649602083018961141c565b61165660408301886115e8565b6116636060830187611473565b6116706080830186611473565b61167d60a083018561141c565b61168a60c08301846115e8565b98975050505050505050565b60006040820190506116ab600083018561141c565b6116b860208301846115e8565b9392505050565b60006020820190506116d4600083018461142b565b92915050565b60006040820190506116ef600083018561142b565b8181036020830152611701818461143a565b90509392505050565b6000602082019050818103600083015261172381611482565b9050919050565b60006020820190508181036000830152611743816114e8565b9050919050565b6000602082019050818103600083015261176381611528565b9050919050565b6000602082019050818103600083015261178381611582565b9050919050565b600081519050919050565b600082825260208201905092915050565b600081905092915050565b600082825260208201905092915050565b60006117cd82611856565b91506117d883611856565b9250827fffffffffffffffffffffffffffffffffffffffffffffffffffffffffffffffff0382111561180d5761180c6118a5565b5b828201905092915050565b600061182382611836565b9050919050565b60008115159050919050565b600073ffffffffffffffffffffffffffffffffffffffff82169050919050565b6000819050919050565b600061186b82611856565b9050919050565b60005b83811015611890578082015181840152602081019050611875565b8381111561189f576000848401525b50505050565b7f4e487b7100000000000000000000000000000000000000000000000000000000600052601160045260246000fd5b6000601f19601f8301169050919050565b6118ee81611818565b81146118f957600080fd5b50565b6119058161182a565b811461191057600080fd5b50565b61191c81611856565b811461192757600080fd5b5056fea2646970667358221220d0c969a63657c5b43ed55d48788d5fd70051cf72012df0124aeddc89949704f964736f6c63430008000033",
  "linkReferences": {},
  "deployedLinkReferences": {}
}