{
  "_format": "hh-sol-artifact-1",
  "contractName": "BabyDogeManager",
  "sourceName": "contracts/RenouncedContract.sol",
  "abi": [
    {
      "inputs": [
        {
          "internalType": "address",
          "name": "_bnbReciever",
          "type": "address"
        },
        {
          "internalType": "address",
          "name": "_babyDogeReciever",
          "type": "address"
        },
        {
          "internalType": "address",
          "name": "_lpTokenAddress",
          "type": "address"
        },
        {
          "internalType": "address",
          "name": "_babyDogeAddress",
          "type": "address"
        },
        {
          "internalType": "address",
          "name": "_router",
          "type": "address"
        },
        {
          "internalType": "address",
          "name": "_communityAddress",
          "type": "address"
        },
        {
          "internalType": "address",
          "name": "_registryAddress",
          "type": "address"
        }
      ],
      "stateMutability": "nonpayable",
      "type": "constructor"
    },
    {
      "anonymous": false,
      "inputs": [
        {
          "indexed": true,
          "internalType": "address",
          "name": "previousOwner",
          "type": "address"
        },
        {
          "indexed": true,
          "internalType": "address",
          "name": "newOwner",
          "type": "address"
        }
      ],
      "name": "OwnershipTransferred",
      "type": "event"
    },
    {
      "stateMutability": "payable",
      "type": "fallback"
    },
    {
      "inputs": [],
      "name": "PancakeRouter",
      "outputs": [
        {
          "internalType": "address",
          "name": "",
          "type": "address"
        }
      ],
      "stateMutability": "view",
      "type": "function"
    },
    {
      "inputs": [],
      "name": "WBNB",
      "outputs": [
        {
          "internalType": "address",
          "name": "",
          "type": "address"
        }
      ],
      "stateMutability": "view",
      "type": "function"
    },
    {
      "inputs": [],
      "name": "_owner",
      "outputs": [
        {
          "internalType": "address",
          "name": "",
          "type": "address"
        }
      ],
      "stateMutability": "view",
      "type": "function"
    },
    {
      "inputs": [],
      "name": "babyDogeAddress",
      "outputs": [
        {
          "internalType": "address",
          "name": "",
          "type": "address"
        }
      ],
      "stateMutability": "view",
      "type": "function"
    },
    {
      "inputs": [],
      "name": "babyDogeReciever",
      "outputs": [
        {
          "internalType": "address",
          "name": "",
          "type": "address"
        }
      ],
      "stateMutability": "view",
      "type": "function"
    },
    {
      "inputs": [],
      "name": "bnbReciever",
      "outputs": [
        {
          "internalType": "address",
          "name": "",
          "type": "address"
        }
      ],
      "stateMutability": "view",
      "type": "function"
    },
    {
      "inputs": [
        {
          "internalType": "bytes",
          "name": "",
          "type": "bytes"
        }
      ],
      "name": "checkUpkeep",
      "outputs": [
        {
          "internalType": "bool",
          "name": "upkeepNeeded",
          "type": "bool"
        },
        {
          "internalType": "bytes",
          "name": "",
          "type": "bytes"
        }
      ],
      "stateMutability": "nonpayable",
      "type": "function"
    },
    {
      "inputs": [],
      "name": "claimTokensInBoth",
      "outputs": [],
      "stateMutability": "nonpayable",
      "type": "function"
    },
    {
      "inputs": [],
      "name": "communityPercent",
      "outputs": [
        {
          "internalType": "uint256",
          "name": "",
          "type": "uint256"
        }
      ],
      "stateMutability": "view",
      "type": "function"
    },
    {
      "inputs": [],
      "name": "communityWallet",
      "outputs": [
        {
          "internalType": "address",
          "name": "",
          "type": "address"
        }
      ],
      "stateMutability": "view",
      "type": "function"
    },
    {
      "inputs": [],
      "name": "emergencyWithdrawLP",
      "outputs": [],
      "stateMutability": "nonpayable",
      "type": "function"
    },
    {
      "inputs": [
        {
          "internalType": "address",
          "name": "_tokenAddress",
          "type": "address"
        }
      ],
      "name": "emergencyWithdrawToken",
      "outputs": [],
      "stateMutability": "nonpayable",
      "type": "function"
    },
    {
      "inputs": [],
      "name": "exchangeLP",
      "outputs": [],
      "stateMutability": "nonpayable",
      "type": "function"
    },
    {
      "inputs": [
        {
          "internalType": "address",
          "name": "_account",
          "type": "address"
        }
      ],
      "name": "excludeFromFee",
      "outputs": [],
      "stateMutability": "nonpayable",
      "type": "function"
    },
    {
      "inputs": [
        {
          "internalType": "address",
          "name": "_account",
          "type": "address"
        }
      ],
      "name": "excludeFromReward",
      "outputs": [],
      "stateMutability": "nonpayable",
      "type": "function"
    },
    {
      "inputs": [],
      "name": "getUnlockTime",
      "outputs": [
        {
          "internalType": "uint256",
          "name": "",
          "type": "uint256"
        }
      ],
      "stateMutability": "view",
      "type": "function"
    },
    {
      "inputs": [
        {
          "internalType": "address",
          "name": "_account",
          "type": "address"
        }
      ],
      "name": "includeInFee",
      "outputs": [],
      "stateMutability": "nonpayable",
      "type": "function"
    },
    {
      "inputs": [
        {
          "internalType": "address",
          "name": "_account",
          "type": "address"
        }
      ],
      "name": "includeInReward",
      "outputs": [],
      "stateMutability": "nonpayable",
      "type": "function"
    },
    {
      "inputs": [],
      "name": "interval",
      "outputs": [
        {
          "internalType": "uint256",
          "name": "",
          "type": "uint256"
        }
      ],
      "stateMutability": "view",
      "type": "function"
    },
    {
      "inputs": [],
      "name": "lastTimestamp",
      "outputs": [
        {
          "internalType": "uint256",
          "name": "",
          "type": "uint256"
        }
      ],
      "stateMutability": "view",
      "type": "function"
    },
    {
      "inputs": [
        {
          "internalType": "uint256",
          "name": "time",
          "type": "uint256"
        }
      ],
      "name": "lock",
      "outputs": [],
      "stateMutability": "nonpayable",
      "type": "function"
    },
    {
      "inputs": [
        {
          "internalType": "uint256",
          "name": "_time",
          "type": "uint256"
        }
      ],
      "name": "lockBabyDoge",
      "outputs": [],
      "stateMutability": "nonpayable",
      "type": "function"
    },
    {
      "inputs": [],
      "name": "lpTokenAddress",
      "outputs": [
        {
          "internalType": "address",
          "name": "",
          "type": "address"
        }
      ],
      "stateMutability": "view",
      "type": "function"
    },
    {
      "inputs": [],
      "name": "owner",
      "outputs": [
        {
          "internalType": "address",
          "name": "",
          "type": "address"
        }
      ],
      "stateMutability": "view",
      "type": "function"
    },
    {
      "inputs": [
        {
          "internalType": "bytes",
          "name": "",
          "type": "bytes"
        }
      ],
      "name": "performUpkeep",
      "outputs": [],
      "stateMutability": "nonpayable",
      "type": "function"
    },
    {
      "inputs": [],
      "name": "registryAddress",
      "outputs": [
        {
          "internalType": "address",
          "name": "",
          "type": "address"
        }
      ],
      "stateMutability": "view",
      "type": "function"
    },
    {
      "inputs": [],
      "name": "renounceOwnership",
      "outputs": [],
      "stateMutability": "nonpayable",
      "type": "function"
    },
    {
      "inputs": [
        {
          "internalType": "address",
          "name": "_bnbReciever",
          "type": "address"
        }
      ],
      "name": "setBNBReciever",
      "outputs": [],
      "stateMutability": "nonpayable",
      "type": "function"
    },
    {
      "inputs": [
        {
          "internalType": "address",
          "name": "_babyDogeAddress",
          "type": "address"
        }
      ],
      "name": "setBabyDogeAddress",
      "outputs": [],
      "stateMutability": "nonpayable",
      "type": "function"
    },
    {
      "inputs": [
        {
          "internalType": "address",
          "name": "_babyDogeReciever",
          "type": "address"
        }
      ],
      "name": "setBabyDogeReciever",
      "outputs": [],
      "stateMutability": "nonpayable",
      "type": "function"
    },
    {
      "inputs": [
        {
          "internalType": "uint256",
          "name": "_communityPercent",
          "type": "uint256"
        }
      ],
      "name": "setCommunityPercent",
      "outputs": [],
      "stateMutability": "nonpayable",
      "type": "function"
    },
    {
      "inputs": [
        {
          "internalType": "address",
          "name": "_communityWallet",
          "type": "address"
        }
      ],
      "name": "setCommunityWallet",
      "outputs": [],
      "stateMutability": "nonpayable",
      "type": "function"
    },
    {
      "inputs": [],
      "name": "setCountDown",
      "outputs": [],
      "stateMutability": "nonpayable",
      "type": "function"
    },
    {
      "inputs": [
        {
          "internalType": "uint256",
          "name": "_interval",
          "type": "uint256"
        }
      ],
      "name": "setInterval",
      "outputs": [],
      "stateMutability": "nonpayable",
      "type": "function"
    },
    {
      "inputs": [
        {
          "internalType": "uint256",
          "name": "_liquidityFee",
          "type": "uint256"
        }
      ],
      "name": "setLiquidityFeePercent",
      "outputs": [],
      "stateMutability": "nonpayable",
      "type": "function"
    },
    {
      "inputs": [
        {
          "internalType": "address",
          "name": "_lpTokenAddress",
          "type": "address"
        }
      ],
      "name": "setLpTokenAddress",
      "outputs": [],
      "stateMutability": "nonpayable",
      "type": "function"
    },
    {
      "inputs": [
        {
          "internalType": "uint256",
          "name": "_maxTxPercent",
          "type": "uint256"
        }
      ],
      "name": "setMaxTxPercent",
      "outputs": [],
      "stateMutability": "nonpayable",
      "type": "function"
    },
    {
      "inputs": [
        {
          "internalType": "uint256",
          "name": "_swapNumber",
          "type": "uint256"
        }
      ],
      "name": "setNumTokensSellToAddToLiquidity",
      "outputs": [],
      "stateMutability": "nonpayable",
      "type": "function"
    },
    {
      "inputs": [
        {
          "internalType": "address",
          "name": "_router",
          "type": "address"
        }
      ],
      "name": "setRouter",
      "outputs": [],
      "stateMutability": "nonpayable",
      "type": "function"
    },
    {
      "inputs": [
        {
          "internalType": "bool",
          "name": "_enabled",
          "type": "bool"
        }
      ],
      "name": "setSwapAndLiquifyEnabled",
      "outputs": [],
      "stateMutability": "nonpayable",
      "type": "function"
    },
    {
      "inputs": [
        {
          "internalType": "uint256",
          "name": "_taxFee",
          "type": "uint256"
        }
      ],
      "name": "setTaxFeePercent",
      "outputs": [],
      "stateMutability": "nonpayable",
      "type": "function"
    },
    {
      "inputs": [
        {
          "internalType": "address",
          "name": "_newOwner",
          "type": "address"
        }
      ],
      "name": "transferBabyDogeOwnership",
      "outputs": [],
      "stateMutability": "nonpayable",
      "type": "function"
    },
    {
      "inputs": [
        {
          "internalType": "address",
          "name": "newOwner",
          "type": "address"
        }
      ],
      "name": "transferOwnership",
      "outputs": [],
      "stateMutability": "nonpayable",
      "type": "function"
    },
    {
      "inputs": [],
      "name": "unlock",
      "outputs": [],
      "stateMutability": "nonpayable",
      "type": "function"
    },
    {
      "inputs": [
        {
          "internalType": "address",
          "name": "",
          "type": "address"
        }
      ],
      "name": "whiteListed",
      "outputs": [
        {
          "internalType": "bool",
          "name": "",
          "type": "bool"
        }
      ],
      "stateMutability": "view",
      "type": "function"
    },
    {
      "stateMutability": "payable",
      "type": "receive"
    }
  ],
  "bytecode": "0x60a0604052600480546001600160a01b03199081167310ed43c718714eb63d5aa57b78b54704e256024e179091556228206f6007557fd0a1e359811322d97991e03f863a0c30c2cf029c000000000000000000000000608052600980548216737b3ec232b08bd7b4b3305be0c044d907b2df960b179055600a8054821673c748673057861a797275cd8a068abb95a902e8de179055600b805490911673c736ca3d9b1e90af4230bd8f9626528b3d4e0ee01790556107d0600d55348015620000c657600080fd5b506040516200215038038062002150833981016040819052620000e991620001ab565b600580546001600160a01b03199081166001600160a01b03998a161790915560068054821697891697909717909655600c8054871692881692909217909155600b8054861694871694909417909355600a80548516928616929092179182905560048054851691861691909117905560098054841692851692909217909155600e8054919093169082161790915560008054339216919091179055426008556200023f565b80516001600160a01b0381168114620001a657600080fd5b919050565b600080600080600080600060e0888a031215620001c6578283fd5b620001d1886200018e565b9650620001e1602089016200018e565b9550620001f1604089016200018e565b945062000201606089016200018e565b935062000211608089016200018e565b92506200022160a089016200018e565b91506200023160c089016200018e565b905092959891949750929550565b60805160601c611ee46200026c6000396000818161100d0152818161184101526118fe0152611ee46000f3fe6080604052600436106102765760003560e01c80638ee88c531161014f578063d543dbeb116100c1578063ed9aab511161007a578063ed9aab51146106d5578063eda0228f146106ea578063f0f165af146106ff578063f2fde38b1461071f578063f5ae497a1461073f578063fa0fca84146107545761027d565b8063d543dbeb1461062b578063dc8ab6b81461064b578063dd4670641461066b578063e3cd9d691461068b578063e52c3775146106a0578063ea2f0b37146106b55761027d565b8063b2bdfa7b11610113578063b2bdfa7b1461058c578063c0d78655146105a1578063c49b9a80146105c1578063c7574839146105e1578063c7de6122146105f6578063cbd6149a1461060b5761027d565b80638ee88c5314610518578063947a36fb146105385780639654fc381461054d578063a69df4b514610562578063a7caecc7146105775761027d565b8063477d9d62116101e8578063715018a6116101ac578063715018a6146104825780637841739814610497578063844284d7146104ac57806385d6bb81146104c15780638da5cb5b146104e15780638dd95002146105035761027d565b8063477d9d62146103df57806352390c02146103ff578063602bc62b1461041f57806365651d78146104345780636e04ff0d146104545761027d565b80631af032031161023a5780631af032031461031f5780631c9f35db1461033f57806322a900821461035f5780633685d4191461037f578063437823ec1461039f5780634585e33b146103bf5761027d565b80630384d2a31461027f578063056612cf1461029f578063061c82d0146102bf5780630c835721146102df57806319d8ac61146102f45761027d565b3661027d57005b005b34801561028b57600080fd5b5061027d61029a366004611b89565b610781565b3480156102ab57600080fd5b5061027d6102ba366004611ab6565b610824565b3480156102cb57600080fd5b5061027d6102da366004611b89565b61087b565b3480156102eb57600080fd5b5061027d6108df565b34801561030057600080fd5b506103096109b8565b6040516103169190611df3565b60405180910390f35b34801561032b57600080fd5b5061027d61033a366004611ab6565b6109be565b34801561034b57600080fd5b5061027d61035a366004611ab6565b610afa565b34801561036b57600080fd5b5061027d61037a366004611b89565b610b51565b34801561038b57600080fd5b5061027d61039a366004611ab6565b610b8b565b3480156103ab57600080fd5b5061027d6103ba366004611ab6565b610bf0565b3480156103cb57600080fd5b5061027d6103da366004611b1c565b610c55565b3480156103eb57600080fd5b5061027d6103fa366004611ab6565b610c9a565b34801561040b57600080fd5b5061027d61041a366004611ab6565b610d12565b34801561042b57600080fd5b50610309610d77565b34801561044057600080fd5b5061027d61044f366004611ab6565b610d7d565b34801561046057600080fd5b5061047461046f366004611b1c565b610dd4565b604051610316929190611c54565b34801561048e57600080fd5b5061027d610df3565b3480156104a357600080fd5b5061027d610e60565b3480156104b857600080fd5b50610309610f9f565b3480156104cd57600080fd5b5061027d6104dc366004611ab6565b610fa5565b3480156104ed57600080fd5b506104f6610ffc565b6040516103169190611bdc565b34801561050f57600080fd5b506104f661100b565b34801561052457600080fd5b5061027d610533366004611b89565b61102f565b34801561054457600080fd5b50610309611094565b34801561055957600080fd5b506104f661109a565b34801561056e57600080fd5b5061027d6110a9565b34801561058357600080fd5b5061027d611143565b34801561059857600080fd5b506104f6611186565b3480156105ad57600080fd5b5061027d6105bc366004611ab6565b611195565b3480156105cd57600080fd5b5061027d6105dc366004611ae4565b6111ec565b3480156105ed57600080fd5b506104f6611251565b34801561060257600080fd5b506104f6611260565b34801561061757600080fd5b5061027d610626366004611ab6565b61126f565b34801561063757600080fd5b5061027d610646366004611b89565b6112c6565b34801561065757600080fd5b5061027d610666366004611b89565b61132b565b34801561067757600080fd5b5061027d610686366004611b89565b611365565b34801561069757600080fd5b5061027d6113f5565b3480156106ac57600080fd5b506104f661142a565b3480156106c157600080fd5b5061027d6106d0366004611ab6565b611439565b3480156106e157600080fd5b506104f661149e565b3480156106f657600080fd5b506104f66114ad565b34801561070b57600080fd5b5061027d61071a366004611b89565b6114bc565b34801561072b57600080fd5b5061027d61073a366004611ab6565b611521565b34801561074b57600080fd5b506104f66115c5565b34801561076057600080fd5b5061077461076f366004611ab6565b6115d4565b6040516103169190611c49565b6107896115e9565b6000546001600160a01b039081169116146107bf5760405162461bcd60e51b81526004016107b690611d44565b60405180910390fd5b600e546040516337519c1960e21b81526001600160a01b039091169063dd467064906107ef908490600401611df3565b600060405180830381600087803b15801561080957600080fd5b505af115801561081d573d6000803e3d6000fd5b5050505050565b61082c6115e9565b6000546001600160a01b039081169116146108595760405162461bcd60e51b81526004016107b690611d44565b600580546001600160a01b0319166001600160a01b0392909216919091179055565b6108836115e9565b6000546001600160a01b039081169116146108b05760405162461bcd60e51b81526004016107b690611d44565b600e546040516261c82d60e41b81526001600160a01b039091169063061c82d0906107ef908490600401611df3565b6108e76115e9565b6000546001600160a01b039081169116146109145760405162461bcd60e51b81526004016107b690611d44565b600e60009054906101000a90046001600160a01b03166001600160a01b03166348c54b9d6040518163ffffffff1660e01b8152600401600060405180830381600087803b15801561096457600080fd5b505af1158015610978573d6000803e3d6000fd5b5050600080546040516001600160a01b0390911693504780156108fc02935091818181858888f193505050501580156109b5573d6000803e3d6000fd5b50565b60085481565b6109c66115e9565b6000546001600160a01b039081169116146109f35760405162461bcd60e51b81526004016107b690611d44565b6040516370a0823160e01b81526000906001600160a01b038316906370a0823190610a22903090600401611bdc565b60206040518083038186803b158015610a3a57600080fd5b505afa158015610a4e573d6000803e3d6000fd5b505050506040513d601f19601f82011682018060405250810190610a729190611ba1565b60405163a9059cbb60e01b81529091506001600160a01b0383169063a9059cbb90610aa39033908590600401611c30565b602060405180830381600087803b158015610abd57600080fd5b505af1158015610ad1573d6000803e3d6000fd5b505050506040513d601f19601f82011682018060405250810190610af59190611b00565b505050565b610b026115e9565b6000546001600160a01b03908116911614610b2f5760405162461bcd60e51b81526004016107b690611d44565b600680546001600160a01b0319166001600160a01b0392909216919091179055565b610b596115e9565b6000546001600160a01b03908116911614610b865760405162461bcd60e51b81526004016107b690611d44565b600755565b610b936115e9565b6000546001600160a01b03908116911614610bc05760405162461bcd60e51b81526004016107b690611d44565b600e54604051633685d41960e01b81526001600160a01b0390911690633685d419906107ef908490600401611bdc565b610bf86115e9565b6000546001600160a01b03908116911614610c255760405162461bcd60e51b81526004016107b690611d44565b600e546040516310de08fb60e21b81526001600160a01b039091169063437823ec906107ef908490600401611bdc565b610c5d6115e9565b6009546001600160a01b03908116911614610c8a5760405162461bcd60e51b81526004016107b690611cf7565b610c926115ed565b505042600855565b610ca26115e9565b6000546001600160a01b03908116911614610ccf5760405162461bcd60e51b81526004016107b690611d44565b6001600160a01b038116610ce257600080fd5b600e5460405163f2fde38b60e01b81526001600160a01b039091169063f2fde38b906107ef908490600401611bdc565b610d1a6115e9565b6000546001600160a01b03908116911614610d475760405162461bcd60e51b81526004016107b690611d44565b600e5460405163291c860160e11b81526001600160a01b03909116906352390c02906107ef908490600401611bdc565b60025490565b610d856115e9565b6000546001600160a01b03908116911614610db25760405162461bcd60e51b81526004016107b690611d44565b600b80546001600160a01b0319166001600160a01b0392909216919091179055565b6000606060075460085442610de99190611e53565b1191509250929050565b610dfb6115e9565b6000546001600160a01b03908116911614610e285760405162461bcd60e51b81526004016107b690611d44565b600080546040516001600160a01b0390911690600080516020611e8f833981519152908390a3600080546001600160a01b0319169055565b610e686115e9565b6000546001600160a01b03908116911614610e955760405162461bcd60e51b81526004016107b690611d44565b600b546040516370a0823160e01b81526000916001600160a01b0316906370a0823190610ec6903090600401611bdc565b60206040518083038186803b158015610ede57600080fd5b505afa158015610ef2573d6000803e3d6000fd5b505050506040513d601f19601f82011682018060405250810190610f169190611ba1565b600b5460405163a9059cbb60e01b81529192506001600160a01b03169063a9059cbb90610f499033908590600401611c30565b602060405180830381600087803b158015610f6357600080fd5b505af1158015610f77573d6000803e3d6000fd5b505050506040513d601f19601f82011682018060405250810190610f9b9190611b00565b5050565b600d5481565b610fad6115e9565b6000546001600160a01b03908116911614610fda5760405162461bcd60e51b81526004016107b690611d44565b600c80546001600160a01b0319166001600160a01b0392909216919091179055565b6000546001600160a01b031690565b7f000000000000000000000000000000000000000000000000000000000000000081565b6110376115e9565b6000546001600160a01b039081169116146110645760405162461bcd60e51b81526004016107b690611d44565b600e54604051638ee88c5360e01b81526001600160a01b0390911690638ee88c53906107ef908490600401611df3565b60075481565b600a546001600160a01b031681565b6001546001600160a01b031633146110d35760405162461bcd60e51b81526004016107b690611db0565b60025442116110f45760405162461bcd60e51b81526004016107b690611d79565b600154600080546040516001600160a01b039384169390911691600080516020611e8f83398151915291a3600154600080546001600160a01b0319166001600160a01b03909216919091179055565b61114b6115e9565b6000546001600160a01b039081169116146111785760405162461bcd60e51b81526004016107b690611d44565b6111806115ed565b42600855565b6000546001600160a01b031681565b61119d6115e9565b6000546001600160a01b039081169116146111ca5760405162461bcd60e51b81526004016107b690611d44565b600480546001600160a01b0319166001600160a01b0392909216919091179055565b6111f46115e9565b6000546001600160a01b039081169116146112215760405162461bcd60e51b81526004016107b690611d44565b600e54604051630189373560e71b81526001600160a01b039091169063c49b9a80906107ef908490600401611c49565b600c546001600160a01b031681565b6005546001600160a01b031681565b6112776115e9565b6000546001600160a01b039081169116146112a45760405162461bcd60e51b81526004016107b690611d44565b600a80546001600160a01b0319166001600160a01b0392909216919091179055565b6112ce6115e9565b6000546001600160a01b039081169116146112fb5760405162461bcd60e51b81526004016107b690611d44565b600e5460405163d543dbeb60e01b81526001600160a01b039091169063d543dbeb906107ef908490600401611df3565b6113336115e9565b6000546001600160a01b039081169116146113605760405162461bcd60e51b81526004016107b690611d44565b600d55565b61136d6115e9565b6000546001600160a01b0390811691161461139a5760405162461bcd60e51b81526004016107b690611d44565b60008054600180546001600160a01b03199081166001600160a01b038416179091551690556113c98142611dfc565b600255600080546040516001600160a01b0390911690600080516020611e8f833981519152908390a350565b6113fd6115e9565b6000546001600160a01b039081169116146111805760405162461bcd60e51b81526004016107b690611d44565b6006546001600160a01b031681565b6114416115e9565b6000546001600160a01b0390811691161461146e5760405162461bcd60e51b81526004016107b690611d44565b600e5460405163ea2f0b3760e01b81526001600160a01b039091169063ea2f0b37906107ef908490600401611bdc565b6009546001600160a01b031681565b6004546001600160a01b031681565b6114c46115e9565b6000546001600160a01b039081169116146114f15760405162461bcd60e51b81526004016107b690611d44565b600e5460405163f0f165af60e01b81526001600160a01b039091169063f0f165af906107ef908490600401611df3565b6115296115e9565b6000546001600160a01b039081169116146115565760405162461bcd60e51b81526004016107b690611d44565b6001600160a01b03811661157c5760405162461bcd60e51b81526004016107b690611cb1565b600080546040516001600160a01b0380851693921691600080516020611e8f83398151915291a3600080546001600160a01b0319166001600160a01b0392909216919091179055565b600b546001600160a01b031681565b60036020526000908152604090205460ff1681565b3390565b600d54600b546040516370a0823160e01b815260009291612710916001600160a01b03909116906370a0823190611628903090600401611bdc565b60206040518083038186803b15801561164057600080fd5b505afa158015611654573d6000803e3d6000fd5b505050506040513d601f19601f820116820180604052508101906116789190611ba1565b6116829190611e14565b61168c9190611e34565b600b54600c5460405163a9059cbb60e01b81529293506001600160a01b039182169263a9059cbb926116c49216908590600401611c30565b602060405180830381600087803b1580156116de57600080fd5b505af11580156116f2573d6000803e3d6000fd5b505050506040513d601f19601f820116820180604052508101906117169190611b00565b50600b546040516370a0823160e01b81526000916001600160a01b0316906370a0823190611748903090600401611bdc565b60206040518083038186803b15801561176057600080fd5b505afa158015611774573d6000803e3d6000fd5b505050506040513d601f19601f820116820180604052508101906117989190611ba1565b600b546004805460405163095ea7b360e01b81529394506001600160a01b039283169363095ea7b3936117d093921691869101611c30565b602060405180830381600087803b1580156117ea57600080fd5b505af11580156117fe573d6000803e3d6000fd5b505050506040513d601f19601f820116820180604052508101906118229190611b00565b50600454600a546000916001600160a01b039081169163baa2abde91167f00000000000000000000000000000000000000000000000000000000000000008560018030611871426104b0611dfc565b6040518863ffffffff1660e01b81526004016118939796959493929190611bf0565b6040805180830381600087803b1580156118ac57600080fd5b505af11580156118c0573d6000803e3d6000fd5b505050506040513d601f19601f820116820180604052508101906118e49190611bb9565b604051632e1a7d4d60e01b81529092506001600160a01b037f0000000000000000000000000000000000000000000000000000000000000000169150632e1a7d4d90611934908490600401611df3565b600060405180830381600087803b15801561194e57600080fd5b505af1158015611962573d6000803e3d6000fd5b5050600a546040516370a0823160e01b8152600093506001600160a01b0390911691506370a0823190611999903090600401611bdc565b60206040518083038186803b1580156119b157600080fd5b505afa1580156119c5573d6000803e3d6000fd5b505050506040513d601f19601f820116820180604052508101906119e99190611ba1565b600a5460065460405163a9059cbb60e01b81529293506001600160a01b039182169263a9059cbb92611a219216908590600401611c30565b602060405180830381600087803b158015611a3b57600080fd5b505af1158015611a4f573d6000803e3d6000fd5b505050506040513d601f19601f82011682018060405250810190611a739190611b00565b5060055460405147916001600160a01b03169082156108fc029083906000818181858888f19350505050158015611aae573d6000803e3d6000fd5b505050505050565b600060208284031215611ac7578081fd5b81356001600160a01b0381168114611add578182fd5b9392505050565b600060208284031215611af5578081fd5b8135611add81611e80565b600060208284031215611b11578081fd5b8151611add81611e80565b60008060208385031215611b2e578081fd5b823567ffffffffffffffff80821115611b45578283fd5b818501915085601f830112611b58578283fd5b813581811115611b66578384fd5b866020828501011115611b77578384fd5b60209290920196919550909350505050565b600060208284031215611b9a578081fd5b5035919050565b600060208284031215611bb2578081fd5b5051919050565b60008060408385031215611bcb578182fd5b505080516020909101519092909150565b6001600160a01b0391909116815260200190565b6001600160a01b039788168152958716602087015260408601949094526060850192909252608084015290921660a082015260c081019190915260e00190565b6001600160a01b03929092168252602082015260400190565b901515815260200190565b6000831515825260206040818401528351806040850152825b81811015611c8957858101830151858201606001528201611c6d565b81811115611c9a5783606083870101525b50601f01601f191692909201606001949350505050565b60208082526026908201527f4f776e61626c653a206e6577206f776e657220697320746865207a65726f206160408201526564647265737360d01b606082015260800190565b6020808252602d908201527f4f6e6c7920436861696e6c696e6b204b6565706572732063616e2063616c6c2060408201526c0706572666f726d55706b65657609c1b606082015260800190565b6020808252818101527f4f776e61626c653a2063616c6c6572206973206e6f7420746865206f776e6572604082015260600190565b6020808252601f908201527f436f6e7472616374206973206c6f636b656420756e74696c2037206461797300604082015260600190565b60208082526023908201527f596f7520646f6e27742068617665207065726d697373696f6e20746f20756e6c6040820152626f636b60e81b606082015260800190565b90815260200190565b60008219821115611e0f57611e0f611e6a565b500190565b600082611e2f57634e487b7160e01b81526012600452602481fd5b500490565b6000816000190483118215151615611e4e57611e4e611e6a565b500290565b600082821015611e6557611e65611e6a565b500390565b634e487b7160e01b600052601160045260246000fd5b80151581146109b557600080fdfe8be0079c531659141344cd1fd0a4f28419497f9722a3daafe3b4186f6b6457e0a26469706673582212203277b62d5b774768104ede0427ee6c08face32a9046f44f90449de4aa301154264736f6c63430008000033",
  "linkReferences": {},
  "deployedLinkReferences": {}
}