{
  "_format": "hh-sol-artifact-1",
  "contractName": "BabyDogeManager",
  "sourceName": "contracts/RenouncedContract.sol",
  "abi": [
    {
      "inputs": [
        {
          "internalType": "address",
          "name": "_bnbReciever",
          "type": "address"
        },
        {
          "internalType": "address",
          "name": "_babyDogeReciever",
          "type": "address"
        },
        {
          "internalType": "address",
          "name": "_lpTokenAddress",
          "type": "address"
        },
        {
          "internalType": "address",
          "name": "_babyDogeAddress",
          "type": "address"
        },
        {
          "internalType": "address",
          "name": "_router",
          "type": "address"
        },
        {
          "internalType": "address",
          "name": "_communityAddress",
          "type": "address"
        },
        {
          "internalType": "address",
          "name": "_registryAddress",
          "type": "address"
        },
        {
          "internalType": "address",
          "name": "_teamAddress",
          "type": "address"
        }
      ],
      "stateMutability": "nonpayable",
      "type": "constructor"
    },
    {
      "anonymous": false,
      "inputs": [
        {
          "indexed": true,
          "internalType": "address",
          "name": "previousOwner",
          "type": "address"
        },
        {
          "indexed": true,
          "internalType": "address",
          "name": "newOwner",
          "type": "address"
        }
      ],
      "name": "OwnershipTransferred",
      "type": "event"
    },
    {
      "stateMutability": "payable",
      "type": "fallback"
    },
    {
      "inputs": [],
      "name": "PancakeRouter",
      "outputs": [
        {
          "internalType": "address",
          "name": "",
          "type": "address"
        }
      ],
      "stateMutability": "view",
      "type": "function"
    },
    {
      "inputs": [],
      "name": "WBNB",
      "outputs": [
        {
          "internalType": "address",
          "name": "",
          "type": "address"
        }
      ],
      "stateMutability": "view",
      "type": "function"
    },
    {
      "inputs": [],
      "name": "_owner",
      "outputs": [
        {
          "internalType": "address",
          "name": "",
          "type": "address"
        }
      ],
      "stateMutability": "view",
      "type": "function"
    },
    {
      "inputs": [],
      "name": "babyDogeAddress",
      "outputs": [
        {
          "internalType": "address",
          "name": "",
          "type": "address"
        }
      ],
      "stateMutability": "view",
      "type": "function"
    },
    {
      "inputs": [],
      "name": "babyDogeReciever",
      "outputs": [
        {
          "internalType": "address",
          "name": "",
          "type": "address"
        }
      ],
      "stateMutability": "view",
      "type": "function"
    },
    {
      "inputs": [],
      "name": "bnbReciever",
      "outputs": [
        {
          "internalType": "address",
          "name": "",
          "type": "address"
        }
      ],
      "stateMutability": "view",
      "type": "function"
    },
    {
      "inputs": [
        {
          "internalType": "bytes",
          "name": "",
          "type": "bytes"
        }
      ],
      "name": "checkUpkeep",
      "outputs": [
        {
          "internalType": "bool",
          "name": "upkeepNeeded",
          "type": "bool"
        },
        {
          "internalType": "bytes",
          "name": "",
          "type": "bytes"
        }
      ],
      "stateMutability": "nonpayable",
      "type": "function"
    },
    {
      "inputs": [],
      "name": "claimTokensInBoth",
      "outputs": [],
      "stateMutability": "nonpayable",
      "type": "function"
    },
    {
      "inputs": [],
      "name": "communityPercent",
      "outputs": [
        {
          "internalType": "uint256",
          "name": "",
          "type": "uint256"
        }
      ],
      "stateMutability": "view",
      "type": "function"
    },
    {
      "inputs": [],
      "name": "communityWallet",
      "outputs": [
        {
          "internalType": "address",
          "name": "",
          "type": "address"
        }
      ],
      "stateMutability": "view",
      "type": "function"
    },
    {
      "inputs": [],
      "name": "emergencyWithdrawLP",
      "outputs": [],
      "stateMutability": "nonpayable",
      "type": "function"
    },
    {
      "inputs": [
        {
          "internalType": "address",
          "name": "_tokenAddress",
          "type": "address"
        }
      ],
      "name": "emergencyWithdrawToken",
      "outputs": [],
      "stateMutability": "nonpayable",
      "type": "function"
    },
    {
      "inputs": [],
      "name": "exchangeLP",
      "outputs": [],
      "stateMutability": "nonpayable",
      "type": "function"
    },
    {
      "inputs": [
        {
          "internalType": "address",
          "name": "_account",
          "type": "address"
        }
      ],
      "name": "excludeFromFee",
      "outputs": [],
      "stateMutability": "nonpayable",
      "type": "function"
    },
    {
      "inputs": [
        {
          "internalType": "address",
          "name": "_account",
          "type": "address"
        }
      ],
      "name": "excludeFromReward",
      "outputs": [],
      "stateMutability": "nonpayable",
      "type": "function"
    },
    {
      "inputs": [],
      "name": "getUnlockTime",
      "outputs": [
        {
          "internalType": "uint256",
          "name": "",
          "type": "uint256"
        }
      ],
      "stateMutability": "view",
      "type": "function"
    },
    {
      "inputs": [
        {
          "internalType": "address",
          "name": "_account",
          "type": "address"
        }
      ],
      "name": "includeInFee",
      "outputs": [],
      "stateMutability": "nonpayable",
      "type": "function"
    },
    {
      "inputs": [
        {
          "internalType": "address",
          "name": "_account",
          "type": "address"
        }
      ],
      "name": "includeInReward",
      "outputs": [],
      "stateMutability": "nonpayable",
      "type": "function"
    },
    {
      "inputs": [],
      "name": "interval",
      "outputs": [
        {
          "internalType": "uint256",
          "name": "",
          "type": "uint256"
        }
      ],
      "stateMutability": "view",
      "type": "function"
    },
    {
      "inputs": [],
      "name": "lastTimestamp",
      "outputs": [
        {
          "internalType": "uint256",
          "name": "",
          "type": "uint256"
        }
      ],
      "stateMutability": "view",
      "type": "function"
    },
    {
      "inputs": [
        {
          "internalType": "uint256",
          "name": "time",
          "type": "uint256"
        }
      ],
      "name": "lock",
      "outputs": [],
      "stateMutability": "nonpayable",
      "type": "function"
    },
    {
      "inputs": [
        {
          "internalType": "uint256",
          "name": "_time",
          "type": "uint256"
        }
      ],
      "name": "lockBabyDoge",
      "outputs": [],
      "stateMutability": "nonpayable",
      "type": "function"
    },
    {
      "inputs": [],
      "name": "lpTokenAddress",
      "outputs": [
        {
          "internalType": "address",
          "name": "",
          "type": "address"
        }
      ],
      "stateMutability": "view",
      "type": "function"
    },
    {
      "inputs": [],
      "name": "owner",
      "outputs": [
        {
          "internalType": "address",
          "name": "",
          "type": "address"
        }
      ],
      "stateMutability": "view",
      "type": "function"
    },
    {
      "inputs": [
        {
          "internalType": "bytes",
          "name": "",
          "type": "bytes"
        }
      ],
      "name": "performUpkeep",
      "outputs": [],
      "stateMutability": "nonpayable",
      "type": "function"
    },
    {
      "inputs": [],
      "name": "registryAddress",
      "outputs": [
        {
          "internalType": "address",
          "name": "",
          "type": "address"
        }
      ],
      "stateMutability": "view",
      "type": "function"
    },
    {
      "inputs": [],
      "name": "renounceOwnership",
      "outputs": [],
      "stateMutability": "nonpayable",
      "type": "function"
    },
    {
      "inputs": [
        {
          "internalType": "address",
          "name": "_babyDogeAddress",
          "type": "address"
        }
      ],
      "name": "setBabyDogeAddress",
      "outputs": [],
      "stateMutability": "nonpayable",
      "type": "function"
    },
    {
      "inputs": [
        {
          "internalType": "uint256",
          "name": "_communityPercent",
          "type": "uint256"
        }
      ],
      "name": "setCommunityPercent",
      "outputs": [],
      "stateMutability": "nonpayable",
      "type": "function"
    },
    {
      "inputs": [
        {
          "internalType": "address",
          "name": "_communityWallet",
          "type": "address"
        }
      ],
      "name": "setCommunityWallet",
      "outputs": [],
      "stateMutability": "nonpayable",
      "type": "function"
    },
    {
      "inputs": [],
      "name": "setCountDown",
      "outputs": [],
      "stateMutability": "nonpayable",
      "type": "function"
    },
    {
      "inputs": [
        {
          "internalType": "uint256",
          "name": "_interval",
          "type": "uint256"
        }
      ],
      "name": "setInterval",
      "outputs": [],
      "stateMutability": "nonpayable",
      "type": "function"
    },
    {
      "inputs": [
        {
          "internalType": "uint256",
          "name": "_liquidityFee",
          "type": "uint256"
        }
      ],
      "name": "setLiquidityFeePercent",
      "outputs": [],
      "stateMutability": "nonpayable",
      "type": "function"
    },
    {
      "inputs": [
        {
          "internalType": "address",
          "name": "_lpTokenAddress",
          "type": "address"
        }
      ],
      "name": "setLpTokenAddress",
      "outputs": [],
      "stateMutability": "nonpayable",
      "type": "function"
    },
    {
      "inputs": [
        {
          "internalType": "uint256",
          "name": "_maxTxPercent",
          "type": "uint256"
        }
      ],
      "name": "setMaxTxPercent",
      "outputs": [],
      "stateMutability": "nonpayable",
      "type": "function"
    },
    {
      "inputs": [
        {
          "internalType": "uint256",
          "name": "_swapNumber",
          "type": "uint256"
        }
      ],
      "name": "setNumTokensSellToAddToLiquidity",
      "outputs": [],
      "stateMutability": "nonpayable",
      "type": "function"
    },
    {
      "inputs": [
        {
          "internalType": "address",
          "name": "_router",
          "type": "address"
        }
      ],
      "name": "setRouter",
      "outputs": [],
      "stateMutability": "nonpayable",
      "type": "function"
    },
    {
      "inputs": [
        {
          "internalType": "bool",
          "name": "_enabled",
          "type": "bool"
        }
      ],
      "name": "setSwapAndLiquifyEnabled",
      "outputs": [],
      "stateMutability": "nonpayable",
      "type": "function"
    },
    {
      "inputs": [
        {
          "internalType": "uint256",
          "name": "_taxFee",
          "type": "uint256"
        }
      ],
      "name": "setTaxFeePercent",
      "outputs": [],
      "stateMutability": "nonpayable",
      "type": "function"
    },
    {
      "inputs": [],
      "name": "teamAddress",
      "outputs": [
        {
          "internalType": "address",
          "name": "",
          "type": "address"
        }
      ],
      "stateMutability": "view",
      "type": "function"
    },
    {
      "inputs": [
        {
          "internalType": "address",
          "name": "_newOwner",
          "type": "address"
        }
      ],
      "name": "transferBabyDogeOwnership",
      "outputs": [],
      "stateMutability": "nonpayable",
      "type": "function"
    },
    {
      "inputs": [
        {
          "internalType": "address",
          "name": "newOwner",
          "type": "address"
        }
      ],
      "name": "transferOwnership",
      "outputs": [],
      "stateMutability": "nonpayable",
      "type": "function"
    },
    {
      "inputs": [],
      "name": "unlock",
      "outputs": [],
      "stateMutability": "nonpayable",
      "type": "function"
    },
    {
      "inputs": [
        {
          "internalType": "address",
          "name": "",
          "type": "address"
        }
      ],
      "name": "whiteListed",
      "outputs": [
        {
          "internalType": "bool",
          "name": "",
          "type": "bool"
        }
      ],
      "stateMutability": "view",
      "type": "function"
    },
    {
      "stateMutability": "payable",
      "type": "receive"
    }
  ],
  "bytecode": "0x60e0604052600480546001600160a01b03199081167310ed43c718714eb63d5aa57b78b54704e256024e179091556228206f6005557fd0a1e359811322d97991e03f863a0c30c2cf029c00000000000000000000000060c052600780548216737b3ec232b08bd7b4b3305be0c044d907b2df960b17905560088054821673c748673057861a797275cd8a068abb95a902e8de1790556009805490911673c736ca3d9b1e90af4230bd8f9626528b3d4e0ee01790556107d0600b55348015620000c657600080fd5b506040516200228538038062002285833981016040819052620000e991620001b7565b606097881b6001600160601b03199081166080529690971b90951660a052600a80546001600160a01b03199081166001600160a01b03938416179091556009805482169583169590951790945560088054851693821693909317928390556004805485169282169290921790915560078054841694821694909417909355600d80549184169183169190911790556000805433908316179055600c805490911691909216179055426006556200025e565b80516001600160a01b0381168114620001b257600080fd5b919050565b600080600080600080600080610100898b031215620001d4578384fd5b620001df896200019a565b9750620001ef60208a016200019a565b9650620001ff60408a016200019a565b95506200020f60608a016200019a565b94506200021f60808a016200019a565b93506200022f60a08a016200019a565b92506200023f60c08a016200019a565b91506200024f60e08a016200019a565b90509295985092959890939650565b60805160601c60a05160601c60c05160601c611fd2620002b360003960008181610f150152818161183b01526118f801526000818161136b0152611a0c01526000818161116a0152611a970152611fd26000f3fe60806040526004361061026b5760003560e01c8063947a36fb11610144578063dc8ab6b8116100b6578063ed9aab511161007a578063ed9aab511461069f578063eda0228f146106b4578063f0f165af146106c9578063f2fde38b146106e9578063f5ae497a14610709578063fa0fca841461071e57610272565b8063dc8ab6b814610615578063dd46706414610635578063e3cd9d6914610655578063e52c37751461066a578063ea2f0b371461067f57610272565b8063c0d7865511610108578063c0d786551461056b578063c49b9a801461058b578063c7574839146105ab578063c7de6122146105c0578063cbd6149a146105d5578063d543dbeb146105f557610272565b8063947a36fb146105025780639654fc3814610517578063a69df4b51461052c578063a7caecc714610541578063b2bdfa7b1461055657610272565b806352390c02116101dd57806378417398116101a1578063784173981461046e578063844284d71461048357806385d6bb81146104985780638da5cb5b146104b85780638dd95002146104cd5780638ee88c53146104e257610272565b806352390c02146103d6578063602bc62b146103f657806365651d781461040b5780636e04ff0d1461042b578063715018a61461045957610272565b80631c75f0851161022f5780631c75f0851461031457806322a90082146103365780633685d41914610356578063437823ec146103765780634585e33b14610396578063477d9d62146103b657610272565b80630384d2a314610274578063061c82d0146102945780630c835721146102b457806319d8ac61146102c95780631af03203146102f457610272565b3661027257005b005b34801561028057600080fd5b5061027261028f366004611b96565b61074b565b3480156102a057600080fd5b506102726102af366004611b96565b6107ee565b3480156102c057600080fd5b50610272610852565b3480156102d557600080fd5b506102de610908565b6040516102eb9190611ede565b60405180910390f35b34801561030057600080fd5b5061027261030f366004611ac3565b61090e565b34801561032057600080fd5b50610329610a4a565b6040516102eb9190611bec565b34801561034257600080fd5b50610272610351366004611b96565b610a59565b34801561036257600080fd5b50610272610371366004611ac3565b610a93565b34801561038257600080fd5b50610272610391366004611ac3565b610af8565b3480156103a257600080fd5b506102726103b1366004611b29565b610b5d565b3480156103c257600080fd5b506102726103d1366004611ac3565b610ba2565b3480156103e257600080fd5b506102726103f1366004611ac3565b610c1a565b34801561040257600080fd5b506102de610c7f565b34801561041757600080fd5b50610272610426366004611ac3565b610c85565b34801561043757600080fd5b5061044b610446366004611b29565b610cdc565b6040516102eb929190611c64565b34801561046557600080fd5b50610272610cfb565b34801561047a57600080fd5b50610272610d68565b34801561048f57600080fd5b506102de610ea7565b3480156104a457600080fd5b506102726104b3366004611ac3565b610ead565b3480156104c457600080fd5b50610329610f04565b3480156104d957600080fd5b50610329610f13565b3480156104ee57600080fd5b506102726104fd366004611b96565b610f37565b34801561050e57600080fd5b506102de610f9c565b34801561052357600080fd5b50610329610fa2565b34801561053857600080fd5b50610272610fb1565b34801561054d57600080fd5b5061027261104b565b34801561056257600080fd5b5061032961108e565b34801561057757600080fd5b50610272610586366004611ac3565b61109d565b34801561059757600080fd5b506102726105a6366004611af1565b6110f4565b3480156105b757600080fd5b50610329611159565b3480156105cc57600080fd5b50610329611168565b3480156105e157600080fd5b506102726105f0366004611ac3565b61118c565b34801561060157600080fd5b50610272610610366004611b96565b6111e3565b34801561062157600080fd5b50610272610630366004611b96565b611248565b34801561064157600080fd5b50610272610650366004611b96565b6112a4565b34801561066157600080fd5b50610272611334565b34801561067657600080fd5b50610329611369565b34801561068b57600080fd5b5061027261069a366004611ac3565b61138d565b3480156106ab57600080fd5b506103296113f2565b3480156106c057600080fd5b50610329611401565b3480156106d557600080fd5b506102726106e4366004611b96565b611410565b3480156106f557600080fd5b50610272610704366004611ac3565b611475565b34801561071557600080fd5b50610329611519565b34801561072a57600080fd5b5061073e610739366004611ac3565b611528565b6040516102eb9190611c59565b61075361153d565b6000546001600160a01b039081169116146107895760405162461bcd60e51b815260040161078090611e2f565b60405180910390fd5b600d546040516337519c1960e21b81526001600160a01b039091169063dd467064906107b9908490600401611ede565b600060405180830381600087803b1580156107d357600080fd5b505af11580156107e7573d6000803e3d6000fd5b5050505050565b6107f661153d565b6000546001600160a01b039081169116146108235760405162461bcd60e51b815260040161078090611e2f565b600d546040516261c82d60e41b81526001600160a01b039091169063061c82d0906107b9908490600401611ede565b61085a61153d565b6000546001600160a01b039081169116146108875760405162461bcd60e51b815260040161078090611e2f565b600d60009054906101000a90046001600160a01b03166001600160a01b03166348c54b9d6040518163ffffffff1660e01b8152600401600060405180830381600087803b1580156108d757600080fd5b505af11580156108eb573d6000803e3d6000fd5b505060005461090692506001600160a01b0316905047611541565b565b60065481565b61091661153d565b6000546001600160a01b039081169116146109435760405162461bcd60e51b815260040161078090611e2f565b6040516370a0823160e01b81526000906001600160a01b038316906370a0823190610972903090600401611bec565b60206040518083038186803b15801561098a57600080fd5b505afa15801561099e573d6000803e3d6000fd5b505050506040513d601f19601f820116820180604052508101906109c29190611bae565b60405163a9059cbb60e01b81529091506001600160a01b0383169063a9059cbb906109f39033908590600401611c40565b602060405180830381600087803b158015610a0d57600080fd5b505af1158015610a21573d6000803e3d6000fd5b505050506040513d601f19601f82011682018060405250810190610a459190611b0d565b505050565b600c546001600160a01b031681565b610a6161153d565b6000546001600160a01b03908116911614610a8e5760405162461bcd60e51b815260040161078090611e2f565b600555565b610a9b61153d565b6000546001600160a01b03908116911614610ac85760405162461bcd60e51b815260040161078090611e2f565b600d54604051633685d41960e01b81526001600160a01b0390911690633685d419906107b9908490600401611bec565b610b0061153d565b6000546001600160a01b03908116911614610b2d5760405162461bcd60e51b815260040161078090611e2f565b600d546040516310de08fb60e21b81526001600160a01b039091169063437823ec906107b9908490600401611bec565b610b6561153d565b6007546001600160a01b03908116911614610b925760405162461bcd60e51b815260040161078090611cc1565b610b9a6115dd565b505042600655565b610baa61153d565b6000546001600160a01b03908116911614610bd75760405162461bcd60e51b815260040161078090611e2f565b6001600160a01b038116610bea57600080fd5b600d5460405163f2fde38b60e01b81526001600160a01b039091169063f2fde38b906107b9908490600401611bec565b610c2261153d565b6000546001600160a01b03908116911614610c4f5760405162461bcd60e51b815260040161078090611e2f565b600d5460405163291c860160e11b81526001600160a01b03909116906352390c02906107b9908490600401611bec565b60025490565b610c8d61153d565b6000546001600160a01b03908116911614610cba5760405162461bcd60e51b815260040161078090611e2f565b600980546001600160a01b0319166001600160a01b0392909216919091179055565b6000606060055460065442610cf19190611f3e565b1191509250929050565b610d0361153d565b6000546001600160a01b03908116911614610d305760405162461bcd60e51b815260040161078090611e2f565b600080546040516001600160a01b0390911690600080516020611f7d833981519152908390a3600080546001600160a01b0319169055565b610d7061153d565b6000546001600160a01b03908116911614610d9d5760405162461bcd60e51b815260040161078090611e2f565b6009546040516370a0823160e01b81526000916001600160a01b0316906370a0823190610dce903090600401611bec565b60206040518083038186803b158015610de657600080fd5b505afa158015610dfa573d6000803e3d6000fd5b505050506040513d601f19601f82011682018060405250810190610e1e9190611bae565b60095460405163a9059cbb60e01b81529192506001600160a01b03169063a9059cbb90610e519033908590600401611c40565b602060405180830381600087803b158015610e6b57600080fd5b505af1158015610e7f573d6000803e3d6000fd5b505050506040513d601f19601f82011682018060405250810190610ea39190611b0d565b5050565b600b5481565b610eb561153d565b6000546001600160a01b03908116911614610ee25760405162461bcd60e51b815260040161078090611e2f565b600a80546001600160a01b0319166001600160a01b0392909216919091179055565b6000546001600160a01b031690565b7f000000000000000000000000000000000000000000000000000000000000000081565b610f3f61153d565b6000546001600160a01b03908116911614610f6c5760405162461bcd60e51b815260040161078090611e2f565b600d54604051638ee88c5360e01b81526001600160a01b0390911690638ee88c53906107b9908490600401611ede565b60055481565b6008546001600160a01b031681565b6001546001600160a01b03163314610fdb5760405162461bcd60e51b815260040161078090611e9b565b6002544211610ffc5760405162461bcd60e51b815260040161078090611e64565b600154600080546040516001600160a01b039384169390911691600080516020611f7d83398151915291a3600154600080546001600160a01b0319166001600160a01b03909216919091179055565b61105361153d565b6000546001600160a01b039081169116146110805760405162461bcd60e51b815260040161078090611e2f565b6110886115dd565b42600655565b6000546001600160a01b031681565b6110a561153d565b6000546001600160a01b039081169116146110d25760405162461bcd60e51b815260040161078090611e2f565b600480546001600160a01b0319166001600160a01b0392909216919091179055565b6110fc61153d565b6000546001600160a01b039081169116146111295760405162461bcd60e51b815260040161078090611e2f565b600d54604051630189373560e71b81526001600160a01b039091169063c49b9a80906107b9908490600401611c59565b600a546001600160a01b031681565b7f000000000000000000000000000000000000000000000000000000000000000081565b61119461153d565b6000546001600160a01b039081169116146111c15760405162461bcd60e51b815260040161078090611e2f565b600880546001600160a01b0319166001600160a01b0392909216919091179055565b6111eb61153d565b6000546001600160a01b039081169116146112185760405162461bcd60e51b815260040161078090611e2f565b600d5460405163d543dbeb60e01b81526001600160a01b039091169063d543dbeb906107b9908490600401611ede565b61125061153d565b6000546001600160a01b0390811691161461127d5760405162461bcd60e51b815260040161078090611e2f565b6107d081111561129f5760405162461bcd60e51b815260040161078090611de8565b600b55565b6112ac61153d565b6000546001600160a01b039081169116146112d95760405162461bcd60e51b815260040161078090611e2f565b60008054600180546001600160a01b03199081166001600160a01b038416179091551690556113088142611ee7565b600255600080546040516001600160a01b0390911690600080516020611f7d833981519152908390a350565b61133c61153d565b6000546001600160a01b039081169116146110885760405162461bcd60e51b815260040161078090611e2f565b7f000000000000000000000000000000000000000000000000000000000000000081565b61139561153d565b6000546001600160a01b039081169116146113c25760405162461bcd60e51b815260040161078090611e2f565b600d5460405163ea2f0b3760e01b81526001600160a01b039091169063ea2f0b37906107b9908490600401611bec565b6007546001600160a01b031681565b6004546001600160a01b031681565b61141861153d565b6000546001600160a01b039081169116146114455760405162461bcd60e51b815260040161078090611e2f565b600d5460405163f0f165af60e01b81526001600160a01b039091169063f0f165af906107b9908490600401611ede565b61147d61153d565b6000546001600160a01b039081169116146114aa5760405162461bcd60e51b815260040161078090611e2f565b6001600160a01b0381166114d05760405162461bcd60e51b815260040161078090611d0e565b600080546040516001600160a01b0380851693921691600080516020611f7d83398151915291a3600080546001600160a01b0319166001600160a01b0392909216919091179055565b6009546001600160a01b031681565b60036020526000908152604090205460ff1681565b3390565b804710156115615760405162461bcd60e51b815260040161078090611db1565b6000826001600160a01b03168260405161157a90611be9565b60006040518083038185875af1925050503d80600081146115b7576040519150601f19603f3d011682016040523d82523d6000602084013e6115bc565b606091505b5050905080610a455760405162461bcd60e51b815260040161078090611d54565b600b541561171157600b546009546040516370a0823160e01b815260009291612710916001600160a01b03909116906370a0823190611620903090600401611bec565b60206040518083038186803b15801561163857600080fd5b505afa15801561164c573d6000803e3d6000fd5b505050506040513d601f19601f820116820180604052508101906116709190611bae565b61167a9190611eff565b6116849190611f1f565b600954600a5460405163a9059cbb60e01b81529293506001600160a01b039182169263a9059cbb926116bc9216908590600401611c40565b602060405180830381600087803b1580156116d657600080fd5b505af11580156116ea573d6000803e3d6000fd5b505050506040513d601f19601f8201168201806040525081019061170e9190611b0d565b50505b6009546040516370a0823160e01b81526000916001600160a01b0316906370a0823190611742903090600401611bec565b60206040518083038186803b15801561175a57600080fd5b505afa15801561176e573d6000803e3d6000fd5b505050506040513d601f19601f820116820180604052508101906117929190611bae565b6009546004805460405163095ea7b360e01b81529394506001600160a01b039283169363095ea7b3936117ca93921691869101611c40565b602060405180830381600087803b1580156117e457600080fd5b505af11580156117f8573d6000803e3d6000fd5b505050506040513d601f19601f8201168201806040525081019061181c9190611b0d565b506004546008546000916001600160a01b039081169163baa2abde91167f0000000000000000000000000000000000000000000000000000000000000000856001803061186b426104b0611ee7565b6040518863ffffffff1660e01b815260040161188d9796959493929190611c00565b6040805180830381600087803b1580156118a657600080fd5b505af11580156118ba573d6000803e3d6000fd5b505050506040513d601f19601f820116820180604052508101906118de9190611bc6565b604051632e1a7d4d60e01b81529092506001600160a01b037f0000000000000000000000000000000000000000000000000000000000000000169150632e1a7d4d9061192e908490600401611ede565b600060405180830381600087803b15801561194857600080fd5b505af115801561195c573d6000803e3d6000fd5b50506008546040516370a0823160e01b8152600093506001600160a01b0390911691506370a0823190611993903090600401611bec565b60206040518083038186803b1580156119ab57600080fd5b505afa1580156119bf573d6000803e3d6000fd5b505050506040513d601f19601f820116820180604052508101906119e39190611bae565b60085460405163a9059cbb60e01b81529192506001600160a01b03169063a9059cbb90611a36907f0000000000000000000000000000000000000000000000000000000000000000908590600401611c40565b602060405180830381600087803b158015611a5057600080fd5b505af1158015611a64573d6000803e3d6000fd5b505050506040513d601f19601f82011682018060405250810190611a889190611b0d565b5047611abd6001600160a01b037f00000000000000000000000000000000000000000000000000000000000000001682611541565b50505050565b600060208284031215611ad4578081fd5b81356001600160a01b0381168114611aea578182fd5b9392505050565b600060208284031215611b02578081fd5b8135611aea81611f6b565b600060208284031215611b1e578081fd5b8151611aea81611f6b565b60008060208385031215611b3b578081fd5b823567ffffffffffffffff80821115611b52578283fd5b818501915085601f830112611b65578283fd5b813581811115611b73578384fd5b866020828501011115611b84578384fd5b60209290920196919550909350505050565b600060208284031215611ba7578081fd5b5035919050565b600060208284031215611bbf578081fd5b5051919050565b60008060408385031215611bd8578182fd5b505080516020909101519092909150565b90565b6001600160a01b0391909116815260200190565b6001600160a01b039788168152958716602087015260408601949094526060850192909252608084015290921660a082015260c081019190915260e00190565b6001600160a01b03929092168252602082015260400190565b901515815260200190565b6000831515825260206040818401528351806040850152825b81811015611c9957858101830151858201606001528201611c7d565b81811115611caa5783606083870101525b50601f01601f191692909201606001949350505050565b6020808252602d908201527f4f6e6c7920436861696e6c696e6b204b6565706572732063616e2063616c6c2060408201526c3a3434b990333ab731ba34b7b760991b606082015260800190565b60208082526026908201527f4f776e61626c653a206e6577206f776e657220697320746865207a65726f206160408201526564647265737360d01b606082015260800190565b6020808252603a908201527f416464726573733a20756e61626c6520746f2073656e642076616c75652c207260408201527f6563697069656e74206d61792068617665207265766572746564000000000000606082015260800190565b6020808252601d908201527f416464726573733a20696e73756666696369656e742062616c616e6365000000604082015260600190565b60208082526027908201527f436f6d6d756e6974792050657263656e742063616e74206265206d6f7265207460408201526668656e2032302560c81b606082015260800190565b6020808252818101527f4f776e61626c653a2063616c6c6572206973206e6f7420746865206f776e6572604082015260600190565b6020808252601f908201527f436f6e7472616374206973206c6f636b656420756e74696c2037206461797300604082015260600190565b60208082526023908201527f596f7520646f6e27742068617665207065726d697373696f6e20746f20756e6c6040820152626f636b60e81b606082015260800190565b90815260200190565b60008219821115611efa57611efa611f55565b500190565b600082611f1a57634e487b7160e01b81526012600452602481fd5b500490565b6000816000190483118215151615611f3957611f39611f55565b500290565b600082821015611f5057611f50611f55565b500390565b634e487b7160e01b600052601160045260246000fd5b8015158114611f7957600080fd5b5056fe8be0079c531659141344cd1fd0a4f28419497f9722a3daafe3b4186f6b6457e0a2646970667358221220459b918fc5f43fd63980d4f3ed06c2407905c4d3cdae6cc4a6d5c6b1adbcc67064736f6c63430008000033",
  "linkReferences": {},
  "deployedLinkReferences": {}
}