{
  "_format": "hh-sol-artifact-1",
  "contractName": "BabyDogeManager",
  "sourceName": "contracts/RenouncedContract.sol",
  "abi": [
    {
      "inputs": [
        {
          "internalType": "address",
          "name": "_bnbReciever",
          "type": "address"
        },
        {
          "internalType": "address",
          "name": "_babyDogeReciever",
          "type": "address"
        },
        {
          "internalType": "address",
          "name": "_lpTokenAddress",
          "type": "address"
        },
        {
          "internalType": "address",
          "name": "_babyDogeAddress",
          "type": "address"
        },
        {
          "internalType": "address",
          "name": "_router",
          "type": "address"
        },
        {
          "internalType": "address",
          "name": "_communityAddress",
          "type": "address"
        },
        {
          "internalType": "address",
          "name": "_registryAddress",
          "type": "address"
        },
        {
          "internalType": "address",
          "name": "_teamAddress",
          "type": "address"
        }
      ],
      "stateMutability": "nonpayable",
      "type": "constructor"
    },
    {
      "anonymous": false,
      "inputs": [
        {
          "indexed": false,
          "internalType": "uint256",
          "name": "amountClaimed",
          "type": "uint256"
        }
      ],
      "name": "ClaimTokensInBoth",
      "type": "event"
    },
    {
      "anonymous": false,
      "inputs": [
        {
          "indexed": false,
          "internalType": "uint256",
          "name": "amount",
          "type": "uint256"
        }
      ],
      "name": "EmergencyWithdrawLP",
      "type": "event"
    },
    {
      "anonymous": false,
      "inputs": [
        {
          "indexed": false,
          "internalType": "uint256",
          "name": "tokensToSell",
          "type": "uint256"
        }
      ],
      "name": "EmergencyWithdrawTokens",
      "type": "event"
    },
    {
      "anonymous": false,
      "inputs": [
        {
          "indexed": true,
          "internalType": "address",
          "name": "previousOwner",
          "type": "address"
        },
        {
          "indexed": true,
          "internalType": "address",
          "name": "newOwner",
          "type": "address"
        }
      ],
      "name": "OwnershipTransferred",
      "type": "event"
    },
    {
      "anonymous": false,
      "inputs": [
        {
          "indexed": true,
          "internalType": "address",
          "name": "babyDogeAddress",
          "type": "address"
        }
      ],
      "name": "SetBabyDogeAddress",
      "type": "event"
    },
    {
      "anonymous": false,
      "inputs": [
        {
          "indexed": false,
          "internalType": "uint256",
          "name": "communityPercent",
          "type": "uint256"
        }
      ],
      "name": "SetCommunityPercent",
      "type": "event"
    },
    {
      "anonymous": false,
      "inputs": [
        {
          "indexed": true,
          "internalType": "address",
          "name": "communityWallet",
          "type": "address"
        }
      ],
      "name": "SetCommunityWallet",
      "type": "event"
    },
    {
      "anonymous": false,
      "inputs": [
        {
          "indexed": true,
          "internalType": "address",
          "name": "lpTokenAddress",
          "type": "address"
        }
      ],
      "name": "SetLpTokenAddress",
      "type": "event"
    },
    {
      "anonymous": false,
      "inputs": [
        {
          "indexed": true,
          "internalType": "address",
          "name": "teamAddress",
          "type": "address"
        }
      ],
      "name": "SetTeamAddress",
      "type": "event"
    },
    {
      "stateMutability": "payable",
      "type": "fallback"
    },
    {
      "inputs": [],
      "name": "PancakeRouter",
      "outputs": [
        {
          "internalType": "address",
          "name": "",
          "type": "address"
        }
      ],
      "stateMutability": "view",
      "type": "function"
    },
    {
      "inputs": [],
      "name": "WBNB",
      "outputs": [
        {
          "internalType": "address",
          "name": "",
          "type": "address"
        }
      ],
      "stateMutability": "view",
      "type": "function"
    },
    {
      "inputs": [],
      "name": "_owner",
      "outputs": [
        {
          "internalType": "address",
          "name": "",
          "type": "address"
        }
      ],
      "stateMutability": "view",
      "type": "function"
    },
    {
      "inputs": [],
      "name": "babyDogeAddress",
      "outputs": [
        {
          "internalType": "address",
          "name": "",
          "type": "address"
        }
      ],
      "stateMutability": "view",
      "type": "function"
    },
    {
      "inputs": [],
      "name": "babyDogeReciever",
      "outputs": [
        {
          "internalType": "address",
          "name": "",
          "type": "address"
        }
      ],
      "stateMutability": "view",
      "type": "function"
    },
    {
      "inputs": [],
      "name": "bnbReciever",
      "outputs": [
        {
          "internalType": "address",
          "name": "",
          "type": "address"
        }
      ],
      "stateMutability": "view",
      "type": "function"
    },
    {
      "inputs": [
        {
          "internalType": "bytes",
          "name": "",
          "type": "bytes"
        }
      ],
      "name": "checkUpkeep",
      "outputs": [
        {
          "internalType": "bool",
          "name": "upkeepNeeded",
          "type": "bool"
        },
        {
          "internalType": "bytes",
          "name": "",
          "type": "bytes"
        }
      ],
      "stateMutability": "nonpayable",
      "type": "function"
    },
    {
      "inputs": [],
      "name": "claimTokensInBoth",
      "outputs": [],
      "stateMutability": "nonpayable",
      "type": "function"
    },
    {
      "inputs": [],
      "name": "communityPercent",
      "outputs": [
        {
          "internalType": "uint256",
          "name": "",
          "type": "uint256"
        }
      ],
      "stateMutability": "view",
      "type": "function"
    },
    {
      "inputs": [],
      "name": "communityWallet",
      "outputs": [
        {
          "internalType": "address",
          "name": "",
          "type": "address"
        }
      ],
      "stateMutability": "view",
      "type": "function"
    },
    {
      "inputs": [],
      "name": "emergencyWithdrawLP",
      "outputs": [],
      "stateMutability": "nonpayable",
      "type": "function"
    },
    {
      "inputs": [
        {
          "internalType": "address",
          "name": "_tokenAddress",
          "type": "address"
        }
      ],
      "name": "emergencyWithdrawToken",
      "outputs": [],
      "stateMutability": "nonpayable",
      "type": "function"
    },
    {
      "inputs": [],
      "name": "exchangeLP",
      "outputs": [],
      "stateMutability": "nonpayable",
      "type": "function"
    },
    {
      "inputs": [
        {
          "internalType": "address",
          "name": "_account",
          "type": "address"
        }
      ],
      "name": "excludeFromFee",
      "outputs": [],
      "stateMutability": "nonpayable",
      "type": "function"
    },
    {
      "inputs": [
        {
          "internalType": "address",
          "name": "_account",
          "type": "address"
        }
      ],
      "name": "excludeFromReward",
      "outputs": [],
      "stateMutability": "nonpayable",
      "type": "function"
    },
    {
      "inputs": [],
      "name": "getUnlockTime",
      "outputs": [
        {
          "internalType": "uint256",
          "name": "",
          "type": "uint256"
        }
      ],
      "stateMutability": "view",
      "type": "function"
    },
    {
      "inputs": [
        {
          "internalType": "address",
          "name": "_account",
          "type": "address"
        }
      ],
      "name": "includeInFee",
      "outputs": [],
      "stateMutability": "nonpayable",
      "type": "function"
    },
    {
      "inputs": [
        {
          "internalType": "address",
          "name": "_account",
          "type": "address"
        }
      ],
      "name": "includeInReward",
      "outputs": [],
      "stateMutability": "nonpayable",
      "type": "function"
    },
    {
      "inputs": [],
      "name": "interval",
      "outputs": [
        {
          "internalType": "uint256",
          "name": "",
          "type": "uint256"
        }
      ],
      "stateMutability": "view",
      "type": "function"
    },
    {
      "inputs": [],
      "name": "lastTimestamp",
      "outputs": [
        {
          "internalType": "uint256",
          "name": "",
          "type": "uint256"
        }
      ],
      "stateMutability": "view",
      "type": "function"
    },
    {
      "inputs": [
        {
          "internalType": "uint256",
          "name": "time",
          "type": "uint256"
        }
      ],
      "name": "lock",
      "outputs": [],
      "stateMutability": "nonpayable",
      "type": "function"
    },
    {
      "inputs": [
        {
          "internalType": "uint256",
          "name": "_time",
          "type": "uint256"
        }
      ],
      "name": "lockBabyDoge",
      "outputs": [],
      "stateMutability": "nonpayable",
      "type": "function"
    },
    {
      "inputs": [],
      "name": "lpTokenAddress",
      "outputs": [
        {
          "internalType": "address",
          "name": "",
          "type": "address"
        }
      ],
      "stateMutability": "view",
      "type": "function"
    },
    {
      "inputs": [],
      "name": "owner",
      "outputs": [
        {
          "internalType": "address",
          "name": "",
          "type": "address"
        }
      ],
      "stateMutability": "view",
      "type": "function"
    },
    {
      "inputs": [
        {
          "internalType": "bytes",
          "name": "",
          "type": "bytes"
        }
      ],
      "name": "performUpkeep",
      "outputs": [],
      "stateMutability": "nonpayable",
      "type": "function"
    },
    {
      "inputs": [],
      "name": "registryAddress",
      "outputs": [
        {
          "internalType": "address",
          "name": "",
          "type": "address"
        }
      ],
      "stateMutability": "view",
      "type": "function"
    },
    {
      "inputs": [],
      "name": "renounceOwnership",
      "outputs": [],
      "stateMutability": "nonpayable",
      "type": "function"
    },
    {
      "inputs": [
        {
          "internalType": "address",
          "name": "_babyDogeAddress",
          "type": "address"
        }
      ],
      "name": "setBabyDogeAddress",
      "outputs": [],
      "stateMutability": "nonpayable",
      "type": "function"
    },
    {
      "inputs": [
        {
          "internalType": "uint256",
          "name": "_communityPercent",
          "type": "uint256"
        }
      ],
      "name": "setCommunityPercent",
      "outputs": [],
      "stateMutability": "nonpayable",
      "type": "function"
    },
    {
      "inputs": [
        {
          "internalType": "address",
          "name": "_communityWallet",
          "type": "address"
        }
      ],
      "name": "setCommunityWallet",
      "outputs": [],
      "stateMutability": "nonpayable",
      "type": "function"
    },
    {
      "inputs": [],
      "name": "setCountDown",
      "outputs": [],
      "stateMutability": "nonpayable",
      "type": "function"
    },
    {
      "inputs": [
        {
          "internalType": "uint256",
          "name": "_interval",
          "type": "uint256"
        }
      ],
      "name": "setInterval",
      "outputs": [],
      "stateMutability": "nonpayable",
      "type": "function"
    },
    {
      "inputs": [
        {
          "internalType": "uint256",
          "name": "_liquidityFee",
          "type": "uint256"
        }
      ],
      "name": "setLiquidityFeePercent",
      "outputs": [],
      "stateMutability": "nonpayable",
      "type": "function"
    },
    {
      "inputs": [
        {
          "internalType": "address",
          "name": "_lpTokenAddress",
          "type": "address"
        }
      ],
      "name": "setLpTokenAddress",
      "outputs": [],
      "stateMutability": "nonpayable",
      "type": "function"
    },
    {
      "inputs": [
        {
          "internalType": "uint256",
          "name": "_maxTxPercent",
          "type": "uint256"
        }
      ],
      "name": "setMaxTxPercent",
      "outputs": [],
      "stateMutability": "nonpayable",
      "type": "function"
    },
    {
      "inputs": [
        {
          "internalType": "uint256",
          "name": "_swapNumber",
          "type": "uint256"
        }
      ],
      "name": "setNumTokensSellToAddToLiquidity",
      "outputs": [],
      "stateMutability": "nonpayable",
      "type": "function"
    },
    {
      "inputs": [
        {
          "internalType": "address",
          "name": "_router",
          "type": "address"
        }
      ],
      "name": "setRouter",
      "outputs": [],
      "stateMutability": "nonpayable",
      "type": "function"
    },
    {
      "inputs": [
        {
          "internalType": "bool",
          "name": "_enabled",
          "type": "bool"
        }
      ],
      "name": "setSwapAndLiquifyEnabled",
      "outputs": [],
      "stateMutability": "nonpayable",
      "type": "function"
    },
    {
      "inputs": [
        {
          "internalType": "uint256",
          "name": "_taxFee",
          "type": "uint256"
        }
      ],
      "name": "setTaxFeePercent",
      "outputs": [],
      "stateMutability": "nonpayable",
      "type": "function"
    },
    {
      "inputs": [
        {
          "internalType": "address",
          "name": "_teamAddress",
          "type": "address"
        }
      ],
      "name": "setTeamAddress",
      "outputs": [],
      "stateMutability": "nonpayable",
      "type": "function"
    },
    {
      "inputs": [],
      "name": "teamAddress",
      "outputs": [
        {
          "internalType": "address",
          "name": "",
          "type": "address"
        }
      ],
      "stateMutability": "view",
      "type": "function"
    },
    {
      "inputs": [
        {
          "internalType": "address",
          "name": "_account",
          "type": "address"
        }
      ],
      "name": "teamExcludeFromFee",
      "outputs": [],
      "stateMutability": "nonpayable",
      "type": "function"
    },
    {
      "inputs": [
        {
          "internalType": "address",
          "name": "_account",
          "type": "address"
        }
      ],
      "name": "teamExcludeFromReward",
      "outputs": [],
      "stateMutability": "nonpayable",
      "type": "function"
    },
    {
      "inputs": [
        {
          "internalType": "address",
          "name": "_account",
          "type": "address"
        }
      ],
      "name": "teamIncludeInFee",
      "outputs": [],
      "stateMutability": "nonpayable",
      "type": "function"
    },
    {
      "inputs": [
        {
          "internalType": "address",
          "name": "_account",
          "type": "address"
        }
      ],
      "name": "teamIncludeInReward",
      "outputs": [],
      "stateMutability": "nonpayable",
      "type": "function"
    },
    {
      "inputs": [
        {
          "internalType": "address",
          "name": "_newOwner",
          "type": "address"
        }
      ],
      "name": "transferBabyDogeOwnership",
      "outputs": [],
      "stateMutability": "nonpayable",
      "type": "function"
    },
    {
      "inputs": [
        {
          "internalType": "address",
          "name": "newOwner",
          "type": "address"
        }
      ],
      "name": "transferOwnership",
      "outputs": [],
      "stateMutability": "nonpayable",
      "type": "function"
    },
    {
      "inputs": [],
      "name": "unlock",
      "outputs": [],
      "stateMutability": "nonpayable",
      "type": "function"
    },
    {
      "stateMutability": "payable",
      "type": "receive"
    }
  ],
  "bytecode": "0x60e0604052600380546001600160a01b03199081167310ed43c718714eb63d5aa57b78b54704e256024e179091556228206f6004557fd0a1e359811322d97991e03f863a0c30c2cf029c00000000000000000000000060c052600680548216737b3ec232b08bd7b4b3305be0c044d907b2df960b17905560078054821673c748673057861a797275cd8a068abb95a902e8de1790556008805490911673c736ca3d9b1e90af4230bd8f9626528b3d4e0ee01790556107d0600a55348015620000c657600080fd5b506040516200260038038062002600833981016040819052620000e991620001b7565b606097881b6001600160601b03199081166080529690971b90951660a052600980546001600160a01b03199081166001600160a01b03938416179091556008805482169583169590951790945560078054851693821693909317928390556003805485169282169290921790915560068054841694821694909417909355600c80549184169183169190911790556000805433908316179055600b805490911691909216179055426005556200025e565b80516001600160a01b0381168114620001b257600080fd5b919050565b600080600080600080600080610100898b031215620001d4578384fd5b620001df896200019a565b9750620001ef60208a016200019a565b9650620001ff60408a016200019a565b95506200020f60608a016200019a565b94506200021f60808a016200019a565b93506200022f60a08a016200019a565b92506200023f60c08a016200019a565b91506200024f60e08a016200019a565b90509295985092959890939650565b60805160601c60a05160601c60c05160601c61234d620002b3600039600081816111f601528181611b690152611c260152600081816116a40152611d3a01526000818161144b0152611dc5015261234d6000f3fe6080604052600436106102965760003560e01c80638dd950021161015a578063d543dbeb116100c1578063ecb1e8441161007a578063ecb1e8441461074a578063ed9aab511461076a578063eda0228f1461077f578063f0f165af14610794578063f2fde38b146107b4578063f5ae497a146107d45761029d565b8063d543dbeb146106a0578063dc8ab6b8146106c0578063dd467064146106e0578063e3cd9d6914610700578063e52c377514610715578063ea2f0b371461072a5761029d565b8063b2bdfa7b11610113578063b2bdfa7b14610601578063c0d7865514610616578063c49b9a8014610636578063c757483914610656578063c7de61221461066b578063cbd6149a146106805761029d565b80638dd95002146105785780638ee88c531461058d578063947a36fb146105ad5780639654fc38146105c2578063a69df4b5146105d7578063a7caecc7146105ec5761029d565b8063477d9d62116101fe5780636e04ff0d116101b75780636e04ff0d146104d6578063715018a6146105045780637841739814610519578063844284d71461052e57806385d6bb81146105435780638da5cb5b146105635761029d565b8063477d9d621461042157806352390c021461044157806354bce25414610461578063602bc62b1461048157806365651d78146104965780636690864e146104b65761029d565b80631b30a804116102505780631b30a8041461035f5780631c75f0851461037f57806322a90082146103a15780633685d419146103c1578063437823ec146103e15780634585e33b146104015761029d565b8062ad22b71461029f5780630384d2a3146102bf578063061c82d0146102df5780630c835721146102ff57806319d8ac61146103145780631af032031461033f5761029d565b3661029d57005b005b3480156102ab57600080fd5b5061029d6102ba366004611df1565b6107e9565b3480156102cb57600080fd5b5061029d6102da366004611ec4565b61088c565b3480156102eb57600080fd5b5061029d6102fa366004611ec4565b6108f1565b34801561030b57600080fd5b5061029d610955565b34801561032057600080fd5b50610329610a42565b6040516103369190612259565b60405180910390f35b34801561034b57600080fd5b5061029d61035a366004611df1565b610a48565b34801561036b57600080fd5b5061029d61037a366004611df1565b610bbb565b34801561038b57600080fd5b50610394610c20565b6040516103369190611f1a565b3480156103ad57600080fd5b5061029d6103bc366004611ec4565b610c2f565b3480156103cd57600080fd5b5061029d6103dc366004611df1565b610c69565b3480156103ed57600080fd5b5061029d6103fc366004611df1565b610cce565b34801561040d57600080fd5b5061029d61041c366004611e57565b610d33565b34801561042d57600080fd5b5061029d61043c366004611df1565b610d78565b34801561044d57600080fd5b5061029d61045c366004611df1565b610df0565b34801561046d57600080fd5b5061029d61047c366004611df1565b610e25565b34801561048d57600080fd5b50610329610e5a565b3480156104a257600080fd5b5061029d6104b1366004611df1565b610e60565b3480156104c257600080fd5b5061029d6104d1366004611df1565b610edf565b3480156104e257600080fd5b506104f66104f1366004611e57565b610f5e565b604051610336929190611f92565b34801561051057600080fd5b5061029d610f7d565b34801561052557600080fd5b5061029d610fea565b34801561053a57600080fd5b50610329611160565b34801561054f57600080fd5b5061029d61055e366004611df1565b611166565b34801561056f57600080fd5b506103946111e5565b34801561058457600080fd5b506103946111f4565b34801561059957600080fd5b5061029d6105a8366004611ec4565b611218565b3480156105b957600080fd5b5061032961127d565b3480156105ce57600080fd5b50610394611283565b3480156105e357600080fd5b5061029d611292565b3480156105f857600080fd5b5061029d61132c565b34801561060d57600080fd5b5061039461136f565b34801561062257600080fd5b5061029d610631366004611df1565b61137e565b34801561064257600080fd5b5061029d610651366004611e1f565b6113d5565b34801561066257600080fd5b5061039461143a565b34801561067757600080fd5b50610394611449565b34801561068c57600080fd5b5061029d61069b366004611df1565b61146d565b3480156106ac57600080fd5b5061029d6106bb366004611ec4565b6114ec565b3480156106cc57600080fd5b5061029d6106db366004611ec4565b611551565b3480156106ec57600080fd5b5061029d6106fb366004611ec4565b6115dd565b34801561070c57600080fd5b5061029d61166d565b34801561072157600080fd5b506103946116a2565b34801561073657600080fd5b5061029d610745366004611df1565b6116c6565b34801561075657600080fd5b5061029d610765366004611df1565b6116fb565b34801561077657600080fd5b50610394611730565b34801561078b57600080fd5b5061039461173f565b3480156107a057600080fd5b5061029d6107af366004611ec4565b61174e565b3480156107c057600080fd5b5061029d6107cf366004611df1565b6117b3565b3480156107e057600080fd5b50610394611857565b6107f1611866565b600b546001600160a01b039081169116146108275760405162461bcd60e51b815260040161081e90612192565b60405180910390fd5b600c5460405163291c860160e11b81526001600160a01b03909116906352390c0290610857908490600401611f1a565b600060405180830381600087803b15801561087157600080fd5b505af1158015610885573d6000803e3d6000fd5b5050505050565b610894611866565b6000546001600160a01b039081169116146108c15760405162461bcd60e51b815260040161081e9061215d565b600c546040516337519c1960e21b81526001600160a01b039091169063dd46706490610857908490600401612259565b6108f9611866565b6000546001600160a01b039081169116146109265760405162461bcd60e51b815260040161081e9061215d565b600c546040516261c82d60e41b81526001600160a01b039091169063061c82d090610857908490600401612259565b61095d611866565b6000546001600160a01b0390811691161461098a5760405162461bcd60e51b815260040161081e9061215d565b600c60009054906101000a90046001600160a01b03166001600160a01b03166348c54b9d6040518163ffffffff1660e01b8152600401600060405180830381600087803b1580156109da57600080fd5b505af11580156109ee573d6000803e3d6000fd5b5050600054610a0992506001600160a01b031690504761186a565b7f15f4fd13f7a8c33bf3d1d36e77d6e7bb7e1606d1f5e5c9023d699b288057424147604051610a389190612259565b60405180910390a1565b60055481565b610a50611866565b6000546001600160a01b03908116911614610a7d5760405162461bcd60e51b815260040161081e9061215d565b6040516370a0823160e01b81526000906001600160a01b038316906370a0823190610aac903090600401611f1a565b60206040518083038186803b158015610ac457600080fd5b505afa158015610ad8573d6000803e3d6000fd5b505050506040513d601f19601f82011682018060405250810190610afc9190611edc565b60405163a9059cbb60e01b81529091506001600160a01b0383169063a9059cbb90610b2d9033908590600401611f6e565b602060405180830381600087803b158015610b4757600080fd5b505af1158015610b5b573d6000803e3d6000fd5b505050506040513d601f19601f82011682018060405250810190610b7f9190611e3b565b507fc61e10880eb14d0c525e7ac4be6b22039fccd9647730639f0f5203b31e451c2981604051610baf9190612259565b60405180910390a15050565b610bc3611866565b600b546001600160a01b03908116911614610bf05760405162461bcd60e51b815260040161081e90612192565b600c5460405163ea2f0b3760e01b81526001600160a01b039091169063ea2f0b3790610857908490600401611f1a565b600b546001600160a01b031681565b610c37611866565b6000546001600160a01b03908116911614610c645760405162461bcd60e51b815260040161081e9061215d565b600455565b610c71611866565b6000546001600160a01b03908116911614610c9e5760405162461bcd60e51b815260040161081e9061215d565b600c54604051633685d41960e01b81526001600160a01b0390911690633685d41990610857908490600401611f1a565b610cd6611866565b6000546001600160a01b03908116911614610d035760405162461bcd60e51b815260040161081e9061215d565b600c546040516310de08fb60e21b81526001600160a01b039091169063437823ec90610857908490600401611f1a565b610d3b611866565b6006546001600160a01b03908116911614610d685760405162461bcd60e51b815260040161081e90611fef565b610d7061190b565b505042600555565b610d80611866565b6000546001600160a01b03908116911614610dad5760405162461bcd60e51b815260040161081e9061215d565b6001600160a01b038116610dc057600080fd5b600c5460405163f2fde38b60e01b81526001600160a01b039091169063f2fde38b90610857908490600401611f1a565b610df8611866565b6000546001600160a01b039081169116146108275760405162461bcd60e51b815260040161081e9061215d565b610e2d611866565b600b546001600160a01b03908116911614610d035760405162461bcd60e51b815260040161081e90612192565b60025490565b610e68611866565b6000546001600160a01b03908116911614610e955760405162461bcd60e51b815260040161081e9061215d565b600880546001600160a01b0319166001600160a01b0383169081179091556040517ff1ffb1a55f8192d36f06f82be4dda72bcb4836c18f0e16cc19c6d781cce7375b90600090a250565b610ee7611866565b6000546001600160a01b03908116911614610f145760405162461bcd60e51b815260040161081e9061215d565b600b80546001600160a01b0319166001600160a01b0383169081179091556040517f6f7172587e2ee3573d0b3f6c2690ecc9a891b65835a094530cab8fe127725bd490600090a250565b6000606060045460055442610f7391906122b9565b1191509250929050565b610f85611866565b6000546001600160a01b03908116911614610fb25760405162461bcd60e51b815260040161081e9061215d565b600080546040516001600160a01b03909116906000805160206122f8833981519152908390a3600080546001600160a01b0319169055565b610ff2611866565b6000546001600160a01b0390811691161461101f5760405162461bcd60e51b815260040161081e9061215d565b6008546040516370a0823160e01b81526000916001600160a01b0316906370a0823190611050903090600401611f1a565b60206040518083038186803b15801561106857600080fd5b505afa15801561107c573d6000803e3d6000fd5b505050506040513d601f19601f820116820180604052508101906110a09190611edc565b60085460405163a9059cbb60e01b81529192506001600160a01b03169063a9059cbb906110d39033908590600401611f6e565b602060405180830381600087803b1580156110ed57600080fd5b505af1158015611101573d6000803e3d6000fd5b505050506040513d601f19601f820116820180604052508101906111259190611e3b565b507f318147e4dfb7f44a3757a5e41ee62e2b33e34af875909b30cfbeda5afb2c896a816040516111559190612259565b60405180910390a150565b600a5481565b61116e611866565b6000546001600160a01b0390811691161461119b5760405162461bcd60e51b815260040161081e9061215d565b600980546001600160a01b0319166001600160a01b0383169081179091556040517f46d11399b0e4a268da86e8592a33fc6896eb2244f1609819171eff3820fd6e6990600090a250565b6000546001600160a01b031690565b7f000000000000000000000000000000000000000000000000000000000000000081565b611220611866565b6000546001600160a01b0390811691161461124d5760405162461bcd60e51b815260040161081e9061215d565b600c54604051638ee88c5360e01b81526001600160a01b0390911690638ee88c5390610857908490600401612259565b60045481565b6007546001600160a01b031681565b6001546001600160a01b031633146112bc5760405162461bcd60e51b815260040161081e90612216565b60025442116112dd5760405162461bcd60e51b815260040161081e906121df565b600154600080546040516001600160a01b0393841693909116916000805160206122f883398151915291a3600154600080546001600160a01b0319166001600160a01b03909216919091179055565b611334611866565b6000546001600160a01b039081169116146113615760405162461bcd60e51b815260040161081e9061215d565b61136961190b565b42600555565b6000546001600160a01b031681565b611386611866565b6000546001600160a01b039081169116146113b35760405162461bcd60e51b815260040161081e9061215d565b600380546001600160a01b0319166001600160a01b0392909216919091179055565b6113dd611866565b6000546001600160a01b0390811691161461140a5760405162461bcd60e51b815260040161081e9061215d565b600c54604051630189373560e71b81526001600160a01b039091169063c49b9a8090610857908490600401611f87565b6009546001600160a01b031681565b7f000000000000000000000000000000000000000000000000000000000000000081565b611475611866565b6000546001600160a01b039081169116146114a25760405162461bcd60e51b815260040161081e9061215d565b600780546001600160a01b0319166001600160a01b0383169081179091556040517f5e4313a9f93626a90840c7e2d5ea32276b8aa4f5c58dfed2e8a5c0a2768ee7f590600090a250565b6114f4611866565b6000546001600160a01b039081169116146115215760405162461bcd60e51b815260040161081e9061215d565b600c5460405163d543dbeb60e01b81526001600160a01b039091169063d543dbeb90610857908490600401612259565b611559611866565b6000546001600160a01b039081169116146115865760405162461bcd60e51b815260040161081e9061215d565b6107d08111156115a85760405162461bcd60e51b815260040161081e90612116565b600a8190556040517f71f7f984737451610a644dc3b7ab772f87de12a03492c5224c6bd394dd61934f90611155908390612259565b6115e5611866565b6000546001600160a01b039081169116146116125760405162461bcd60e51b815260040161081e9061215d565b60008054600180546001600160a01b03199081166001600160a01b038416179091551690556116418142612262565b600255600080546040516001600160a01b03909116906000805160206122f8833981519152908390a350565b611675611866565b6000546001600160a01b039081169116146113695760405162461bcd60e51b815260040161081e9061215d565b7f000000000000000000000000000000000000000000000000000000000000000081565b6116ce611866565b6000546001600160a01b03908116911614610bf05760405162461bcd60e51b815260040161081e9061215d565b611703611866565b600b546001600160a01b03908116911614610c9e5760405162461bcd60e51b815260040161081e90612192565b6006546001600160a01b031681565b6003546001600160a01b031681565b611756611866565b6000546001600160a01b039081169116146117835760405162461bcd60e51b815260040161081e9061215d565b600c5460405163f0f165af60e01b81526001600160a01b039091169063f0f165af90610857908490600401612259565b6117bb611866565b6000546001600160a01b039081169116146117e85760405162461bcd60e51b815260040161081e9061215d565b6001600160a01b03811661180e5760405162461bcd60e51b815260040161081e9061203c565b600080546040516001600160a01b03808516939216916000805160206122f883398151915291a3600080546001600160a01b0319166001600160a01b0392909216919091179055565b6008546001600160a01b031681565b3390565b8047101561188a5760405162461bcd60e51b815260040161081e906120df565b6000826001600160a01b0316826040516118a390611f17565b60006040518083038185875af1925050503d80600081146118e0576040519150601f19603f3d011682016040523d82523d6000602084013e6118e5565b606091505b50509050806119065760405162461bcd60e51b815260040161081e90612082565b505050565b600a5415611a3f57600a546008546040516370a0823160e01b815260009291612710916001600160a01b03909116906370a082319061194e903090600401611f1a565b60206040518083038186803b15801561196657600080fd5b505afa15801561197a573d6000803e3d6000fd5b505050506040513d601f19601f8201168201806040525081019061199e9190611edc565b6119a8919061227a565b6119b2919061229a565b60085460095460405163a9059cbb60e01b81529293506001600160a01b039182169263a9059cbb926119ea9216908590600401611f6e565b602060405180830381600087803b158015611a0457600080fd5b505af1158015611a18573d6000803e3d6000fd5b505050506040513d601f19601f82011682018060405250810190611a3c9190611e3b565b50505b6008546040516370a0823160e01b81526000916001600160a01b0316906370a0823190611a70903090600401611f1a565b60206040518083038186803b158015611a8857600080fd5b505afa158015611a9c573d6000803e3d6000fd5b505050506040513d601f19601f82011682018060405250810190611ac09190611edc565b60085460035460405163095ea7b360e01b81529293506001600160a01b039182169263095ea7b392611af89216908590600401611f6e565b602060405180830381600087803b158015611b1257600080fd5b505af1158015611b26573d6000803e3d6000fd5b505050506040513d601f19601f82011682018060405250810190611b4a9190611e3b565b506003546007546000916001600160a01b039081169163baa2abde91167f00000000000000000000000000000000000000000000000000000000000000008560018030611b99426104b0612262565b6040518863ffffffff1660e01b8152600401611bbb9796959493929190611f2e565b6040805180830381600087803b158015611bd457600080fd5b505af1158015611be8573d6000803e3d6000fd5b505050506040513d601f19601f82011682018060405250810190611c0c9190611ef4565b604051632e1a7d4d60e01b81529092506001600160a01b037f0000000000000000000000000000000000000000000000000000000000000000169150632e1a7d4d90611c5c908490600401612259565b600060405180830381600087803b158015611c7657600080fd5b505af1158015611c8a573d6000803e3d6000fd5b50506007546040516370a0823160e01b8152600093506001600160a01b0390911691506370a0823190611cc1903090600401611f1a565b60206040518083038186803b158015611cd957600080fd5b505afa158015611ced573d6000803e3d6000fd5b505050506040513d601f19601f82011682018060405250810190611d119190611edc565b60075460405163a9059cbb60e01b81529192506001600160a01b03169063a9059cbb90611d64907f0000000000000000000000000000000000000000000000000000000000000000908590600401611f6e565b602060405180830381600087803b158015611d7e57600080fd5b505af1158015611d92573d6000803e3d6000fd5b505050506040513d601f19601f82011682018060405250810190611db69190611e3b565b5047611deb6001600160a01b037f0000000000000000000000000000000000000000000000000000000000000000168261186a565b50505050565b600060208284031215611e02578081fd5b81356001600160a01b0381168114611e18578182fd5b9392505050565b600060208284031215611e30578081fd5b8135611e18816122e6565b600060208284031215611e4c578081fd5b8151611e18816122e6565b60008060208385031215611e69578081fd5b823567ffffffffffffffff80821115611e80578283fd5b818501915085601f830112611e93578283fd5b813581811115611ea1578384fd5b866020828501011115611eb2578384fd5b60209290920196919550909350505050565b600060208284031215611ed5578081fd5b5035919050565b600060208284031215611eed578081fd5b5051919050565b60008060408385031215611f06578182fd5b505080516020909101519092909150565b90565b6001600160a01b0391909116815260200190565b6001600160a01b039788168152958716602087015260408601949094526060850192909252608084015290921660a082015260c081019190915260e00190565b6001600160a01b03929092168252602082015260400190565b901515815260200190565b6000831515825260206040818401528351806040850152825b81811015611fc757858101830151858201606001528201611fab565b81811115611fd85783606083870101525b50601f01601f191692909201606001949350505050565b6020808252602d908201527f4f6e6c7920436861696e6c696e6b204b6565706572732063616e2063616c6c2060408201526c3a3434b990333ab731ba34b7b760991b606082015260800190565b60208082526026908201527f4f776e61626c653a206e6577206f776e657220697320746865207a65726f206160408201526564647265737360d01b606082015260800190565b6020808252603a908201527f416464726573733a20756e61626c6520746f2073656e642076616c75652c207260408201527f6563697069656e74206d61792068617665207265766572746564000000000000606082015260800190565b6020808252601d908201527f416464726573733a20696e73756666696369656e742062616c616e6365000000604082015260600190565b60208082526027908201527f436f6d6d756e6974792050657263656e742063616e74206265206d6f7265207460408201526668656e2032302560c81b606082015260800190565b6020808252818101527f4f776e61626c653a2063616c6c6572206973206e6f7420746865206f776e6572604082015260600190565b6020808252602d908201527f4f6e6c79207468652042616279446f6765205465616d2063616e2063616c6c2060408201526c3a3434b990333ab731ba34b7b760991b606082015260800190565b6020808252601f908201527f436f6e7472616374206973206c6f636b656420756e74696c2037206461797300604082015260600190565b60208082526023908201527f596f7520646f6e27742068617665207065726d697373696f6e20746f20756e6c6040820152626f636b60e81b606082015260800190565b90815260200190565b60008219821115612275576122756122d0565b500190565b60008261229557634e487b7160e01b81526012600452602481fd5b500490565b60008160001904831182151516156122b4576122b46122d0565b500290565b6000828210156122cb576122cb6122d0565b500390565b634e487b7160e01b600052601160045260246000fd5b80151581146122f457600080fd5b5056fe8be0079c531659141344cd1fd0a4f28419497f9722a3daafe3b4186f6b6457e0a26469706673582212206ab3d03d3f58458f01f319a62bdd20d6db1e5b0f4d6fdd9cc119e7b58fccb6b764736f6c63430008000033",
  "linkReferences": {},
  "deployedLinkReferences": {}
}