{
  "_format": "hh-sol-artifact-1",
  "contractName": "BabyDogeManager",
  "sourceName": "contracts/RenouncedContract.sol",
  "abi": [
    {
      "inputs": [
        {
          "internalType": "address",
          "name": "_bnbReciever",
          "type": "address"
        },
        {
          "internalType": "address",
          "name": "_babyDogeReciever",
          "type": "address"
        },
        {
          "internalType": "address",
          "name": "_lpTokenAddress",
          "type": "address"
        },
        {
          "internalType": "address",
          "name": "_babyDoge",
          "type": "address"
        },
        {
          "internalType": "address",
          "name": "_router",
          "type": "address"
        }
      ],
      "stateMutability": "nonpayable",
      "type": "constructor"
    },
    {
      "anonymous": false,
      "inputs": [
        {
          "indexed": true,
          "internalType": "address",
          "name": "previousOwner",
          "type": "address"
        },
        {
          "indexed": true,
          "internalType": "address",
          "name": "newOwner",
          "type": "address"
        }
      ],
      "name": "OwnershipTransferred",
      "type": "event"
    },
    {
      "stateMutability": "payable",
      "type": "fallback"
    },
    {
      "inputs": [],
      "name": "PancakeRouter",
      "outputs": [
        {
          "internalType": "address",
          "name": "",
          "type": "address"
        }
      ],
      "stateMutability": "view",
      "type": "function"
    },
    {
      "inputs": [],
      "name": "WBNB",
      "outputs": [
        {
          "internalType": "address",
          "name": "",
          "type": "address"
        }
      ],
      "stateMutability": "view",
      "type": "function"
    },
    {
      "inputs": [],
      "name": "_owner",
      "outputs": [
        {
          "internalType": "address",
          "name": "",
          "type": "address"
        }
      ],
      "stateMutability": "view",
      "type": "function"
    },
    {
      "inputs": [],
      "name": "babyDogeAddress",
      "outputs": [
        {
          "internalType": "address",
          "name": "",
          "type": "address"
        }
      ],
      "stateMutability": "view",
      "type": "function"
    },
    {
      "inputs": [],
      "name": "babyDogeReciever",
      "outputs": [
        {
          "internalType": "address",
          "name": "",
          "type": "address"
        }
      ],
      "stateMutability": "view",
      "type": "function"
    },
    {
      "inputs": [],
      "name": "bnbReciever",
      "outputs": [
        {
          "internalType": "address",
          "name": "",
          "type": "address"
        }
      ],
      "stateMutability": "view",
      "type": "function"
    },
    {
      "inputs": [
        {
          "internalType": "bytes",
          "name": "",
          "type": "bytes"
        }
      ],
      "name": "checkUpkeep",
      "outputs": [
        {
          "internalType": "bool",
          "name": "upkeepNeeded",
          "type": "bool"
        },
        {
          "internalType": "bytes",
          "name": "",
          "type": "bytes"
        }
      ],
      "stateMutability": "nonpayable",
      "type": "function"
    },
    {
      "inputs": [],
      "name": "claimTokensInBoth",
      "outputs": [],
      "stateMutability": "nonpayable",
      "type": "function"
    },
    {
      "inputs": [],
      "name": "exchangeLP",
      "outputs": [],
      "stateMutability": "nonpayable",
      "type": "function"
    },
    {
      "inputs": [
        {
          "internalType": "address",
          "name": "_account",
          "type": "address"
        }
      ],
      "name": "excludeFromFee",
      "outputs": [],
      "stateMutability": "nonpayable",
      "type": "function"
    },
    {
      "inputs": [
        {
          "internalType": "address",
          "name": "_account",
          "type": "address"
        }
      ],
      "name": "excludeFromReward",
      "outputs": [],
      "stateMutability": "nonpayable",
      "type": "function"
    },
    {
      "inputs": [],
      "name": "getUnlockTime",
      "outputs": [
        {
          "internalType": "uint256",
          "name": "",
          "type": "uint256"
        }
      ],
      "stateMutability": "view",
      "type": "function"
    },
    {
      "inputs": [
        {
          "internalType": "address",
          "name": "_account",
          "type": "address"
        }
      ],
      "name": "includeInFee",
      "outputs": [],
      "stateMutability": "nonpayable",
      "type": "function"
    },
    {
      "inputs": [
        {
          "internalType": "address",
          "name": "_account",
          "type": "address"
        }
      ],
      "name": "includeInReward",
      "outputs": [],
      "stateMutability": "nonpayable",
      "type": "function"
    },
    {
      "inputs": [],
      "name": "interval",
      "outputs": [
        {
          "internalType": "uint256",
          "name": "",
          "type": "uint256"
        }
      ],
      "stateMutability": "view",
      "type": "function"
    },
    {
      "inputs": [],
      "name": "lastTimestamp",
      "outputs": [
        {
          "internalType": "uint256",
          "name": "",
          "type": "uint256"
        }
      ],
      "stateMutability": "view",
      "type": "function"
    },
    {
      "inputs": [
        {
          "internalType": "uint256",
          "name": "time",
          "type": "uint256"
        }
      ],
      "name": "lock",
      "outputs": [],
      "stateMutability": "nonpayable",
      "type": "function"
    },
    {
      "inputs": [
        {
          "internalType": "uint256",
          "name": "_time",
          "type": "uint256"
        }
      ],
      "name": "lockBabyDoge",
      "outputs": [],
      "stateMutability": "nonpayable",
      "type": "function"
    },
    {
      "inputs": [],
      "name": "lpTokenAddress",
      "outputs": [
        {
          "internalType": "address",
          "name": "",
          "type": "address"
        }
      ],
      "stateMutability": "view",
      "type": "function"
    },
    {
      "inputs": [],
      "name": "owner",
      "outputs": [
        {
          "internalType": "address",
          "name": "",
          "type": "address"
        }
      ],
      "stateMutability": "view",
      "type": "function"
    },
    {
      "inputs": [
        {
          "internalType": "bytes",
          "name": "",
          "type": "bytes"
        }
      ],
      "name": "performUpkeep",
      "outputs": [],
      "stateMutability": "nonpayable",
      "type": "function"
    },
    {
      "inputs": [],
      "name": "registryAddress",
      "outputs": [
        {
          "internalType": "address",
          "name": "",
          "type": "address"
        }
      ],
      "stateMutability": "view",
      "type": "function"
    },
    {
      "inputs": [],
      "name": "renounceOwnership",
      "outputs": [],
      "stateMutability": "nonpayable",
      "type": "function"
    },
    {
      "inputs": [
        {
          "internalType": "address",
          "name": "_bnbReciever",
          "type": "address"
        }
      ],
      "name": "setBNBReciever",
      "outputs": [],
      "stateMutability": "nonpayable",
      "type": "function"
    },
    {
      "inputs": [
        {
          "internalType": "address",
          "name": "_babyDogeAddress",
          "type": "address"
        }
      ],
      "name": "setBabyDogeAddress",
      "outputs": [],
      "stateMutability": "nonpayable",
      "type": "function"
    },
    {
      "inputs": [
        {
          "internalType": "address",
          "name": "_babyDogeReciever",
          "type": "address"
        }
      ],
      "name": "setBabyDogeReciever",
      "outputs": [],
      "stateMutability": "nonpayable",
      "type": "function"
    },
    {
      "inputs": [],
      "name": "setCountDown",
      "outputs": [],
      "stateMutability": "nonpayable",
      "type": "function"
    },
    {
      "inputs": [
        {
          "internalType": "uint256",
          "name": "_interval",
          "type": "uint256"
        }
      ],
      "name": "setInterval",
      "outputs": [],
      "stateMutability": "nonpayable",
      "type": "function"
    },
    {
      "inputs": [
        {
          "internalType": "uint256",
          "name": "_liquidityFee",
          "type": "uint256"
        }
      ],
      "name": "setLiquidityFeePercent",
      "outputs": [],
      "stateMutability": "nonpayable",
      "type": "function"
    },
    {
      "inputs": [
        {
          "internalType": "address",
          "name": "_lpTokenAddress",
          "type": "address"
        }
      ],
      "name": "setLpTokenAddress",
      "outputs": [],
      "stateMutability": "nonpayable",
      "type": "function"
    },
    {
      "inputs": [
        {
          "internalType": "uint256",
          "name": "_maxTxPercent",
          "type": "uint256"
        }
      ],
      "name": "setMaxTxPercent",
      "outputs": [],
      "stateMutability": "nonpayable",
      "type": "function"
    },
    {
      "inputs": [
        {
          "internalType": "uint256",
          "name": "_swapNumber",
          "type": "uint256"
        }
      ],
      "name": "setNumTokensSellToAddToLiquidity",
      "outputs": [],
      "stateMutability": "nonpayable",
      "type": "function"
    },
    {
      "inputs": [
        {
          "internalType": "address",
          "name": "_router",
          "type": "address"
        }
      ],
      "name": "setRouter",
      "outputs": [],
      "stateMutability": "nonpayable",
      "type": "function"
    },
    {
      "inputs": [
        {
          "internalType": "bool",
          "name": "_enabled",
          "type": "bool"
        }
      ],
      "name": "setSwapAndLiquifyEnabled",
      "outputs": [],
      "stateMutability": "nonpayable",
      "type": "function"
    },
    {
      "inputs": [
        {
          "internalType": "uint256",
          "name": "_taxFee",
          "type": "uint256"
        }
      ],
      "name": "setTaxFeePercent",
      "outputs": [],
      "stateMutability": "nonpayable",
      "type": "function"
    },
    {
      "inputs": [
        {
          "internalType": "address",
          "name": "_newOwner",
          "type": "address"
        }
      ],
      "name": "transferBabyDogeOwnership",
      "outputs": [],
      "stateMutability": "nonpayable",
      "type": "function"
    },
    {
      "inputs": [
        {
          "internalType": "address",
          "name": "newOwner",
          "type": "address"
        }
      ],
      "name": "transferOwnership",
      "outputs": [],
      "stateMutability": "nonpayable",
      "type": "function"
    },
    {
      "inputs": [],
      "name": "unlock",
      "outputs": [],
      "stateMutability": "nonpayable",
      "type": "function"
    },
    {
      "inputs": [
        {
          "internalType": "address",
          "name": "",
          "type": "address"
        }
      ],
      "name": "whiteListed",
      "outputs": [
        {
          "internalType": "bool",
          "name": "",
          "type": "bool"
        }
      ],
      "stateMutability": "view",
      "type": "function"
    },
    {
      "stateMutability": "payable",
      "type": "receive"
    }
  ],
  "bytecode": "0x60c0604052603c60095573d0a1e359811322d97991e03f863a0c30c2cf029c73ffffffffffffffffffffffffffffffffffffffff1660809073ffffffffffffffffffffffffffffffffffffffff1660601b815250734cb093f226983713164a62138c3f718a5b595f7373ffffffffffffffffffffffffffffffffffffffff1660a09073ffffffffffffffffffffffffffffffffffffffff1660601b815250348015620000aa57600080fd5b50604051620036b5380380620036b58339818101604052810190620000d09190620002e1565b81600360006101000a81548173ffffffffffffffffffffffffffffffffffffffff021916908373ffffffffffffffffffffffffffffffffffffffff16021790555082600460006101000a81548173ffffffffffffffffffffffffffffffffffffffff021916908373ffffffffffffffffffffffffffffffffffffffff16021790555080600660006101000a81548173ffffffffffffffffffffffffffffffffffffffff021916908373ffffffffffffffffffffffffffffffffffffffff16021790555084600760006101000a81548173ffffffffffffffffffffffffffffffffffffffff021916908373ffffffffffffffffffffffffffffffffffffffff16021790555083600860006101000a81548173ffffffffffffffffffffffffffffffffffffffff021916908373ffffffffffffffffffffffffffffffffffffffff160217905550600360009054906101000a900473ffffffffffffffffffffffffffffffffffffffff16600b60006101000a81548173ffffffffffffffffffffffffffffffffffffffff021916908373ffffffffffffffffffffffffffffffffffffffff160217905550336000806101000a81548173ffffffffffffffffffffffffffffffffffffffff021916908373ffffffffffffffffffffffffffffffffffffffff16021790555042600a819055505050505050620003b1565b600081519050620002db8162000397565b92915050565b600080600080600060a08688031215620002fa57600080fd5b60006200030a88828901620002ca565b95505060206200031d88828901620002ca565b94505060406200033088828901620002ca565b93505060606200034388828901620002ca565b92505060806200035688828901620002ca565b9150509295509295909350565b6000620003708262000377565b9050919050565b600073ffffffffffffffffffffffffffffffffffffffff82169050919050565b620003a28162000363565b8114620003ae57600080fd5b50565b60805160601c60a05160601c6132c3620003f2600039600081816110ee015261225801526000818161167a015281816127bb015261286501526132c36000f3fe6080604052600436106102345760003560e01c8063947a36fb1161012e578063dd467064116100ab578063eda0228f1161006f578063eda0228f1461077e578063f0f165af146107a9578063f2fde38b146107d2578063f5ae497a146107fb578063fa0fca84146108265761023b565b8063dd467064146106bf578063e3cd9d69146106e8578063e52c3775146106ff578063ea2f0b371461072a578063ed9aab51146107535761023b565b8063c0d78655116100f2578063c0d78655146105f0578063c49b9a8014610619578063c7de612214610642578063cbd6149a1461066d578063d543dbeb146106965761023b565b8063947a36fb146105415780639654fc381461056c578063a69df4b514610597578063a7caecc7146105ae578063b2bdfa7b146105c55761023b565b80634585e33b116101bc5780636e04ff0d116101805780636e04ff0d1461046d578063715018a6146104ab5780638da5cb5b146104c25780638dd95002146104ed5780638ee88c53146105185761023b565b80634585e33b1461039e578063477d9d62146103c757806352390c02146103f0578063602bc62b1461041957806365651d78146104445761023b565b806319d8ac611161020357806319d8ac61146102cf5780631c9f35db146102fa57806322a90082146103235780633685d4191461034c578063437823ec146103755761023b565b80630384d2a31461023d578063056612cf14610266578063061c82d01461028f5780630c835721146102b85761023b565b3661023b57005b005b34801561024957600080fd5b50610264600480360381019061025f9190612c56565b610863565b005b34801561027257600080fd5b5061028d60048036038101906102889190612b96565b610988565b005b34801561029b57600080fd5b506102b660048036038101906102b19190612c56565b610a61565b005b3480156102c457600080fd5b506102cd610b86565b005b3480156102db57600080fd5b506102e4610d06565b6040516102f191906130a9565b60405180910390f35b34801561030657600080fd5b50610321600480360381019061031c9190612b96565b610d0c565b005b34801561032f57600080fd5b5061034a60048036038101906103459190612c56565b610de5565b005b34801561035857600080fd5b50610373600480360381019061036e9190612b96565b610e84565b005b34801561038157600080fd5b5061039c60048036038101906103979190612b96565b610fa9565b005b3480156103aa57600080fd5b506103c560048036038101906103c09190612c11565b6110ce565b005b3480156103d357600080fd5b506103ee60048036038101906103e99190612b96565b611176565b005b3480156103fc57600080fd5b5061041760048036038101906104129190612b96565b6112d5565b005b34801561042557600080fd5b5061042e6113fa565b60405161043b91906130a9565b60405180910390f35b34801561045057600080fd5b5061046b60048036038101906104669190612b96565b611404565b005b34801561047957600080fd5b50610494600480360381019061048f9190612c11565b6114dd565b6040516104a2929190612fd9565b60405180910390f35b3480156104b757600080fd5b506104c06114fc565b005b3480156104ce57600080fd5b506104d761164f565b6040516104e49190612f0b565b60405180910390f35b3480156104f957600080fd5b50610502611678565b60405161050f9190612f0b565b60405180910390f35b34801561052457600080fd5b5061053f600480360381019061053a9190612c56565b61169c565b005b34801561054d57600080fd5b506105566117c1565b60405161056391906130a9565b60405180910390f35b34801561057857600080fd5b506105816117c7565b60405161058e9190612f0b565b60405180910390f35b3480156105a357600080fd5b506105ac6117ed565b005b3480156105ba57600080fd5b506105c36119c1565b005b3480156105d157600080fd5b506105da611a60565b6040516105e79190612f0b565b60405180910390f35b3480156105fc57600080fd5b5061061760048036038101906106129190612b96565b611a84565b005b34801561062557600080fd5b50610640600480360381019061063b9190612bbf565b611b5d565b005b34801561064e57600080fd5b50610657611c82565b6040516106649190612f0b565b60405180910390f35b34801561067957600080fd5b50610694600480360381019061068f9190612b96565b611ca8565b005b3480156106a257600080fd5b506106bd60048036038101906106b89190612c56565b611d81565b005b3480156106cb57600080fd5b506106e660048036038101906106e19190612c56565b611ea6565b005b3480156106f457600080fd5b506106fd61206d565b005b34801561070b57600080fd5b5061071461210b565b6040516107219190612f0b565b60405180910390f35b34801561073657600080fd5b50610751600480360381019061074c9190612b96565b612131565b005b34801561075f57600080fd5b50610768612256565b6040516107759190612f0b565b60405180910390f35b34801561078a57600080fd5b5061079361227a565b6040516107a09190612f0b565b60405180910390f35b3480156107b557600080fd5b506107d060048036038101906107cb9190612c56565b6122a0565b005b3480156107de57600080fd5b506107f960048036038101906107f49190612b96565b6123c5565b005b34801561080757600080fd5b50610810612587565b60405161081d9190612f0b565b60405180910390f35b34801561083257600080fd5b5061084d60048036038101906108489190612b96565b6125ad565b60405161085a9190612fbe565b60405180910390f35b61086b6125cd565b73ffffffffffffffffffffffffffffffffffffffff1660008054906101000a900473ffffffffffffffffffffffffffffffffffffffff1673ffffffffffffffffffffffffffffffffffffffff16146108f8576040517f08c379a00000000000000000000000000000000000000000000000000000000081526004016108ef90613049565b60405180910390fd5b600b60009054906101000a900473ffffffffffffffffffffffffffffffffffffffff1673ffffffffffffffffffffffffffffffffffffffff1663dd467064826040518263ffffffff1660e01b815260040161095391906130a9565b600060405180830381600087803b15801561096d57600080fd5b505af1158015610981573d6000803e3d6000fd5b5050505050565b6109906125cd565b73ffffffffffffffffffffffffffffffffffffffff1660008054906101000a900473ffffffffffffffffffffffffffffffffffffffff1673ffffffffffffffffffffffffffffffffffffffff1614610a1d576040517f08c379a0000000000000000000000000000000000000000000000000000000008152600401610a1490613049565b60405180910390fd5b80600760006101000a81548173ffffffffffffffffffffffffffffffffffffffff021916908373ffffffffffffffffffffffffffffffffffffffff16021790555050565b610a696125cd565b73ffffffffffffffffffffffffffffffffffffffff1660008054906101000a900473ffffffffffffffffffffffffffffffffffffffff1673ffffffffffffffffffffffffffffffffffffffff1614610af6576040517f08c379a0000000000000000000000000000000000000000000000000000000008152600401610aed90613049565b60405180910390fd5b600b60009054906101000a900473ffffffffffffffffffffffffffffffffffffffff1673ffffffffffffffffffffffffffffffffffffffff1663061c82d0826040518263ffffffff1660e01b8152600401610b5191906130a9565b600060405180830381600087803b158015610b6b57600080fd5b505af1158015610b7f573d6000803e3d6000fd5b5050505050565b610b8e6125cd565b73ffffffffffffffffffffffffffffffffffffffff1660008054906101000a900473ffffffffffffffffffffffffffffffffffffffff1673ffffffffffffffffffffffffffffffffffffffff1614610c1b576040517f08c379a0000000000000000000000000000000000000000000000000000000008152600401610c1290613049565b60405180910390fd5b600b60009054906101000a900473ffffffffffffffffffffffffffffffffffffffff1673ffffffffffffffffffffffffffffffffffffffff166348c54b9d6040518163ffffffff1660e01b8152600401600060405180830381600087803b158015610c8557600080fd5b505af1158015610c99573d6000803e3d6000fd5b5050505060008054906101000a900473ffffffffffffffffffffffffffffffffffffffff1673ffffffffffffffffffffffffffffffffffffffff166108fc479081150290604051600060405180830381858888f19350505050158015610d03573d6000803e3d6000fd5b50565b600a5481565b610d146125cd565b73ffffffffffffffffffffffffffffffffffffffff1660008054906101000a900473ffffffffffffffffffffffffffffffffffffffff1673ffffffffffffffffffffffffffffffffffffffff1614610da1576040517f08c379a0000000000000000000000000000000000000000000000000000000008152600401610d9890613049565b60405180910390fd5b80600860006101000a81548173ffffffffffffffffffffffffffffffffffffffff021916908373ffffffffffffffffffffffffffffffffffffffff16021790555050565b610ded6125cd565b73ffffffffffffffffffffffffffffffffffffffff1660008054906101000a900473ffffffffffffffffffffffffffffffffffffffff1673ffffffffffffffffffffffffffffffffffffffff1614610e7a576040517f08c379a0000000000000000000000000000000000000000000000000000000008152600401610e7190613049565b60405180910390fd5b8060098190555050565b610e8c6125cd565b73ffffffffffffffffffffffffffffffffffffffff1660008054906101000a900473ffffffffffffffffffffffffffffffffffffffff1673ffffffffffffffffffffffffffffffffffffffff1614610f19576040517f08c379a0000000000000000000000000000000000000000000000000000000008152600401610f1090613049565b60405180910390fd5b600b60009054906101000a900473ffffffffffffffffffffffffffffffffffffffff1673ffffffffffffffffffffffffffffffffffffffff16633685d419826040518263ffffffff1660e01b8152600401610f749190612f0b565b600060405180830381600087803b158015610f8e57600080fd5b505af1158015610fa2573d6000803e3d6000fd5b5050505050565b610fb16125cd565b73ffffffffffffffffffffffffffffffffffffffff1660008054906101000a900473ffffffffffffffffffffffffffffffffffffffff1673ffffffffffffffffffffffffffffffffffffffff161461103e576040517f08c379a000000000000000000000000000000000000000000000000000000000815260040161103590613049565b60405180910390fd5b600b60009054906101000a900473ffffffffffffffffffffffffffffffffffffffff1673ffffffffffffffffffffffffffffffffffffffff1663437823ec826040518263ffffffff1660e01b81526004016110999190612f0b565b600060405180830381600087803b1580156110b357600080fd5b505af11580156110c7573d6000803e3d6000fd5b5050505050565b6110d66125cd565b73ffffffffffffffffffffffffffffffffffffffff167f000000000000000000000000000000000000000000000000000000000000000073ffffffffffffffffffffffffffffffffffffffff1614611163576040517f08c379a000000000000000000000000000000000000000000000000000000000815260040161115a90613029565b60405180910390fd5b61116b6125d5565b42600a819055505050565b61117e6125cd565b73ffffffffffffffffffffffffffffffffffffffff1660008054906101000a900473ffffffffffffffffffffffffffffffffffffffff1673ffffffffffffffffffffffffffffffffffffffff161461120b576040517f08c379a000000000000000000000000000000000000000000000000000000000815260040161120290613049565b60405180910390fd5b600073ffffffffffffffffffffffffffffffffffffffff168173ffffffffffffffffffffffffffffffffffffffff16141561124557600080fd5b600b60009054906101000a900473ffffffffffffffffffffffffffffffffffffffff1673ffffffffffffffffffffffffffffffffffffffff1663f2fde38b826040518263ffffffff1660e01b81526004016112a09190612f0b565b600060405180830381600087803b1580156112ba57600080fd5b505af11580156112ce573d6000803e3d6000fd5b5050505050565b6112dd6125cd565b73ffffffffffffffffffffffffffffffffffffffff1660008054906101000a900473ffffffffffffffffffffffffffffffffffffffff1673ffffffffffffffffffffffffffffffffffffffff161461136a576040517f08c379a000000000000000000000000000000000000000000000000000000000815260040161136190613049565b60405180910390fd5b600b60009054906101000a900473ffffffffffffffffffffffffffffffffffffffff1673ffffffffffffffffffffffffffffffffffffffff166352390c02826040518263ffffffff1660e01b81526004016113c59190612f0b565b600060405180830381600087803b1580156113df57600080fd5b505af11580156113f3573d6000803e3d6000fd5b5050505050565b6000600254905090565b61140c6125cd565b73ffffffffffffffffffffffffffffffffffffffff1660008054906101000a900473ffffffffffffffffffffffffffffffffffffffff1673ffffffffffffffffffffffffffffffffffffffff1614611499576040517f08c379a000000000000000000000000000000000000000000000000000000000815260040161149090613049565b60405180910390fd5b80600460006101000a81548173ffffffffffffffffffffffffffffffffffffffff021916908373ffffffffffffffffffffffffffffffffffffffff16021790555050565b60006060600954600a54426114f29190613147565b1191509250929050565b6115046125cd565b73ffffffffffffffffffffffffffffffffffffffff1660008054906101000a900473ffffffffffffffffffffffffffffffffffffffff1673ffffffffffffffffffffffffffffffffffffffff1614611591576040517f08c379a000000000000000000000000000000000000000000000000000000000815260040161158890613049565b60405180910390fd5b600073ffffffffffffffffffffffffffffffffffffffff1660008054906101000a900473ffffffffffffffffffffffffffffffffffffffff1673ffffffffffffffffffffffffffffffffffffffff167f8be0079c531659141344cd1fd0a4f28419497f9722a3daafe3b4186f6b6457e060405160405180910390a360008060006101000a81548173ffffffffffffffffffffffffffffffffffffffff021916908373ffffffffffffffffffffffffffffffffffffffff160217905550565b60008060009054906101000a900473ffffffffffffffffffffffffffffffffffffffff16905090565b7f000000000000000000000000000000000000000000000000000000000000000081565b6116a46125cd565b73ffffffffffffffffffffffffffffffffffffffff1660008054906101000a900473ffffffffffffffffffffffffffffffffffffffff1673ffffffffffffffffffffffffffffffffffffffff1614611731576040517f08c379a000000000000000000000000000000000000000000000000000000000815260040161172890613049565b60405180910390fd5b600b60009054906101000a900473ffffffffffffffffffffffffffffffffffffffff1673ffffffffffffffffffffffffffffffffffffffff16638ee88c53826040518263ffffffff1660e01b815260040161178c91906130a9565b600060405180830381600087803b1580156117a657600080fd5b505af11580156117ba573d6000803e3d6000fd5b5050505050565b60095481565b600360009054906101000a900473ffffffffffffffffffffffffffffffffffffffff1681565b3373ffffffffffffffffffffffffffffffffffffffff16600160009054906101000a900473ffffffffffffffffffffffffffffffffffffffff1673ffffffffffffffffffffffffffffffffffffffff161461187d576040517f08c379a000000000000000000000000000000000000000000000000000000000815260040161187490613089565b60405180910390fd5b60025442116118c1576040517f08c379a00000000000000000000000000000000000000000000000000000000081526004016118b890613069565b60405180910390fd5b600160009054906101000a900473ffffffffffffffffffffffffffffffffffffffff1673ffffffffffffffffffffffffffffffffffffffff1660008054906101000a900473ffffffffffffffffffffffffffffffffffffffff1673ffffffffffffffffffffffffffffffffffffffff167f8be0079c531659141344cd1fd0a4f28419497f9722a3daafe3b4186f6b6457e060405160405180910390a3600160009054906101000a900473ffffffffffffffffffffffffffffffffffffffff166000806101000a81548173ffffffffffffffffffffffffffffffffffffffff021916908373ffffffffffffffffffffffffffffffffffffffff160217905550565b6119c96125cd565b73ffffffffffffffffffffffffffffffffffffffff1660008054906101000a900473ffffffffffffffffffffffffffffffffffffffff1673ffffffffffffffffffffffffffffffffffffffff1614611a56576040517f08c379a0000000000000000000000000000000000000000000000000000000008152600401611a4d90613049565b60405180910390fd5b611a5e6125d5565b565b60008054906101000a900473ffffffffffffffffffffffffffffffffffffffff1681565b611a8c6125cd565b73ffffffffffffffffffffffffffffffffffffffff1660008054906101000a900473ffffffffffffffffffffffffffffffffffffffff1673ffffffffffffffffffffffffffffffffffffffff1614611b19576040517f08c379a0000000000000000000000000000000000000000000000000000000008152600401611b1090613049565b60405180910390fd5b80600660006101000a81548173ffffffffffffffffffffffffffffffffffffffff021916908373ffffffffffffffffffffffffffffffffffffffff16021790555050565b611b656125cd565b73ffffffffffffffffffffffffffffffffffffffff1660008054906101000a900473ffffffffffffffffffffffffffffffffffffffff1673ffffffffffffffffffffffffffffffffffffffff1614611bf2576040517f08c379a0000000000000000000000000000000000000000000000000000000008152600401611be990613049565b60405180910390fd5b600b60009054906101000a900473ffffffffffffffffffffffffffffffffffffffff1673ffffffffffffffffffffffffffffffffffffffff1663c49b9a80826040518263ffffffff1660e01b8152600401611c4d9190612fbe565b600060405180830381600087803b158015611c6757600080fd5b505af1158015611c7b573d6000803e3d6000fd5b5050505050565b600760009054906101000a900473ffffffffffffffffffffffffffffffffffffffff1681565b611cb06125cd565b73ffffffffffffffffffffffffffffffffffffffff1660008054906101000a900473ffffffffffffffffffffffffffffffffffffffff1673ffffffffffffffffffffffffffffffffffffffff1614611d3d576040517f08c379a0000000000000000000000000000000000000000000000000000000008152600401611d3490613049565b60405180910390fd5b80600360006101000a81548173ffffffffffffffffffffffffffffffffffffffff021916908373ffffffffffffffffffffffffffffffffffffffff16021790555050565b611d896125cd565b73ffffffffffffffffffffffffffffffffffffffff1660008054906101000a900473ffffffffffffffffffffffffffffffffffffffff1673ffffffffffffffffffffffffffffffffffffffff1614611e16576040517f08c379a0000000000000000000000000000000000000000000000000000000008152600401611e0d90613049565b60405180910390fd5b600b60009054906101000a900473ffffffffffffffffffffffffffffffffffffffff1673ffffffffffffffffffffffffffffffffffffffff1663d543dbeb826040518263ffffffff1660e01b8152600401611e7191906130a9565b600060405180830381600087803b158015611e8b57600080fd5b505af1158015611e9f573d6000803e3d6000fd5b5050505050565b611eae6125cd565b73ffffffffffffffffffffffffffffffffffffffff1660008054906101000a900473ffffffffffffffffffffffffffffffffffffffff1673ffffffffffffffffffffffffffffffffffffffff1614611f3b576040517f08c379a0000000000000000000000000000000000000000000000000000000008152600401611f3290613049565b60405180910390fd5b60008054906101000a900473ffffffffffffffffffffffffffffffffffffffff16600160006101000a81548173ffffffffffffffffffffffffffffffffffffffff021916908373ffffffffffffffffffffffffffffffffffffffff16021790555060008060006101000a81548173ffffffffffffffffffffffffffffffffffffffff021916908373ffffffffffffffffffffffffffffffffffffffff1602179055508042611fe991906130f1565b600281905550600073ffffffffffffffffffffffffffffffffffffffff1660008054906101000a900473ffffffffffffffffffffffffffffffffffffffff1673ffffffffffffffffffffffffffffffffffffffff167f8be0079c531659141344cd1fd0a4f28419497f9722a3daafe3b4186f6b6457e060405160405180910390a350565b6120756125cd565b73ffffffffffffffffffffffffffffffffffffffff1660008054906101000a900473ffffffffffffffffffffffffffffffffffffffff1673ffffffffffffffffffffffffffffffffffffffff1614612102576040517f08c379a00000000000000000000000000000000000000000000000000000000081526004016120f990613049565b60405180910390fd5b42600a81905550565b600860009054906101000a900473ffffffffffffffffffffffffffffffffffffffff1681565b6121396125cd565b73ffffffffffffffffffffffffffffffffffffffff1660008054906101000a900473ffffffffffffffffffffffffffffffffffffffff1673ffffffffffffffffffffffffffffffffffffffff16146121c6576040517f08c379a00000000000000000000000000000000000000000000000000000000081526004016121bd90613049565b60405180910390fd5b600b60009054906101000a900473ffffffffffffffffffffffffffffffffffffffff1673ffffffffffffffffffffffffffffffffffffffff1663ea2f0b37826040518263ffffffff1660e01b81526004016122219190612f0b565b600060405180830381600087803b15801561223b57600080fd5b505af115801561224f573d6000803e3d6000fd5b5050505050565b7f000000000000000000000000000000000000000000000000000000000000000081565b600660009054906101000a900473ffffffffffffffffffffffffffffffffffffffff1681565b6122a86125cd565b73ffffffffffffffffffffffffffffffffffffffff1660008054906101000a900473ffffffffffffffffffffffffffffffffffffffff1673ffffffffffffffffffffffffffffffffffffffff1614612335576040517f08c379a000000000000000000000000000000000000000000000000000000000815260040161232c90613049565b60405180910390fd5b600b60009054906101000a900473ffffffffffffffffffffffffffffffffffffffff1673ffffffffffffffffffffffffffffffffffffffff1663f0f165af826040518263ffffffff1660e01b815260040161239091906130a9565b600060405180830381600087803b1580156123aa57600080fd5b505af11580156123be573d6000803e3d6000fd5b5050505050565b6123cd6125cd565b73ffffffffffffffffffffffffffffffffffffffff1660008054906101000a900473ffffffffffffffffffffffffffffffffffffffff1673ffffffffffffffffffffffffffffffffffffffff161461245a576040517f08c379a000000000000000000000000000000000000000000000000000000000815260040161245190613049565b60405180910390fd5b600073ffffffffffffffffffffffffffffffffffffffff168173ffffffffffffffffffffffffffffffffffffffff1614156124ca576040517f08c379a00000000000000000000000000000000000000000000000000000000081526004016124c190613009565b60405180910390fd5b8073ffffffffffffffffffffffffffffffffffffffff1660008054906101000a900473ffffffffffffffffffffffffffffffffffffffff1673ffffffffffffffffffffffffffffffffffffffff167f8be0079c531659141344cd1fd0a4f28419497f9722a3daafe3b4186f6b6457e060405160405180910390a3806000806101000a81548173ffffffffffffffffffffffffffffffffffffffff021916908373ffffffffffffffffffffffffffffffffffffffff16021790555050565b600460009054906101000a900473ffffffffffffffffffffffffffffffffffffffff1681565b60056020528060005260406000206000915054906101000a900460ff1681565b600033905090565b6000600460009054906101000a900473ffffffffffffffffffffffffffffffffffffffff1673ffffffffffffffffffffffffffffffffffffffff166370a08231306040518263ffffffff1660e01b81526004016126329190612f0b565b60206040518083038186803b15801561264a57600080fd5b505afa15801561265e573d6000803e3d6000fd5b505050506040513d601f19601f820116820180604052508101906126829190612c7f565b9050600460009054906101000a900473ffffffffffffffffffffffffffffffffffffffff1673ffffffffffffffffffffffffffffffffffffffff1663095ea7b3600660009054906101000a900473ffffffffffffffffffffffffffffffffffffffff16836040518363ffffffff1660e01b8152600401612703929190612f95565b602060405180830381600087803b15801561271d57600080fd5b505af1158015612731573d6000803e3d6000fd5b505050506040513d601f19601f820116820180604052508101906127559190612be8565b506000600660009054906101000a900473ffffffffffffffffffffffffffffffffffffffff1673ffffffffffffffffffffffffffffffffffffffff1663baa2abde600360009054906101000a900473ffffffffffffffffffffffffffffffffffffffff167f000000000000000000000000000000000000000000000000000000000000000085600180306104b0426127ed91906130f1565b6040518863ffffffff1660e01b815260040161280f9796959493929190612f26565b6040805180830381600087803b15801561282857600080fd5b505af115801561283c573d6000803e3d6000fd5b505050506040513d601f19601f820116820180604052508101906128609190612ca8565b9150507f000000000000000000000000000000000000000000000000000000000000000073ffffffffffffffffffffffffffffffffffffffff16632e1a7d4d826040518263ffffffff1660e01b81526004016128bc91906130a9565b600060405180830381600087803b1580156128d657600080fd5b505af11580156128ea573d6000803e3d6000fd5b505050506000600360009054906101000a900473ffffffffffffffffffffffffffffffffffffffff1673ffffffffffffffffffffffffffffffffffffffff166370a08231306040518263ffffffff1660e01b815260040161294b9190612f0b565b60206040518083038186803b15801561296357600080fd5b505afa158015612977573d6000803e3d6000fd5b505050506040513d601f19601f8201168201806040525081019061299b9190612c7f565b9050600360009054906101000a900473ffffffffffffffffffffffffffffffffffffffff1673ffffffffffffffffffffffffffffffffffffffff1663a9059cbb600860009054906101000a900473ffffffffffffffffffffffffffffffffffffffff16836040518363ffffffff1660e01b8152600401612a1c929190612f95565b602060405180830381600087803b158015612a3657600080fd5b505af1158015612a4a573d6000803e3d6000fd5b505050506040513d601f19601f82011682018060405250810190612a6e9190612be8565b506000479050600760009054906101000a900473ffffffffffffffffffffffffffffffffffffffff1673ffffffffffffffffffffffffffffffffffffffff166108fc829081150290604051600060405180830381858888f19350505050158015612adc573d6000803e3d6000fd5b5050505050565b600081359050612af281613248565b92915050565b600081359050612b078161325f565b92915050565b600081519050612b1c8161325f565b92915050565b60008083601f840112612b3457600080fd5b8235905067ffffffffffffffff811115612b4d57600080fd5b602083019150836001820283011115612b6557600080fd5b9250929050565b600081359050612b7b81613276565b92915050565b600081519050612b9081613276565b92915050565b600060208284031215612ba857600080fd5b6000612bb684828501612ae3565b91505092915050565b600060208284031215612bd157600080fd5b6000612bdf84828501612af8565b91505092915050565b600060208284031215612bfa57600080fd5b6000612c0884828501612b0d565b91505092915050565b60008060208385031215612c2457600080fd5b600083013567ffffffffffffffff811115612c3e57600080fd5b612c4a85828601612b22565b92509250509250929050565b600060208284031215612c6857600080fd5b6000612c7684828501612b6c565b91505092915050565b600060208284031215612c9157600080fd5b6000612c9f84828501612b81565b91505092915050565b60008060408385031215612cbb57600080fd5b6000612cc985828601612b81565b9250506020612cda85828601612b81565b9150509250929050565b612ced8161317b565b82525050565b612cfc8161318d565b82525050565b6000612d0d826130c4565b612d1781856130cf565b9350612d278185602086016131d5565b612d3081613237565b840191505092915050565b612d44816131c3565b82525050565b6000612d576026836130e0565b91507f4f776e61626c653a206e6577206f776e657220697320746865207a65726f206160008301527f64647265737300000000000000000000000000000000000000000000000000006020830152604082019050919050565b6000612dbd602d836130e0565b91507f4f6e6c7920436861696e6c696e6b204b6565706572732063616e2063616c6c2060008301527f706572666f726d55706b656570000000000000000000000000000000000000006020830152604082019050919050565b6000612e236020836130e0565b91507f4f776e61626c653a2063616c6c6572206973206e6f7420746865206f776e65726000830152602082019050919050565b6000612e63601f836130e0565b91507f436f6e7472616374206973206c6f636b656420756e74696c20372064617973006000830152602082019050919050565b6000612ea36023836130e0565b91507f596f7520646f6e27742068617665207065726d697373696f6e20746f20756e6c60008301527f6f636b00000000000000000000000000000000000000000000000000000000006020830152604082019050919050565b612f05816131b9565b82525050565b6000602082019050612f206000830184612ce4565b92915050565b600060e082019050612f3b600083018a612ce4565b612f486020830189612ce4565b612f556040830188612efc565b612f626060830187612d3b565b612f6f6080830186612d3b565b612f7c60a0830185612ce4565b612f8960c0830184612efc565b98975050505050505050565b6000604082019050612faa6000830185612ce4565b612fb76020830184612efc565b9392505050565b6000602082019050612fd36000830184612cf3565b92915050565b6000604082019050612fee6000830185612cf3565b81810360208301526130008184612d02565b90509392505050565b6000602082019050818103600083015261302281612d4a565b9050919050565b6000602082019050818103600083015261304281612db0565b9050919050565b6000602082019050818103600083015261306281612e16565b9050919050565b6000602082019050818103600083015261308281612e56565b9050919050565b600060208201905081810360008301526130a281612e96565b9050919050565b60006020820190506130be6000830184612efc565b92915050565b600081519050919050565b600082825260208201905092915050565b600082825260208201905092915050565b60006130fc826131b9565b9150613107836131b9565b9250827fffffffffffffffffffffffffffffffffffffffffffffffffffffffffffffffff0382111561313c5761313b613208565b5b828201905092915050565b6000613152826131b9565b915061315d836131b9565b9250828210156131705761316f613208565b5b828203905092915050565b600061318682613199565b9050919050565b60008115159050919050565b600073ffffffffffffffffffffffffffffffffffffffff82169050919050565b6000819050919050565b60006131ce826131b9565b9050919050565b60005b838110156131f35780820151818401526020810190506131d8565b83811115613202576000848401525b50505050565b7f4e487b7100000000000000000000000000000000000000000000000000000000600052601160045260246000fd5b6000601f19601f8301169050919050565b6132518161317b565b811461325c57600080fd5b50565b6132688161318d565b811461327357600080fd5b50565b61327f816131b9565b811461328a57600080fd5b5056fea2646970667358221220aa96ebf8795de8a48ba2769fc073daf66fbe7397f82fd3f16fb6cdd821c2fb0c64736f6c63430008000033",
  "linkReferences": {},
  "deployedLinkReferences": {}
}