{
  "_format": "hh-sol-artifact-1",
  "contractName": "BabyDogeManager",
  "sourceName": "contracts/RenouncedContract.sol",
  "abi": [
    {
      "inputs": [
        {
          "internalType": "address",
          "name": "_bnbReciever",
          "type": "address"
        },
        {
          "internalType": "address",
          "name": "_babyDogeReciever",
          "type": "address"
        }
      ],
      "stateMutability": "nonpayable",
      "type": "constructor"
    },
    {
      "anonymous": false,
      "inputs": [
        {
          "indexed": true,
          "internalType": "address",
          "name": "previousOwner",
          "type": "address"
        },
        {
          "indexed": true,
          "internalType": "address",
          "name": "newOwner",
          "type": "address"
        }
      ],
      "name": "OwnershipTransferred",
      "type": "event"
    },
    {
      "stateMutability": "payable",
      "type": "fallback"
    },
    {
      "inputs": [],
      "name": "PancakeRouter",
      "outputs": [
        {
          "internalType": "address",
          "name": "",
          "type": "address"
        }
      ],
      "stateMutability": "view",
      "type": "function"
    },
    {
      "inputs": [],
      "name": "WBNB",
      "outputs": [
        {
          "internalType": "address",
          "name": "",
          "type": "address"
        }
      ],
      "stateMutability": "view",
      "type": "function"
    },
    {
      "inputs": [],
      "name": "_owner",
      "outputs": [
        {
          "internalType": "address",
          "name": "",
          "type": "address"
        }
      ],
      "stateMutability": "view",
      "type": "function"
    },
    {
      "inputs": [],
      "name": "babyDogeAddress",
      "outputs": [
        {
          "internalType": "address",
          "name": "",
          "type": "address"
        }
      ],
      "stateMutability": "view",
      "type": "function"
    },
    {
      "inputs": [],
      "name": "babyDogeReciever",
      "outputs": [
        {
          "internalType": "address",
          "name": "",
          "type": "address"
        }
      ],
      "stateMutability": "view",
      "type": "function"
    },
    {
      "inputs": [],
      "name": "bnbReciever",
      "outputs": [
        {
          "internalType": "address",
          "name": "",
          "type": "address"
        }
      ],
      "stateMutability": "view",
      "type": "function"
    },
    {
      "inputs": [
        {
          "internalType": "bytes",
          "name": "",
          "type": "bytes"
        }
      ],
      "name": "checkUpkeep",
      "outputs": [
        {
          "internalType": "bool",
          "name": "upkeepNeeded",
          "type": "bool"
        },
        {
          "internalType": "bytes",
          "name": "",
          "type": "bytes"
        }
      ],
      "stateMutability": "nonpayable",
      "type": "function"
    },
    {
      "inputs": [],
      "name": "claimTokensInBoth",
      "outputs": [],
      "stateMutability": "nonpayable",
      "type": "function"
    },
    {
      "inputs": [],
      "name": "emergencyWithdrawLP",
      "outputs": [],
      "stateMutability": "nonpayable",
      "type": "function"
    },
    {
      "inputs": [
        {
          "internalType": "address",
          "name": "_tokenAddress",
          "type": "address"
        }
      ],
      "name": "emergencyWithdrawToken",
      "outputs": [],
      "stateMutability": "nonpayable",
      "type": "function"
    },
    {
      "inputs": [],
      "name": "exchangeLP",
      "outputs": [],
      "stateMutability": "nonpayable",
      "type": "function"
    },
    {
      "inputs": [
        {
          "internalType": "address",
          "name": "_account",
          "type": "address"
        }
      ],
      "name": "excludeFromFee",
      "outputs": [],
      "stateMutability": "nonpayable",
      "type": "function"
    },
    {
      "inputs": [
        {
          "internalType": "address",
          "name": "_account",
          "type": "address"
        }
      ],
      "name": "excludeFromReward",
      "outputs": [],
      "stateMutability": "nonpayable",
      "type": "function"
    },
    {
      "inputs": [],
      "name": "getUnlockTime",
      "outputs": [
        {
          "internalType": "uint256",
          "name": "",
          "type": "uint256"
        }
      ],
      "stateMutability": "view",
      "type": "function"
    },
    {
      "inputs": [
        {
          "internalType": "address",
          "name": "_account",
          "type": "address"
        }
      ],
      "name": "includeInFee",
      "outputs": [],
      "stateMutability": "nonpayable",
      "type": "function"
    },
    {
      "inputs": [
        {
          "internalType": "address",
          "name": "_account",
          "type": "address"
        }
      ],
      "name": "includeInReward",
      "outputs": [],
      "stateMutability": "nonpayable",
      "type": "function"
    },
    {
      "inputs": [],
      "name": "interval",
      "outputs": [
        {
          "internalType": "uint256",
          "name": "",
          "type": "uint256"
        }
      ],
      "stateMutability": "view",
      "type": "function"
    },
    {
      "inputs": [],
      "name": "lastTimestamp",
      "outputs": [
        {
          "internalType": "uint256",
          "name": "",
          "type": "uint256"
        }
      ],
      "stateMutability": "view",
      "type": "function"
    },
    {
      "inputs": [
        {
          "internalType": "uint256",
          "name": "time",
          "type": "uint256"
        }
      ],
      "name": "lock",
      "outputs": [],
      "stateMutability": "nonpayable",
      "type": "function"
    },
    {
      "inputs": [
        {
          "internalType": "uint256",
          "name": "_time",
          "type": "uint256"
        }
      ],
      "name": "lockBabyDoge",
      "outputs": [],
      "stateMutability": "nonpayable",
      "type": "function"
    },
    {
      "inputs": [],
      "name": "lpTokenAddress",
      "outputs": [
        {
          "internalType": "address",
          "name": "",
          "type": "address"
        }
      ],
      "stateMutability": "view",
      "type": "function"
    },
    {
      "inputs": [],
      "name": "owner",
      "outputs": [
        {
          "internalType": "address",
          "name": "",
          "type": "address"
        }
      ],
      "stateMutability": "view",
      "type": "function"
    },
    {
      "inputs": [
        {
          "internalType": "bytes",
          "name": "",
          "type": "bytes"
        }
      ],
      "name": "performUpkeep",
      "outputs": [],
      "stateMutability": "nonpayable",
      "type": "function"
    },
    {
      "inputs": [],
      "name": "registryAddress",
      "outputs": [
        {
          "internalType": "address",
          "name": "",
          "type": "address"
        }
      ],
      "stateMutability": "view",
      "type": "function"
    },
    {
      "inputs": [],
      "name": "renounceOwnership",
      "outputs": [],
      "stateMutability": "nonpayable",
      "type": "function"
    },
    {
      "inputs": [
        {
          "internalType": "address",
          "name": "_bnbReciever",
          "type": "address"
        }
      ],
      "name": "setBNBReciever",
      "outputs": [],
      "stateMutability": "nonpayable",
      "type": "function"
    },
    {
      "inputs": [
        {
          "internalType": "address",
          "name": "_babyDogeAddress",
          "type": "address"
        }
      ],
      "name": "setBabyDogeAddress",
      "outputs": [],
      "stateMutability": "nonpayable",
      "type": "function"
    },
    {
      "inputs": [
        {
          "internalType": "address",
          "name": "_babyDogeReciever",
          "type": "address"
        }
      ],
      "name": "setBabyDogeReciever",
      "outputs": [],
      "stateMutability": "nonpayable",
      "type": "function"
    },
    {
      "inputs": [],
      "name": "setCountDown",
      "outputs": [],
      "stateMutability": "nonpayable",
      "type": "function"
    },
    {
      "inputs": [
        {
          "internalType": "uint256",
          "name": "_interval",
          "type": "uint256"
        }
      ],
      "name": "setInterval",
      "outputs": [],
      "stateMutability": "nonpayable",
      "type": "function"
    },
    {
      "inputs": [
        {
          "internalType": "uint256",
          "name": "_liquidityFee",
          "type": "uint256"
        }
      ],
      "name": "setLiquidityFeePercent",
      "outputs": [],
      "stateMutability": "nonpayable",
      "type": "function"
    },
    {
      "inputs": [
        {
          "internalType": "address",
          "name": "_lpTokenAddress",
          "type": "address"
        }
      ],
      "name": "setLpTokenAddress",
      "outputs": [],
      "stateMutability": "nonpayable",
      "type": "function"
    },
    {
      "inputs": [
        {
          "internalType": "uint256",
          "name": "_maxTxPercent",
          "type": "uint256"
        }
      ],
      "name": "setMaxTxPercent",
      "outputs": [],
      "stateMutability": "nonpayable",
      "type": "function"
    },
    {
      "inputs": [
        {
          "internalType": "uint256",
          "name": "_swapNumber",
          "type": "uint256"
        }
      ],
      "name": "setNumTokensSellToAddToLiquidity",
      "outputs": [],
      "stateMutability": "nonpayable",
      "type": "function"
    },
    {
      "inputs": [
        {
          "internalType": "address",
          "name": "_router",
          "type": "address"
        }
      ],
      "name": "setRouter",
      "outputs": [],
      "stateMutability": "nonpayable",
      "type": "function"
    },
    {
      "inputs": [
        {
          "internalType": "bool",
          "name": "_enabled",
          "type": "bool"
        }
      ],
      "name": "setSwapAndLiquifyEnabled",
      "outputs": [],
      "stateMutability": "nonpayable",
      "type": "function"
    },
    {
      "inputs": [
        {
          "internalType": "uint256",
          "name": "_taxFee",
          "type": "uint256"
        }
      ],
      "name": "setTaxFeePercent",
      "outputs": [],
      "stateMutability": "nonpayable",
      "type": "function"
    },
    {
      "inputs": [
        {
          "internalType": "address",
          "name": "_newOwner",
          "type": "address"
        }
      ],
      "name": "transferBabyDogeOwnership",
      "outputs": [],
      "stateMutability": "nonpayable",
      "type": "function"
    },
    {
      "inputs": [
        {
          "internalType": "address",
          "name": "newOwner",
          "type": "address"
        }
      ],
      "name": "transferOwnership",
      "outputs": [],
      "stateMutability": "nonpayable",
      "type": "function"
    },
    {
      "inputs": [],
      "name": "unlock",
      "outputs": [],
      "stateMutability": "nonpayable",
      "type": "function"
    },
    {
      "inputs": [
        {
          "internalType": "address",
          "name": "",
          "type": "address"
        }
      ],
      "name": "whiteListed",
      "outputs": [
        {
          "internalType": "bool",
          "name": "",
          "type": "bool"
        }
      ],
      "stateMutability": "view",
      "type": "function"
    },
    {
      "stateMutability": "payable",
      "type": "receive"
    }
  ],
  "bytecode": "0x60c0604052600480546001600160a01b03199081167310ed43c718714eb63d5aa57b78b54704e256024e179091556228206f6007557fbb4cdb9cbd36b01bd1cbaebf2de08d9173bc095c0000000000000000000000006080527f7b3ec232b08bd7b4b3305be0c044d907b2df960b00000000000000000000000060a05260098054821673c748673057861a797275cd8a068abb95a902e8de179055600a805490911673c736ca3d9b1e90af4230bd8f9626528b3d4e0ee0179055348015620000c657600080fd5b5060405162001e4338038062001e43833981016040819052620000e9916200015c565b600580546001600160a01b039384166001600160a01b0319918216179091556006805492841692821692909217909155600954600b80548316919093161790915560008054909116331790554260085562000193565b80516001600160a01b03811681146200015757600080fd5b919050565b600080604083850312156200016f578182fd5b6200017a836200013f565b91506200018a602084016200013f565b90509250929050565b60805160601c60a05160601c611c6f620001d460003960008181610bd20152611387015260008181610f3d0152818161161301526116d00152611c6f6000f3fe60806040526004361061024a5760003560e01c80638ee88c5311610139578063d543dbeb116100b6578063ed9aab511161007a578063ed9aab511461063f578063eda0228f14610654578063f0f165af14610669578063f2fde38b14610689578063f5ae497a146106a9578063fa0fca84146106be57610251565b8063d543dbeb146105b5578063dd467064146105d5578063e3cd9d69146105f5578063e52c37751461060a578063ea2f0b371461061f57610251565b8063b2bdfa7b116100fd578063b2bdfa7b1461052b578063c0d7865514610540578063c49b9a8014610560578063c7de612214610580578063cbd6149a1461059557610251565b80638ee88c53146104b7578063947a36fb146104d75780639654fc38146104ec578063a69df4b514610501578063a7caecc71461051657610251565b80634585e33b116101c75780636e04ff0d1161018b5780636e04ff0d14610428578063715018a614610456578063784173981461046b5780638da5cb5b146104805780638dd95002146104a257610251565b80634585e33b14610393578063477d9d62146103b357806352390c02146103d3578063602bc62b146103f357806365651d781461040857610251565b80631af032031161020e5780631af03203146102f35780631c9f35db1461031357806322a90082146103335780633685d41914610353578063437823ec1461037357610251565b80630384d2a314610253578063056612cf14610273578063061c82d0146102935780630c835721146102b357806319d8ac61146102c857610251565b3661025157005b005b34801561025f57600080fd5b5061025161026e366004611953565b6106eb565b34801561027f57600080fd5b5061025161028e366004611880565b61078e565b34801561029f57600080fd5b506102516102ae366004611953565b6107e5565b3480156102bf57600080fd5b50610251610849565b3480156102d457600080fd5b506102dd610922565b6040516102ea9190611bbd565b60405180910390f35b3480156102ff57600080fd5b5061025161030e366004611880565b610928565b34801561031f57600080fd5b5061025161032e366004611880565b610a64565b34801561033f57600080fd5b5061025161034e366004611953565b610abb565b34801561035f57600080fd5b5061025161036e366004611880565b610af5565b34801561037f57600080fd5b5061025161038e366004611880565b610b5a565b34801561039f57600080fd5b506102516103ae3660046118e6565b610bbf565b3480156103bf57600080fd5b506102516103ce366004611880565b610c27565b3480156103df57600080fd5b506102516103ee366004611880565b610c9f565b3480156103ff57600080fd5b506102dd610d04565b34801561041457600080fd5b50610251610423366004611880565b610d0a565b34801561043457600080fd5b506104486104433660046118e6565b610d61565b6040516102ea929190611a1e565b34801561046257600080fd5b50610251610d80565b34801561047757600080fd5b50610251610ded565b34801561048c57600080fd5b50610495610f2c565b6040516102ea91906119a6565b3480156104ae57600080fd5b50610495610f3b565b3480156104c357600080fd5b506102516104d2366004611953565b610f5f565b3480156104e357600080fd5b506102dd610fc4565b3480156104f857600080fd5b50610495610fca565b34801561050d57600080fd5b50610251610fd9565b34801561052257600080fd5b50610251611073565b34801561053757600080fd5b506104956110b6565b34801561054c57600080fd5b5061025161055b366004611880565b6110c5565b34801561056c57600080fd5b5061025161057b3660046118ae565b61111c565b34801561058c57600080fd5b50610495611181565b3480156105a157600080fd5b506102516105b0366004611880565b611190565b3480156105c157600080fd5b506102516105d0366004611953565b6111e7565b3480156105e157600080fd5b506102516105f0366004611953565b61124c565b34801561060157600080fd5b506102516112dc565b34801561061657600080fd5b50610495611311565b34801561062b57600080fd5b5061025161063a366004611880565b611320565b34801561064b57600080fd5b50610495611385565b34801561066057600080fd5b506104956113a9565b34801561067557600080fd5b50610251610684366004611953565b6113b8565b34801561069557600080fd5b506102516106a4366004611880565b61141d565b3480156106b557600080fd5b506104956114c1565b3480156106ca57600080fd5b506106de6106d9366004611880565b6114d0565b6040516102ea9190611a13565b6106f36114e5565b6000546001600160a01b039081169116146107295760405162461bcd60e51b815260040161072090611b0e565b60405180910390fd5b600b546040516337519c1960e21b81526001600160a01b039091169063dd46706490610759908490600401611bbd565b600060405180830381600087803b15801561077357600080fd5b505af1158015610787573d6000803e3d6000fd5b5050505050565b6107966114e5565b6000546001600160a01b039081169116146107c35760405162461bcd60e51b815260040161072090611b0e565b600580546001600160a01b0319166001600160a01b0392909216919091179055565b6107ed6114e5565b6000546001600160a01b0390811691161461081a5760405162461bcd60e51b815260040161072090611b0e565b600b546040516261c82d60e41b81526001600160a01b039091169063061c82d090610759908490600401611bbd565b6108516114e5565b6000546001600160a01b0390811691161461087e5760405162461bcd60e51b815260040161072090611b0e565b600b60009054906101000a90046001600160a01b03166001600160a01b03166348c54b9d6040518163ffffffff1660e01b8152600401600060405180830381600087803b1580156108ce57600080fd5b505af11580156108e2573d6000803e3d6000fd5b5050600080546040516001600160a01b0390911693504780156108fc02935091818181858888f1935050505015801561091f573d6000803e3d6000fd5b50565b60085481565b6109306114e5565b6000546001600160a01b0390811691161461095d5760405162461bcd60e51b815260040161072090611b0e565b6040516370a0823160e01b81526000906001600160a01b038316906370a082319061098c9030906004016119a6565b60206040518083038186803b1580156109a457600080fd5b505afa1580156109b8573d6000803e3d6000fd5b505050506040513d601f19601f820116820180604052508101906109dc919061196b565b60405163a9059cbb60e01b81529091506001600160a01b0383169063a9059cbb90610a0d90339085906004016119fa565b602060405180830381600087803b158015610a2757600080fd5b505af1158015610a3b573d6000803e3d6000fd5b505050506040513d601f19601f82011682018060405250810190610a5f91906118ca565b505050565b610a6c6114e5565b6000546001600160a01b03908116911614610a995760405162461bcd60e51b815260040161072090611b0e565b600680546001600160a01b0319166001600160a01b0392909216919091179055565b610ac36114e5565b6000546001600160a01b03908116911614610af05760405162461bcd60e51b815260040161072090611b0e565b600755565b610afd6114e5565b6000546001600160a01b03908116911614610b2a5760405162461bcd60e51b815260040161072090611b0e565b600b54604051633685d41960e01b81526001600160a01b0390911690633685d419906107599084906004016119a6565b610b626114e5565b6000546001600160a01b03908116911614610b8f5760405162461bcd60e51b815260040161072090611b0e565b600b546040516310de08fb60e21b81526001600160a01b039091169063437823ec906107599084906004016119a6565b610bc76114e5565b6001600160a01b03167f00000000000000000000000000000000000000000000000000000000000000006001600160a01b031614610c175760405162461bcd60e51b815260040161072090611ac1565b610c1f6114e9565b505042600855565b610c2f6114e5565b6000546001600160a01b03908116911614610c5c5760405162461bcd60e51b815260040161072090611b0e565b6001600160a01b038116610c6f57600080fd5b600b5460405163f2fde38b60e01b81526001600160a01b039091169063f2fde38b906107599084906004016119a6565b610ca76114e5565b6000546001600160a01b03908116911614610cd45760405162461bcd60e51b815260040161072090611b0e565b600b5460405163291c860160e11b81526001600160a01b03909116906352390c02906107599084906004016119a6565b60025490565b610d126114e5565b6000546001600160a01b03908116911614610d3f5760405162461bcd60e51b815260040161072090611b0e565b600a80546001600160a01b0319166001600160a01b0392909216919091179055565b6000606060075460085442610d769190611bde565b1191509250929050565b610d886114e5565b6000546001600160a01b03908116911614610db55760405162461bcd60e51b815260040161072090611b0e565b600080546040516001600160a01b0390911690600080516020611c1a833981519152908390a3600080546001600160a01b0319169055565b610df56114e5565b6000546001600160a01b03908116911614610e225760405162461bcd60e51b815260040161072090611b0e565b600a546040516370a0823160e01b81526000916001600160a01b0316906370a0823190610e539030906004016119a6565b60206040518083038186803b158015610e6b57600080fd5b505afa158015610e7f573d6000803e3d6000fd5b505050506040513d601f19601f82011682018060405250810190610ea3919061196b565b600a5460405163a9059cbb60e01b81529192506001600160a01b03169063a9059cbb90610ed690339085906004016119fa565b602060405180830381600087803b158015610ef057600080fd5b505af1158015610f04573d6000803e3d6000fd5b505050506040513d601f19601f82011682018060405250810190610f2891906118ca565b5050565b6000546001600160a01b031690565b7f000000000000000000000000000000000000000000000000000000000000000081565b610f676114e5565b6000546001600160a01b03908116911614610f945760405162461bcd60e51b815260040161072090611b0e565b600b54604051638ee88c5360e01b81526001600160a01b0390911690638ee88c5390610759908490600401611bbd565b60075481565b6009546001600160a01b031681565b6001546001600160a01b031633146110035760405162461bcd60e51b815260040161072090611b7a565b60025442116110245760405162461bcd60e51b815260040161072090611b43565b600154600080546040516001600160a01b039384169390911691600080516020611c1a83398151915291a3600154600080546001600160a01b0319166001600160a01b03909216919091179055565b61107b6114e5565b6000546001600160a01b039081169116146110a85760405162461bcd60e51b815260040161072090611b0e565b6110b06114e9565b42600855565b6000546001600160a01b031681565b6110cd6114e5565b6000546001600160a01b039081169116146110fa5760405162461bcd60e51b815260040161072090611b0e565b600480546001600160a01b0319166001600160a01b0392909216919091179055565b6111246114e5565b6000546001600160a01b039081169116146111515760405162461bcd60e51b815260040161072090611b0e565b600b54604051630189373560e71b81526001600160a01b039091169063c49b9a8090610759908490600401611a13565b6005546001600160a01b031681565b6111986114e5565b6000546001600160a01b039081169116146111c55760405162461bcd60e51b815260040161072090611b0e565b600980546001600160a01b0319166001600160a01b0392909216919091179055565b6111ef6114e5565b6000546001600160a01b0390811691161461121c5760405162461bcd60e51b815260040161072090611b0e565b600b5460405163d543dbeb60e01b81526001600160a01b039091169063d543dbeb90610759908490600401611bbd565b6112546114e5565b6000546001600160a01b039081169116146112815760405162461bcd60e51b815260040161072090611b0e565b60008054600180546001600160a01b03199081166001600160a01b038416179091551690556112b08142611bc6565b600255600080546040516001600160a01b0390911690600080516020611c1a833981519152908390a350565b6112e46114e5565b6000546001600160a01b039081169116146110b05760405162461bcd60e51b815260040161072090611b0e565b6006546001600160a01b031681565b6113286114e5565b6000546001600160a01b039081169116146113555760405162461bcd60e51b815260040161072090611b0e565b600b5460405163ea2f0b3760e01b81526001600160a01b039091169063ea2f0b37906107599084906004016119a6565b7f000000000000000000000000000000000000000000000000000000000000000081565b6004546001600160a01b031681565b6113c06114e5565b6000546001600160a01b039081169116146113ed5760405162461bcd60e51b815260040161072090611b0e565b600b5460405163f0f165af60e01b81526001600160a01b039091169063f0f165af90610759908490600401611bbd565b6114256114e5565b6000546001600160a01b039081169116146114525760405162461bcd60e51b815260040161072090611b0e565b6001600160a01b0381166114785760405162461bcd60e51b815260040161072090611a7b565b600080546040516001600160a01b0380851693921691600080516020611c1a83398151915291a3600080546001600160a01b0319166001600160a01b0392909216919091179055565b600a546001600160a01b031681565b60036020526000908152604090205460ff1681565b3390565b600a546040516370a0823160e01b81526000916001600160a01b0316906370a082319061151a9030906004016119a6565b60206040518083038186803b15801561153257600080fd5b505afa158015611546573d6000803e3d6000fd5b505050506040513d601f19601f8201168201806040525081019061156a919061196b565b600a546004805460405163095ea7b360e01b81529394506001600160a01b039283169363095ea7b3936115a2939216918691016119fa565b602060405180830381600087803b1580156115bc57600080fd5b505af11580156115d0573d6000803e3d6000fd5b505050506040513d601f19601f820116820180604052508101906115f491906118ca565b506004546009546000916001600160a01b039081169163baa2abde91167f00000000000000000000000000000000000000000000000000000000000000008560018030611643426104b0611bc6565b6040518863ffffffff1660e01b815260040161166597969594939291906119ba565b6040805180830381600087803b15801561167e57600080fd5b505af1158015611692573d6000803e3d6000fd5b505050506040513d601f19601f820116820180604052508101906116b69190611983565b604051632e1a7d4d60e01b81529092506001600160a01b037f0000000000000000000000000000000000000000000000000000000000000000169150632e1a7d4d90611706908490600401611bbd565b600060405180830381600087803b15801561172057600080fd5b505af1158015611734573d6000803e3d6000fd5b50506009546040516370a0823160e01b8152600093506001600160a01b0390911691506370a082319061176b9030906004016119a6565b60206040518083038186803b15801561178357600080fd5b505afa158015611797573d6000803e3d6000fd5b505050506040513d601f19601f820116820180604052508101906117bb919061196b565b60095460065460405163a9059cbb60e01b81529293506001600160a01b039182169263a9059cbb926117f392169085906004016119fa565b602060405180830381600087803b15801561180d57600080fd5b505af1158015611821573d6000803e3d6000fd5b505050506040513d601f19601f8201168201806040525081019061184591906118ca565b5060055460405147916001600160a01b03169082156108fc029083906000818181858888f19350505050158015610787573d6000803e3d6000fd5b600060208284031215611891578081fd5b81356001600160a01b03811681146118a7578182fd5b9392505050565b6000602082840312156118bf578081fd5b81356118a781611c0b565b6000602082840312156118db578081fd5b81516118a781611c0b565b600080602083850312156118f8578081fd5b823567ffffffffffffffff8082111561190f578283fd5b818501915085601f830112611922578283fd5b813581811115611930578384fd5b866020828501011115611941578384fd5b60209290920196919550909350505050565b600060208284031215611964578081fd5b5035919050565b60006020828403121561197c578081fd5b5051919050565b60008060408385031215611995578182fd5b505080516020909101519092909150565b6001600160a01b0391909116815260200190565b6001600160a01b039788168152958716602087015260408601949094526060850192909252608084015290921660a082015260c081019190915260e00190565b6001600160a01b03929092168252602082015260400190565b901515815260200190565b6000831515825260206040818401528351806040850152825b81811015611a5357858101830151858201606001528201611a37565b81811115611a645783606083870101525b50601f01601f191692909201606001949350505050565b60208082526026908201527f4f776e61626c653a206e6577206f776e657220697320746865207a65726f206160408201526564647265737360d01b606082015260800190565b6020808252602d908201527f4f6e6c7920436861696e6c696e6b204b6565706572732063616e2063616c6c2060408201526c0706572666f726d55706b65657609c1b606082015260800190565b6020808252818101527f4f776e61626c653a2063616c6c6572206973206e6f7420746865206f776e6572604082015260600190565b6020808252601f908201527f436f6e7472616374206973206c6f636b656420756e74696c2037206461797300604082015260600190565b60208082526023908201527f596f7520646f6e27742068617665207065726d697373696f6e20746f20756e6c6040820152626f636b60e81b606082015260800190565b90815260200190565b60008219821115611bd957611bd9611bf5565b500190565b600082821015611bf057611bf0611bf5565b500390565b634e487b7160e01b600052601160045260246000fd5b801515811461091f57600080fdfe8be0079c531659141344cd1fd0a4f28419497f9722a3daafe3b4186f6b6457e0a264697066735822122034545d59f4e9c1a98262428064f3725ada60d8f3ff0a2c98a059cd1ffc915ebe64736f6c63430008000033",
  "linkReferences": {},
  "deployedLinkReferences": {}
}