{
  "_format": "hh-sol-artifact-1",
  "contractName": "CoinToken",
  "sourceName": "contracts/RenouncedContract.sol",
  "abi": [
    {
      "inputs": [
        {
          "internalType": "string",
          "name": "_NAME",
          "type": "string"
        },
        {
          "internalType": "string",
          "name": "_SYMBOL",
          "type": "string"
        },
        {
          "internalType": "uint256",
          "name": "_DECIMALS",
          "type": "uint256"
        },
        {
          "internalType": "uint256",
          "name": "_supply",
          "type": "uint256"
        },
        {
          "internalType": "uint256",
          "name": "_txFee",
          "type": "uint256"
        },
        {
          "internalType": "uint256",
          "name": "_lpFee",
          "type": "uint256"
        },
        {
          "internalType": "uint256",
          "name": "_MAXAMOUNT",
          "type": "uint256"
        },
        {
          "internalType": "uint256",
          "name": "SELLMAXAMOUNT",
          "type": "uint256"
        },
        {
          "internalType": "address",
          "name": "routerAddress",
          "type": "address"
        },
        {
          "internalType": "address",
          "name": "tokenOwner",
          "type": "address"
        }
      ],
      "stateMutability": "nonpayable",
      "type": "constructor"
    },
    {
      "anonymous": false,
      "inputs": [
        {
          "indexed": true,
          "internalType": "address",
          "name": "owner",
          "type": "address"
        },
        {
          "indexed": true,
          "internalType": "address",
          "name": "spender",
          "type": "address"
        },
        {
          "indexed": false,
          "internalType": "uint256",
          "name": "value",
          "type": "uint256"
        }
      ],
      "name": "Approval",
      "type": "event"
    },
    {
      "anonymous": false,
      "inputs": [
        {
          "indexed": false,
          "internalType": "uint256",
          "name": "minTokensBeforeSwap",
          "type": "uint256"
        }
      ],
      "name": "MinTokensBeforeSwapUpdated",
      "type": "event"
    },
    {
      "anonymous": false,
      "inputs": [
        {
          "indexed": true,
          "internalType": "address",
          "name": "previousOwner",
          "type": "address"
        },
        {
          "indexed": true,
          "internalType": "address",
          "name": "newOwner",
          "type": "address"
        }
      ],
      "name": "OwnershipTransferred",
      "type": "event"
    },
    {
      "anonymous": false,
      "inputs": [
        {
          "indexed": false,
          "internalType": "uint256",
          "name": "tokensSwapped",
          "type": "uint256"
        },
        {
          "indexed": false,
          "internalType": "uint256",
          "name": "ethReceived",
          "type": "uint256"
        },
        {
          "indexed": false,
          "internalType": "uint256",
          "name": "tokensIntoLiqudity",
          "type": "uint256"
        }
      ],
      "name": "SwapAndLiquify",
      "type": "event"
    },
    {
      "anonymous": false,
      "inputs": [
        {
          "indexed": false,
          "internalType": "bool",
          "name": "enabled",
          "type": "bool"
        }
      ],
      "name": "SwapAndLiquifyEnabledUpdated",
      "type": "event"
    },
    {
      "anonymous": false,
      "inputs": [
        {
          "indexed": true,
          "internalType": "address",
          "name": "from",
          "type": "address"
        },
        {
          "indexed": true,
          "internalType": "address",
          "name": "to",
          "type": "address"
        },
        {
          "indexed": false,
          "internalType": "uint256",
          "name": "value",
          "type": "uint256"
        }
      ],
      "name": "Transfer",
      "type": "event"
    },
    {
      "inputs": [],
      "name": "_liquidityFee",
      "outputs": [
        {
          "internalType": "uint256",
          "name": "",
          "type": "uint256"
        }
      ],
      "stateMutability": "view",
      "type": "function"
    },
    {
      "inputs": [],
      "name": "_maxTxAmount",
      "outputs": [
        {
          "internalType": "uint256",
          "name": "",
          "type": "uint256"
        }
      ],
      "stateMutability": "view",
      "type": "function"
    },
    {
      "inputs": [],
      "name": "_owner",
      "outputs": [
        {
          "internalType": "address",
          "name": "",
          "type": "address"
        }
      ],
      "stateMutability": "view",
      "type": "function"
    },
    {
      "inputs": [],
      "name": "_taxFee",
      "outputs": [
        {
          "internalType": "uint256",
          "name": "",
          "type": "uint256"
        }
      ],
      "stateMutability": "view",
      "type": "function"
    },
    {
      "inputs": [
        {
          "internalType": "address",
          "name": "owner",
          "type": "address"
        },
        {
          "internalType": "address",
          "name": "spender",
          "type": "address"
        }
      ],
      "name": "allowance",
      "outputs": [
        {
          "internalType": "uint256",
          "name": "",
          "type": "uint256"
        }
      ],
      "stateMutability": "view",
      "type": "function"
    },
    {
      "inputs": [
        {
          "internalType": "address",
          "name": "spender",
          "type": "address"
        },
        {
          "internalType": "uint256",
          "name": "amount",
          "type": "uint256"
        }
      ],
      "name": "approve",
      "outputs": [
        {
          "internalType": "bool",
          "name": "",
          "type": "bool"
        }
      ],
      "stateMutability": "nonpayable",
      "type": "function"
    },
    {
      "inputs": [
        {
          "internalType": "address",
          "name": "account",
          "type": "address"
        }
      ],
      "name": "balanceOf",
      "outputs": [
        {
          "internalType": "uint256",
          "name": "",
          "type": "uint256"
        }
      ],
      "stateMutability": "view",
      "type": "function"
    },
    {
      "inputs": [],
      "name": "claimTokens",
      "outputs": [],
      "stateMutability": "nonpayable",
      "type": "function"
    },
    {
      "inputs": [],
      "name": "decimals",
      "outputs": [
        {
          "internalType": "uint256",
          "name": "",
          "type": "uint256"
        }
      ],
      "stateMutability": "view",
      "type": "function"
    },
    {
      "inputs": [
        {
          "internalType": "address",
          "name": "spender",
          "type": "address"
        },
        {
          "internalType": "uint256",
          "name": "subtractedValue",
          "type": "uint256"
        }
      ],
      "name": "decreaseAllowance",
      "outputs": [
        {
          "internalType": "bool",
          "name": "",
          "type": "bool"
        }
      ],
      "stateMutability": "nonpayable",
      "type": "function"
    },
    {
      "inputs": [
        {
          "internalType": "uint256",
          "name": "tAmount",
          "type": "uint256"
        }
      ],
      "name": "deliver",
      "outputs": [],
      "stateMutability": "nonpayable",
      "type": "function"
    },
    {
      "inputs": [
        {
          "internalType": "address",
          "name": "account",
          "type": "address"
        }
      ],
      "name": "excludeFromFee",
      "outputs": [],
      "stateMutability": "nonpayable",
      "type": "function"
    },
    {
      "inputs": [
        {
          "internalType": "address",
          "name": "account",
          "type": "address"
        }
      ],
      "name": "excludeFromReward",
      "outputs": [],
      "stateMutability": "nonpayable",
      "type": "function"
    },
    {
      "inputs": [],
      "name": "getUnlockTime",
      "outputs": [
        {
          "internalType": "uint256",
          "name": "",
          "type": "uint256"
        }
      ],
      "stateMutability": "view",
      "type": "function"
    },
    {
      "inputs": [
        {
          "internalType": "address",
          "name": "account",
          "type": "address"
        }
      ],
      "name": "includeInFee",
      "outputs": [],
      "stateMutability": "nonpayable",
      "type": "function"
    },
    {
      "inputs": [
        {
          "internalType": "address",
          "name": "account",
          "type": "address"
        }
      ],
      "name": "includeInReward",
      "outputs": [],
      "stateMutability": "nonpayable",
      "type": "function"
    },
    {
      "inputs": [
        {
          "internalType": "address",
          "name": "spender",
          "type": "address"
        },
        {
          "internalType": "uint256",
          "name": "addedValue",
          "type": "uint256"
        }
      ],
      "name": "increaseAllowance",
      "outputs": [
        {
          "internalType": "bool",
          "name": "",
          "type": "bool"
        }
      ],
      "stateMutability": "nonpayable",
      "type": "function"
    },
    {
      "inputs": [
        {
          "internalType": "address",
          "name": "account",
          "type": "address"
        }
      ],
      "name": "isExcludedFromFee",
      "outputs": [
        {
          "internalType": "bool",
          "name": "",
          "type": "bool"
        }
      ],
      "stateMutability": "view",
      "type": "function"
    },
    {
      "inputs": [
        {
          "internalType": "address",
          "name": "account",
          "type": "address"
        }
      ],
      "name": "isExcludedFromReward",
      "outputs": [
        {
          "internalType": "bool",
          "name": "",
          "type": "bool"
        }
      ],
      "stateMutability": "view",
      "type": "function"
    },
    {
      "inputs": [
        {
          "internalType": "uint256",
          "name": "time",
          "type": "uint256"
        }
      ],
      "name": "lock",
      "outputs": [],
      "stateMutability": "nonpayable",
      "type": "function"
    },
    {
      "inputs": [],
      "name": "name",
      "outputs": [
        {
          "internalType": "string",
          "name": "",
          "type": "string"
        }
      ],
      "stateMutability": "view",
      "type": "function"
    },
    {
      "inputs": [],
      "name": "numTokensSellToAddToLiquidity",
      "outputs": [
        {
          "internalType": "uint256",
          "name": "",
          "type": "uint256"
        }
      ],
      "stateMutability": "view",
      "type": "function"
    },
    {
      "inputs": [],
      "name": "owner",
      "outputs": [
        {
          "internalType": "address",
          "name": "",
          "type": "address"
        }
      ],
      "stateMutability": "view",
      "type": "function"
    },
    {
      "inputs": [
        {
          "internalType": "uint256",
          "name": "tAmount",
          "type": "uint256"
        },
        {
          "internalType": "bool",
          "name": "deductTransferFee",
          "type": "bool"
        }
      ],
      "name": "reflectionFromToken",
      "outputs": [
        {
          "internalType": "uint256",
          "name": "",
          "type": "uint256"
        }
      ],
      "stateMutability": "view",
      "type": "function"
    },
    {
      "inputs": [],
      "name": "renounceOwnership",
      "outputs": [],
      "stateMutability": "nonpayable",
      "type": "function"
    },
    {
      "inputs": [
        {
          "internalType": "uint256",
          "name": "liquidityFee",
          "type": "uint256"
        }
      ],
      "name": "setLiquidityFeePercent",
      "outputs": [],
      "stateMutability": "nonpayable",
      "type": "function"
    },
    {
      "inputs": [
        {
          "internalType": "uint256",
          "name": "maxTxPercent",
          "type": "uint256"
        }
      ],
      "name": "setMaxTxPercent",
      "outputs": [],
      "stateMutability": "nonpayable",
      "type": "function"
    },
    {
      "inputs": [
        {
          "internalType": "uint256",
          "name": "swapNumber",
          "type": "uint256"
        }
      ],
      "name": "setNumTokensSellToAddToLiquidity",
      "outputs": [],
      "stateMutability": "nonpayable",
      "type": "function"
    },
    {
      "inputs": [
        {
          "internalType": "bool",
          "name": "_enabled",
          "type": "bool"
        }
      ],
      "name": "setSwapAndLiquifyEnabled",
      "outputs": [],
      "stateMutability": "nonpayable",
      "type": "function"
    },
    {
      "inputs": [
        {
          "internalType": "uint256",
          "name": "taxFee",
          "type": "uint256"
        }
      ],
      "name": "setTaxFeePercent",
      "outputs": [],
      "stateMutability": "nonpayable",
      "type": "function"
    },
    {
      "inputs": [],
      "name": "swapAndLiquifyEnabled",
      "outputs": [
        {
          "internalType": "bool",
          "name": "",
          "type": "bool"
        }
      ],
      "stateMutability": "view",
      "type": "function"
    },
    {
      "inputs": [],
      "name": "symbol",
      "outputs": [
        {
          "internalType": "string",
          "name": "",
          "type": "string"
        }
      ],
      "stateMutability": "view",
      "type": "function"
    },
    {
      "inputs": [
        {
          "internalType": "uint256",
          "name": "rAmount",
          "type": "uint256"
        }
      ],
      "name": "tokenFromReflection",
      "outputs": [
        {
          "internalType": "uint256",
          "name": "",
          "type": "uint256"
        }
      ],
      "stateMutability": "view",
      "type": "function"
    },
    {
      "inputs": [],
      "name": "totalFees",
      "outputs": [
        {
          "internalType": "uint256",
          "name": "",
          "type": "uint256"
        }
      ],
      "stateMutability": "view",
      "type": "function"
    },
    {
      "inputs": [],
      "name": "totalSupply",
      "outputs": [
        {
          "internalType": "uint256",
          "name": "",
          "type": "uint256"
        }
      ],
      "stateMutability": "view",
      "type": "function"
    },
    {
      "inputs": [
        {
          "internalType": "address",
          "name": "recipient",
          "type": "address"
        },
        {
          "internalType": "uint256",
          "name": "amount",
          "type": "uint256"
        }
      ],
      "name": "transfer",
      "outputs": [
        {
          "internalType": "bool",
          "name": "",
          "type": "bool"
        }
      ],
      "stateMutability": "nonpayable",
      "type": "function"
    },
    {
      "inputs": [
        {
          "internalType": "address",
          "name": "sender",
          "type": "address"
        },
        {
          "internalType": "address",
          "name": "recipient",
          "type": "address"
        },
        {
          "internalType": "uint256",
          "name": "amount",
          "type": "uint256"
        }
      ],
      "name": "transferFrom",
      "outputs": [
        {
          "internalType": "bool",
          "name": "",
          "type": "bool"
        }
      ],
      "stateMutability": "nonpayable",
      "type": "function"
    },
    {
      "inputs": [
        {
          "internalType": "address",
          "name": "newOwner",
          "type": "address"
        }
      ],
      "name": "transferOwnership",
      "outputs": [],
      "stateMutability": "nonpayable",
      "type": "function"
    },
    {
      "inputs": [],
      "name": "uniswapV2Pair",
      "outputs": [
        {
          "internalType": "address",
          "name": "",
          "type": "address"
        }
      ],
      "stateMutability": "view",
      "type": "function"
    },
    {
      "inputs": [],
      "name": "uniswapV2Router",
      "outputs": [
        {
          "internalType": "contract IUniswapV2Router02",
          "name": "",
          "type": "address"
        }
      ],
      "stateMutability": "view",
      "type": "function"
    },
    {
      "inputs": [],
      "name": "unlock",
      "outputs": [],
      "stateMutability": "nonpayable",
      "type": "function"
    },
    {
      "stateMutability": "payable",
      "type": "receive"
    }
  ],
  "bytecode": "0x60c06040526013805461ff0019166101001790553480156200002057600080fd5b506040516200345c3803806200345c8339810160408190526200004391620004d2565b89516200005890600c9060208d019062000340565b5088516200006e90600d9060208c019062000340565b50600e8890556200008188600a6200060a565b6200008d9088620006f2565b6009819055620000a0906000196200076b565b620000ae9060001962000714565b600a908155600f879055601186905560108790556012869055600e54620000d5916200060a565b620000e19085620006f2565b601455600e54620000f490600a6200060a565b620001009084620006f2565b601555600a546001600160a01b0380831660009081526003602090815260409182902093909355805163c45a015560e01b8152905185939284169263c45a01559260048082019391829003018186803b1580156200015d57600080fd5b505afa15801562000172573d6000803e3d6000fd5b505050506040513d601f19601f82011682018060405250810190620001989190620004ae565b6001600160a01b031663c9c6539630836001600160a01b031663ad5c46486040518163ffffffff1660e01b815260040160206040518083038186803b158015620001e157600080fd5b505afa158015620001f6573d6000803e3d6000fd5b505050506040513d601f19601f820116820180604052508101906200021c9190620004ae565b6040518363ffffffff1660e01b81526004016200023b9291906200059a565b602060405180830381600087803b1580156200025657600080fd5b505af11580156200026b573d6000803e3d6000fd5b505050506040513d601f19601f82011682018060405250810190620002919190620004ae565b6001600160601b0319606091821b811660a0529082901b166080526001600160a01b038216600081815260066020526040808220805460ff1990811660019081179092553084528284208054909116909117905581546001600160a01b0319168317825560095490517fddf252ad1be2c89b69c2b068fc378daa952ba7f163c4a11628f55a4df523b3ef916200032791620005b4565b60405180910390a35050505050505050505050620007b8565b8280546200034e906200072e565b90600052602060002090601f016020900481019282620003725760008555620003bd565b82601f106200038d57805160ff1916838001178555620003bd565b82800160010185558215620003bd579182015b82811115620003bd578251825591602001919060010190620003a0565b50620003cb929150620003cf565b5090565b5b80821115620003cb5760008155600101620003d0565b80516001600160a01b0381168114620003fe57600080fd5b919050565b600082601f83011262000414578081fd5b81516001600160401b0380821115620004315762000431620007a2565b6040516020601f8401601f1916820181018381118382101715620004595762000459620007a2565b604052838252858401810187101562000470578485fd5b8492505b8383101562000493578583018101518284018201529182019162000474565b83831115620004a457848185840101525b5095945050505050565b600060208284031215620004c0578081fd5b620004cb82620003e6565b9392505050565b6000806000806000806000806000806101408b8d031215620004f2578586fd5b8a516001600160401b038082111562000509578788fd5b620005178e838f0162000403565b9b5060208d01519150808211156200052d578788fd5b506200053c8d828e0162000403565b99505060408b0151975060608b0151965060808b0151955060a08b0151945060c08b0151935060e08b01519250620005786101008c01620003e6565b9150620005896101208c01620003e6565b90509295989b9194979a5092959850565b6001600160a01b0392831681529116602082015260400190565b90815260200190565b80825b6001808611620005d1575062000601565b818704821115620005e657620005e66200078c565b80861615620005f457918102915b9490941c938002620005c0565b94509492505050565b6000620004cb60001984846000826200062657506001620004cb565b816200063557506000620004cb565b81600181146200064e576002811462000659576200068d565b6001915050620004cb565b60ff8411156200066d576200066d6200078c565b6001841b9150848211156200068657620006866200078c565b50620004cb565b5060208310610133831016604e8410600b8410161715620006c5575081810a83811115620006bf57620006bf6200078c565b620004cb565b620006d48484846001620005bd565b808604821115620006e957620006e96200078c565b02949350505050565b60008160001904831182151516156200070f576200070f6200078c565b500290565b6000828210156200072957620007296200078c565b500390565b6002810460018216806200074357607f821691505b602082108114156200076557634e487b7160e01b600052602260045260246000fd5b50919050565b6000826200078757634e487b7160e01b81526012600452602481fd5b500690565b634e487b7160e01b600052601160045260246000fd5b634e487b7160e01b600052604160045260246000fd5b60805160601c60a05160601c612c4e6200080e60003960008181610ce7015261158b0152600081816107ea01528181611c9201528181611d6801528181611da401528181611e160152611e3d0152612c4e6000f3fe60806040526004361061024a5760003560e01c8063602bc62b11610139578063a69df4b5116100b6578063d543dbeb1161007a578063d543dbeb1461062f578063dd4670641461064f578063dd62ed3e1461066f578063ea2f0b371461068f578063f0f165af146106af578063f2fde38b146106cf57610251565b8063a69df4b5146105b0578063a9059cbb146105c5578063b2bdfa7b146105e5578063c49b9a80146105fa578063d12a76881461061a57610251565b806388f82020116100fd57806388f82020146105265780638da5cb5b146105465780638ee88c531461055b57806395d89b411461057b578063a457c2d71461059057610251565b8063602bc62b146104b25780636bc87c3a146104c757806370a08231146104dc578063715018a6146104fc5780637d1db4a51461051157610251565b806339509351116101c757806348c54b9d1161018b57806348c54b9d1461043357806349bd5a5e146104485780634a74bb021461045d57806352390c02146104725780635342acb41461049257610251565b8063395093511461039e5780633b124fe7146103be5780633bd5d173146103d3578063437823ec146103f35780634549b0391461041357610251565b806318160ddd1161020e57806318160ddd1461031457806323b872dd146103295780632d83811914610349578063313ce567146103695780633685d4191461037e57610251565b8063061c82d01461025657806306fdde0314610278578063095ea7b3146102a357806313114a9d146102d05780631694505e146102f257610251565b3661025157005b600080fd5b34801561026257600080fd5b506102766102713660046123ec565b6106ef565b005b34801561028457600080fd5b5061028d610732565b60405161029a91906124b6565b60405180910390f35b3480156102af57600080fd5b506102c36102be3660046123a7565b6107c4565b60405161029a91906124ab565b3480156102dc57600080fd5b506102e56107e2565b60405161029a9190612919565b3480156102fe57600080fd5b506103076107e8565b60405161029a919061245c565b34801561032057600080fd5b506102e561080c565b34801561033557600080fd5b506102c3610344366004612367565b610812565b34801561035557600080fd5b506102e56103643660046123ec565b61089a565b34801561037557600080fd5b506102e56108dd565b34801561038a57600080fd5b506102766103993660046122f7565b6108e3565b3480156103aa57600080fd5b506102c36103b93660046123a7565b610aae565b3480156103ca57600080fd5b506102e5610afc565b3480156103df57600080fd5b506102766103ee3660046123ec565b610b02565b3480156103ff57600080fd5b5061027661040e3660046122f7565b610bbd565b34801561041f57600080fd5b506102e561042e366004612404565b610c16565b34801561043f57600080fd5b50610276610c73565b34801561045457600080fd5b50610307610ce5565b34801561046957600080fd5b506102c3610d09565b34801561047e57600080fd5b5061027661048d3660046122f7565b610d17565b34801561049e57600080fd5b506102c36104ad3660046122f7565b610e45565b3480156104be57600080fd5b506102e5610e63565b3480156104d357600080fd5b506102e5610e69565b3480156104e857600080fd5b506102e56104f73660046122f7565b610e6f565b34801561050857600080fd5b50610276610ed1565b34801561051d57600080fd5b506102e5610f3e565b34801561053257600080fd5b506102c36105413660046122f7565b610f44565b34801561055257600080fd5b50610307610f62565b34801561056757600080fd5b506102766105763660046123ec565b610f71565b34801561058757600080fd5b5061028d610fab565b34801561059c57600080fd5b506102c36105ab3660046123a7565b610fba565b3480156105bc57600080fd5b50610276611022565b3480156105d157600080fd5b506102c36105e03660046123a7565b6110bc565b3480156105f157600080fd5b506103076110d0565b34801561060657600080fd5b506102766106153660046123d2565b6110df565b34801561062657600080fd5b506102e5611162565b34801561063b57600080fd5b5061027661064a3660046123ec565b611168565b34801561065b57600080fd5b5061027661066a3660046123ec565b6111bb565b34801561067b57600080fd5b506102e561068a36600461232f565b61124b565b34801561069b57600080fd5b506102766106aa3660046122f7565b611276565b3480156106bb57600080fd5b506102766106ca3660046123ec565b6112cc565b3480156106db57600080fd5b506102766106ea3660046122f7565b61131f565b6106f76113c3565b6000546001600160a01b0390811691161461072d5760405162461bcd60e51b81526004016107249061274c565b60405180910390fd5b600f55565b6060600c805461074190612b2a565b80601f016020809104026020016040519081016040528092919081815260200182805461076d90612b2a565b80156107ba5780601f1061078f576101008083540402835291602001916107ba565b820191906000526020600020905b81548152906001019060200180831161079d57829003601f168201915b5050505050905090565b60006107d86107d16113c3565b84846113c7565b5060015b92915050565b600b5490565b7f000000000000000000000000000000000000000000000000000000000000000081565b60095490565b600061081f84848461147b565b61088f8461082b6113c3565b61088a85604051806060016040528060288152602001612bac602891396001600160a01b038a166000908152600560205260408120906108696113c3565b6001600160a01b031681526020810191909152604001600020549190611645565b6113c7565b5060015b9392505050565b6000600a548211156108be5760405162461bcd60e51b81526004016107249061254c565b60006108c861167f565b90506108d483826116a2565b9150505b919050565b600e5490565b6108eb6113c3565b6000546001600160a01b039081169116146109185760405162461bcd60e51b81526004016107249061274c565b6001600160a01b03811660009081526007602052604090205460ff166109505760405162461bcd60e51b815260040161072490612655565b60005b600854811015610aaa57816001600160a01b03166008828154811061098857634e487b7160e01b600052603260045260246000fd5b6000918252602090912001546001600160a01b03161415610a9857600880546109b390600190612b13565b815481106109d157634e487b7160e01b600052603260045260246000fd5b600091825260209091200154600880546001600160a01b039092169183908110610a0b57634e487b7160e01b600052603260045260246000fd5b600091825260208083209190910180546001600160a01b0319166001600160a01b039485161790559184168152600482526040808220829055600790925220805460ff191690556008805480610a7157634e487b7160e01b600052603160045260246000fd5b600082815260209020810160001990810180546001600160a01b0319169055019055610aaa565b80610aa281612b65565b915050610953565b5050565b60006107d8610abb6113c3565b8461088a8560056000610acc6113c3565b6001600160a01b03908116825260208083019390935260409182016000908120918c1681529252902054906116e4565b600f5481565b6000610b0c6113c3565b6001600160a01b03811660009081526007602052604090205490915060ff1615610b485760405162461bcd60e51b81526004016107249061288a565b6000610b5383611713565b505050506001600160a01b038416600090815260036020526040902054919250610b7f91905082611762565b6001600160a01b038316600090815260036020526040902055600a54610ba59082611762565b600a55600b54610bb590846116e4565b600b55505050565b610bc56113c3565b6000546001600160a01b03908116911614610bf25760405162461bcd60e51b81526004016107249061274c565b6001600160a01b03166000908152600660205260409020805460ff19166001179055565b6000600954831115610c3a5760405162461bcd60e51b81526004016107249061268c565b81610c59576000610c4a84611713565b509395506107dc945050505050565b6000610c6484611713565b509295506107dc945050505050565b610c7b6113c3565b6000546001600160a01b03908116911614610ca85760405162461bcd60e51b81526004016107249061274c565b600080546040516001600160a01b03909116914780156108fc02929091818181858888f19350505050158015610ce2573d6000803e3d6000fd5b50565b7f000000000000000000000000000000000000000000000000000000000000000081565b601354610100900460ff1681565b610d1f6113c3565b6000546001600160a01b03908116911614610d4c5760405162461bcd60e51b81526004016107249061274c565b6001600160a01b03811660009081526007602052604090205460ff1615610d855760405162461bcd60e51b815260040161072490612655565b6001600160a01b03811660009081526003602052604090205415610ddf576001600160a01b038116600090815260036020526040902054610dc59061089a565b6001600160a01b0382166000908152600460205260409020555b6001600160a01b03166000818152600760205260408120805460ff191660019081179091556008805491820181559091527ff3f7a9fe364faab93b216da50a3214154f22a0a2b415b23a84c8169e8b636ee30180546001600160a01b0319169091179055565b6001600160a01b031660009081526006602052604090205460ff1690565b60025490565b60115481565b6001600160a01b03811660009081526007602052604081205460ff1615610eaf57506001600160a01b0381166000908152600460205260409020546108d8565b6001600160a01b0382166000908152600360205260409020546107dc9061089a565b610ed96113c3565b6000546001600160a01b03908116911614610f065760405162461bcd60e51b81526004016107249061274c565b600080546040516001600160a01b0390911690600080516020612bd4833981519152908390a3600080546001600160a01b0319169055565b60145481565b6001600160a01b031660009081526007602052604090205460ff1690565b6000546001600160a01b031690565b610f796113c3565b6000546001600160a01b03908116911614610fa65760405162461bcd60e51b81526004016107249061274c565b601155565b6060600d805461074190612b2a565b60006107d8610fc76113c3565b8461088a85604051806060016040528060258152602001612bf46025913960056000610ff16113c3565b6001600160a01b03908116825260208083019390935260409182016000908120918d16815292529020549190611645565b6001546001600160a01b0316331461104c5760405162461bcd60e51b8152600401610724906128d6565b600254421161106d5760405162461bcd60e51b815260040161072490612853565b600154600080546040516001600160a01b039384169390911691600080516020612bd483398151915291a3600154600080546001600160a01b0319166001600160a01b03909216919091179055565b60006107d86110c96113c3565b848461147b565b6000546001600160a01b031681565b6110e76113c3565b6000546001600160a01b039081169116146111145760405162461bcd60e51b81526004016107249061274c565b6013805461ff001916610100831515021790556040517f53726dfcaf90650aa7eb35524f4d3220f07413c8d6cb404cc8c18bf5591bc159906111579083906124ab565b60405180910390a150565b60155481565b6111706113c3565b6000546001600160a01b0390811691161461119d5760405162461bcd60e51b81526004016107249061274c565b600e546111ab90600a612a26565b6111b59082612af4565b60145550565b6111c36113c3565b6000546001600160a01b039081169116146111f05760405162461bcd60e51b81526004016107249061274c565b60008054600180546001600160a01b03199081166001600160a01b0384161790915516905561121f81426129a8565b600255600080546040516001600160a01b0390911690600080516020612bd4833981519152908390a350565b6001600160a01b03918216600090815260056020908152604080832093909416825291909152205490565b61127e6113c3565b6000546001600160a01b039081169116146112ab5760405162461bcd60e51b81526004016107249061274c565b6001600160a01b03166000908152600660205260409020805460ff19169055565b6112d46113c3565b6000546001600160a01b039081169116146113015760405162461bcd60e51b81526004016107249061274c565b600e5461130f90600a612a26565b6113199082612af4565b60155550565b6113276113c3565b6000546001600160a01b039081169116146113545760405162461bcd60e51b81526004016107249061274c565b6001600160a01b03811661137a5760405162461bcd60e51b815260040161072490612596565b600080546040516001600160a01b0380851693921691600080516020612bd483398151915291a3600080546001600160a01b0319166001600160a01b0392909216919091179055565b3390565b6001600160a01b0383166113ed5760405162461bcd60e51b81526004016107249061280f565b6001600160a01b0382166114135760405162461bcd60e51b8152600401610724906125dc565b6001600160a01b0380841660008181526005602090815260408083209487168084529490915290819020849055517f8c5be1e5ebec7d5bd14f71427d1e84f3dd0314c0f7b2291e5b200ac8c7c3b9259061146e908590612919565b60405180910390a3505050565b6001600160a01b0383166114a15760405162461bcd60e51b8152600401610724906127ca565b6001600160a01b0382166114c75760405162461bcd60e51b815260040161072490612509565b600081116114e75760405162461bcd60e51b815260040161072490612781565b6114ef610f62565b6001600160a01b0316836001600160a01b0316141580156115295750611513610f62565b6001600160a01b0316826001600160a01b031614155b15611550576014548111156115505760405162461bcd60e51b8152600401610724906126c3565b600061155b30610e6f565b9050601454811061156b57506014545b60155481108015908190611582575060135460ff16155b80156115c057507f00000000000000000000000000000000000000000000000000000000000000006001600160a01b0316856001600160a01b031614155b80156115d35750601354610100900460ff165b156115e65760155491506115e6826117a4565b6001600160a01b03851660009081526006602052604090205460019060ff168061162857506001600160a01b03851660009081526006602052604090205460ff165b15611631575060005b61163d8686868461183c565b505050505050565b600081848411156116695760405162461bcd60e51b815260040161072491906124b6565b5060006116768486612b13565b95945050505050565b600080600061168c6119b0565b909250905061169b82826116a2565b9250505090565b600061089383836040518060400160405280601a81526020017f536166654d6174683a206469766973696f6e206279207a65726f000000000000815250611b6d565b6000806116f183856129a8565b9050838110156108935760405162461bcd60e51b81526004016107249061261e565b600080600080600080600080600061172a8a611b9b565b92509250925060008060006117488d868661174361167f565b611bdd565b919f909e50909c50959a5093985091965092945050505050565b600061089383836040518060400160405280601e81526020017f536166654d6174683a207375627472616374696f6e206f766572666c6f770000815250611645565b6013805460ff1916600117905560006117be8260026116a2565b905060006117cc8383611762565b9050476117d883611c2d565b60006117e44783611762565b90506117f08382611e10565b7f17bbfb9a6069321b6ded73bd96327c9e6b7212a5cd51ff219cd61370acafb56184828560405161182393929190612992565b60405180910390a150506013805460ff19169055505050565b8061184957611849611ef3565b6001600160a01b03841660009081526007602052604090205460ff16801561188a57506001600160a01b03831660009081526007602052604090205460ff16155b1561189f5761189a848484611f25565b61199d565b6001600160a01b03841660009081526007602052604090205460ff161580156118e057506001600160a01b03831660009081526007602052604090205460ff165b156118f05761189a848484612049565b6001600160a01b03841660009081526007602052604090205460ff1615801561193257506001600160a01b03831660009081526007602052604090205460ff16155b156119425761189a8484846120f2565b6001600160a01b03841660009081526007602052604090205460ff16801561198257506001600160a01b03831660009081526007602052604090205460ff165b156119925761189a848484612136565b61199d8484846120f2565b806119aa576119aa6121a9565b50505050565b600a546009546000918291825b600854811015611b3b578260036000600884815481106119ed57634e487b7160e01b600052603260045260246000fd5b60009182526020808320909101546001600160a01b031683528201929092526040019020541180611a665750816004600060088481548110611a3f57634e487b7160e01b600052603260045260246000fd5b60009182526020808320909101546001600160a01b03168352820192909252604001902054115b15611a7d57600a5460095494509450505050611b69565b611ad16003600060088481548110611aa557634e487b7160e01b600052603260045260246000fd5b60009182526020808320909101546001600160a01b031683528201929092526040019020548490611762565b9250611b276004600060088481548110611afb57634e487b7160e01b600052603260045260246000fd5b60009182526020808320909101546001600160a01b031683528201929092526040019020548390611762565b915080611b3381612b65565b9150506119bd565b50600954600a54611b4b916116a2565b821015611b6357600a54600954935093505050611b69565b90925090505b9091565b60008183611b8e5760405162461bcd60e51b815260040161072491906124b6565b50600061167684866129c0565b600080600080611baa856121b7565b90506000611bb7866121d9565b90506000611bcf82611bc98986611762565b90611762565b979296509094509092505050565b6000808080611bec88866121f5565b90506000611bfa88876121f5565b90506000611c0888886121f5565b90506000611c1a82611bc98686611762565b939b939a50919850919650505050505050565b6040805160028082526060820183526000926020830190803683370190505090503081600081518110611c7057634e487b7160e01b600052603260045260246000fd5b60200260200101906001600160a01b031690816001600160a01b0316815250507f00000000000000000000000000000000000000000000000000000000000000006001600160a01b031663ad5c46486040518163ffffffff1660e01b815260040160206040518083038186803b158015611ce957600080fd5b505afa158015611cfd573d6000803e3d6000fd5b505050506040513d601f19601f82011682018060405250810190611d219190612313565b81600181518110611d4257634e487b7160e01b600052603260045260246000fd5b60200260200101906001600160a01b031690816001600160a01b031681525050611d8d307f0000000000000000000000000000000000000000000000000000000000000000846113c7565b60405163791ac94760e01b81526001600160a01b037f0000000000000000000000000000000000000000000000000000000000000000169063791ac94790611de2908590600090869030904290600401612922565b600060405180830381600087803b158015611dfc57600080fd5b505af115801561163d573d6000803e3d6000fd5b611e3b307f0000000000000000000000000000000000000000000000000000000000000000846113c7565b7f00000000000000000000000000000000000000000000000000000000000000006001600160a01b031663f305d719823085600080611e78610f62565b426040518863ffffffff1660e01b8152600401611e9a96959493929190612470565b6060604051808303818588803b158015611eb357600080fd5b505af1158015611ec7573d6000803e3d6000fd5b50505050506040513d601f19601f82011682018060405250810190611eec919061242f565b5050505050565b600f54158015611f035750601154155b15611f0d57611f23565b600f805460105560118054601255600091829055555b565b600080600080600080611f3787611713565b6001600160a01b038f16600090815260046020526040902054959b50939950919750955093509150611f699088611762565b6001600160a01b038a16600090815260046020908152604080832093909355600390522054611f989087611762565b6001600160a01b03808b1660009081526003602052604080822093909355908a1681522054611fc790866116e4565b6001600160a01b038916600090815260036020526040902055611fe98161223a565b611ff384836122c3565b876001600160a01b0316896001600160a01b03167fddf252ad1be2c89b69c2b068fc378daa952ba7f163c4a11628f55a4df523b3ef856040516120369190612919565b60405180910390a3505050505050505050565b60008060008060008061205b87611713565b6001600160a01b038f16600090815260036020526040902054959b5093995091975095509350915061208d9087611762565b6001600160a01b03808b16600090815260036020908152604080832094909455918b168152600490915220546120c390846116e4565b6001600160a01b038916600090815260046020908152604080832093909355600390522054611fc790866116e4565b60008060008060008061210487611713565b6001600160a01b038f16600090815260036020526040902054959b50939950919750955093509150611f989087611762565b60008060008060008061214887611713565b6001600160a01b038f16600090815260046020526040902054959b5093995091975095509350915061217a9088611762565b6001600160a01b038a1660009081526004602090815260408083209390935560039052205461208d9087611762565b601054600f55601254601155565b60006107dc60646121d3600f54856121f590919063ffffffff16565b906116a2565b60006107dc60646121d3601154856121f590919063ffffffff16565b600082612204575060006107dc565b60006122108385612af4565b90508261221d85836129c0565b146108935760405162461bcd60e51b81526004016107249061270b565b600061224461167f565b9050600061225283836121f5565b3060009081526003602052604090205490915061226f90826116e4565b3060009081526003602090815260408083209390935560079052205460ff16156122be57306000908152600460205260409020546122ad90846116e4565b306000908152600460205260409020555b505050565b600a546122d09083611762565b600a55600b546122e090826116e4565b600b555050565b803580151581146108d857600080fd5b600060208284031215612308578081fd5b813561089381612b96565b600060208284031215612324578081fd5b815161089381612b96565b60008060408385031215612341578081fd5b823561234c81612b96565b9150602083013561235c81612b96565b809150509250929050565b60008060006060848603121561237b578081fd5b833561238681612b96565b9250602084013561239681612b96565b929592945050506040919091013590565b600080604083850312156123b9578182fd5b82356123c481612b96565b946020939093013593505050565b6000602082840312156123e3578081fd5b610893826122e7565b6000602082840312156123fd578081fd5b5035919050565b60008060408385031215612416578182fd5b82359150612426602084016122e7565b90509250929050565b600080600060608486031215612443578283fd5b8351925060208401519150604084015190509250925092565b6001600160a01b0391909116815260200190565b6001600160a01b039687168152602081019590955260408501939093526060840191909152909216608082015260a081019190915260c00190565b901515815260200190565b6000602080835283518082850152825b818110156124e2578581018301518582016040015282016124c6565b818111156124f35783604083870101525b50601f01601f1916929092016040019392505050565b60208082526023908201527f45524332303a207472616e7366657220746f20746865207a65726f206164647260408201526265737360e81b606082015260800190565b6020808252602a908201527f416d6f756e74206d757374206265206c657373207468616e20746f74616c207260408201526965666c656374696f6e7360b01b606082015260800190565b60208082526026908201527f4f776e61626c653a206e6577206f776e657220697320746865207a65726f206160408201526564647265737360d01b606082015260800190565b60208082526022908201527f45524332303a20617070726f766520746f20746865207a65726f206164647265604082015261737360f01b606082015260800190565b6020808252601b908201527f536166654d6174683a206164646974696f6e206f766572666c6f770000000000604082015260600190565b6020808252601b908201527f4163636f756e7420697320616c7265616479206578636c756465640000000000604082015260600190565b6020808252601f908201527f416d6f756e74206d757374206265206c657373207468616e20737570706c7900604082015260600190565b60208082526028908201527f5472616e7366657220616d6f756e74206578636565647320746865206d6178546040820152673c20b6b7bab73a1760c11b606082015260800190565b60208082526021908201527f536166654d6174683a206d756c7469706c69636174696f6e206f766572666c6f6040820152607760f81b606082015260800190565b6020808252818101527f4f776e61626c653a2063616c6c6572206973206e6f7420746865206f776e6572604082015260600190565b60208082526029908201527f5472616e7366657220616d6f756e74206d7573742062652067726561746572206040820152687468616e207a65726f60b81b606082015260800190565b60208082526025908201527f45524332303a207472616e736665722066726f6d20746865207a65726f206164604082015264647265737360d81b606082015260800190565b60208082526024908201527f45524332303a20617070726f76652066726f6d20746865207a65726f206164646040820152637265737360e01b606082015260800190565b6020808252601f908201527f436f6e7472616374206973206c6f636b656420756e74696c2037206461797300604082015260600190565b6020808252602c908201527f4578636c75646564206164647265737365732063616e6e6f742063616c6c207460408201526b3434b990333ab731ba34b7b760a11b606082015260800190565b60208082526023908201527f596f7520646f6e27742068617665207065726d697373696f6e20746f20756e6c6040820152626f636b60e81b606082015260800190565b90815260200190565b600060a082018783526020878185015260a0604085015281875180845260c0860191508289019350845b818110156129715784516001600160a01b03168352938301939183019160010161294c565b50506001600160a01b03969096166060850152505050608001529392505050565b9283526020830191909152604082015260600190565b600082198211156129bb576129bb612b80565b500190565b6000826129db57634e487b7160e01b81526012600452602481fd5b500490565b80825b60018086116129f25750612a1d565b818704821115612a0457612a04612b80565b80861615612a1157918102915b9490941c9380026129e3565b94509492505050565b60006108936000198484600082612a3f57506001610893565b81612a4c57506000610893565b8160018114612a625760028114612a6c57612a99565b6001915050610893565b60ff841115612a7d57612a7d612b80565b6001841b915084821115612a9357612a93612b80565b50610893565b5060208310610133831016604e8410600b8410161715612acc575081810a83811115612ac757612ac7612b80565b610893565b612ad984848460016129e0565b808604821115612aeb57612aeb612b80565b02949350505050565b6000816000190483118215151615612b0e57612b0e612b80565b500290565b600082821015612b2557612b25612b80565b500390565b600281046001821680612b3e57607f821691505b60208210811415612b5f57634e487b7160e01b600052602260045260246000fd5b50919050565b6000600019821415612b7957612b79612b80565b5060010190565b634e487b7160e01b600052601160045260246000fd5b6001600160a01b0381168114610ce257600080fdfe45524332303a207472616e7366657220616d6f756e74206578636565647320616c6c6f77616e63658be0079c531659141344cd1fd0a4f28419497f9722a3daafe3b4186f6b6457e045524332303a2064656372656173656420616c6c6f77616e63652062656c6f77207a65726fa2646970667358221220c17209043cf0e40f13558c62932f094c3a2bb25622889a0e939e0f97bac1f02c64736f6c63430008000033",
  "linkReferences": {},
  "deployedLinkReferences": {}
}