{
  "_format": "hh-sol-artifact-1",
  "contractName": "CoinToken",
  "sourceName": "contracts/RenouncedContract.sol",
  "abi": [
    {
      "inputs": [
        {
          "internalType": "string",
          "name": "_NAME",
          "type": "string"
        },
        {
          "internalType": "string",
          "name": "_SYMBOL",
          "type": "string"
        },
        {
          "internalType": "uint256",
          "name": "_DECIMALS",
          "type": "uint256"
        },
        {
          "internalType": "uint256",
          "name": "_supply",
          "type": "uint256"
        },
        {
          "internalType": "uint256",
          "name": "_txFee",
          "type": "uint256"
        },
        {
          "internalType": "uint256",
          "name": "_lpFee",
          "type": "uint256"
        },
        {
          "internalType": "uint256",
          "name": "_MAXAMOUNT",
          "type": "uint256"
        },
        {
          "internalType": "uint256",
          "name": "SELLMAXAMOUNT",
          "type": "uint256"
        },
        {
          "internalType": "address",
          "name": "routerAddress",
          "type": "address"
        },
        {
          "internalType": "address",
          "name": "tokenOwner",
          "type": "address"
        }
      ],
      "stateMutability": "nonpayable",
      "type": "constructor"
    },
    {
      "anonymous": false,
      "inputs": [
        {
          "indexed": true,
          "internalType": "address",
          "name": "owner",
          "type": "address"
        },
        {
          "indexed": true,
          "internalType": "address",
          "name": "spender",
          "type": "address"
        },
        {
          "indexed": false,
          "internalType": "uint256",
          "name": "value",
          "type": "uint256"
        }
      ],
      "name": "Approval",
      "type": "event"
    },
    {
      "anonymous": false,
      "inputs": [
        {
          "indexed": false,
          "internalType": "uint256",
          "name": "minTokensBeforeSwap",
          "type": "uint256"
        }
      ],
      "name": "MinTokensBeforeSwapUpdated",
      "type": "event"
    },
    {
      "anonymous": false,
      "inputs": [
        {
          "indexed": true,
          "internalType": "address",
          "name": "previousOwner",
          "type": "address"
        },
        {
          "indexed": true,
          "internalType": "address",
          "name": "newOwner",
          "type": "address"
        }
      ],
      "name": "OwnershipTransferred",
      "type": "event"
    },
    {
      "anonymous": false,
      "inputs": [
        {
          "indexed": false,
          "internalType": "uint256",
          "name": "tokensSwapped",
          "type": "uint256"
        },
        {
          "indexed": false,
          "internalType": "uint256",
          "name": "ethReceived",
          "type": "uint256"
        },
        {
          "indexed": false,
          "internalType": "uint256",
          "name": "tokensIntoLiqudity",
          "type": "uint256"
        }
      ],
      "name": "SwapAndLiquify",
      "type": "event"
    },
    {
      "anonymous": false,
      "inputs": [
        {
          "indexed": false,
          "internalType": "bool",
          "name": "enabled",
          "type": "bool"
        }
      ],
      "name": "SwapAndLiquifyEnabledUpdated",
      "type": "event"
    },
    {
      "anonymous": false,
      "inputs": [
        {
          "indexed": true,
          "internalType": "address",
          "name": "from",
          "type": "address"
        },
        {
          "indexed": true,
          "internalType": "address",
          "name": "to",
          "type": "address"
        },
        {
          "indexed": false,
          "internalType": "uint256",
          "name": "value",
          "type": "uint256"
        }
      ],
      "name": "Transfer",
      "type": "event"
    },
    {
      "inputs": [],
      "name": "_liquidityFee",
      "outputs": [
        {
          "internalType": "uint256",
          "name": "",
          "type": "uint256"
        }
      ],
      "stateMutability": "view",
      "type": "function"
    },
    {
      "inputs": [],
      "name": "_maxTxAmount",
      "outputs": [
        {
          "internalType": "uint256",
          "name": "",
          "type": "uint256"
        }
      ],
      "stateMutability": "view",
      "type": "function"
    },
    {
      "inputs": [],
      "name": "_owner",
      "outputs": [
        {
          "internalType": "address",
          "name": "",
          "type": "address"
        }
      ],
      "stateMutability": "view",
      "type": "function"
    },
    {
      "inputs": [],
      "name": "_taxFee",
      "outputs": [
        {
          "internalType": "uint256",
          "name": "",
          "type": "uint256"
        }
      ],
      "stateMutability": "view",
      "type": "function"
    },
    {
      "inputs": [
        {
          "internalType": "address",
          "name": "owner",
          "type": "address"
        },
        {
          "internalType": "address",
          "name": "spender",
          "type": "address"
        }
      ],
      "name": "allowance",
      "outputs": [
        {
          "internalType": "uint256",
          "name": "",
          "type": "uint256"
        }
      ],
      "stateMutability": "view",
      "type": "function"
    },
    {
      "inputs": [
        {
          "internalType": "address",
          "name": "spender",
          "type": "address"
        },
        {
          "internalType": "uint256",
          "name": "amount",
          "type": "uint256"
        }
      ],
      "name": "approve",
      "outputs": [
        {
          "internalType": "bool",
          "name": "",
          "type": "bool"
        }
      ],
      "stateMutability": "nonpayable",
      "type": "function"
    },
    {
      "inputs": [
        {
          "internalType": "address",
          "name": "account",
          "type": "address"
        }
      ],
      "name": "balanceOf",
      "outputs": [
        {
          "internalType": "uint256",
          "name": "",
          "type": "uint256"
        }
      ],
      "stateMutability": "view",
      "type": "function"
    },
    {
      "inputs": [],
      "name": "claimTokens",
      "outputs": [],
      "stateMutability": "nonpayable",
      "type": "function"
    },
    {
      "inputs": [],
      "name": "decimals",
      "outputs": [
        {
          "internalType": "uint256",
          "name": "",
          "type": "uint256"
        }
      ],
      "stateMutability": "view",
      "type": "function"
    },
    {
      "inputs": [
        {
          "internalType": "address",
          "name": "spender",
          "type": "address"
        },
        {
          "internalType": "uint256",
          "name": "subtractedValue",
          "type": "uint256"
        }
      ],
      "name": "decreaseAllowance",
      "outputs": [
        {
          "internalType": "bool",
          "name": "",
          "type": "bool"
        }
      ],
      "stateMutability": "nonpayable",
      "type": "function"
    },
    {
      "inputs": [
        {
          "internalType": "uint256",
          "name": "tAmount",
          "type": "uint256"
        }
      ],
      "name": "deliver",
      "outputs": [],
      "stateMutability": "nonpayable",
      "type": "function"
    },
    {
      "inputs": [
        {
          "internalType": "address",
          "name": "account",
          "type": "address"
        }
      ],
      "name": "excludeFromFee",
      "outputs": [],
      "stateMutability": "nonpayable",
      "type": "function"
    },
    {
      "inputs": [
        {
          "internalType": "address",
          "name": "account",
          "type": "address"
        }
      ],
      "name": "excludeFromReward",
      "outputs": [],
      "stateMutability": "nonpayable",
      "type": "function"
    },
    {
      "inputs": [],
      "name": "getUnlockTime",
      "outputs": [
        {
          "internalType": "uint256",
          "name": "",
          "type": "uint256"
        }
      ],
      "stateMutability": "view",
      "type": "function"
    },
    {
      "inputs": [
        {
          "internalType": "address",
          "name": "account",
          "type": "address"
        }
      ],
      "name": "includeInFee",
      "outputs": [],
      "stateMutability": "nonpayable",
      "type": "function"
    },
    {
      "inputs": [
        {
          "internalType": "address",
          "name": "account",
          "type": "address"
        }
      ],
      "name": "includeInReward",
      "outputs": [],
      "stateMutability": "nonpayable",
      "type": "function"
    },
    {
      "inputs": [
        {
          "internalType": "address",
          "name": "spender",
          "type": "address"
        },
        {
          "internalType": "uint256",
          "name": "addedValue",
          "type": "uint256"
        }
      ],
      "name": "increaseAllowance",
      "outputs": [
        {
          "internalType": "bool",
          "name": "",
          "type": "bool"
        }
      ],
      "stateMutability": "nonpayable",
      "type": "function"
    },
    {
      "inputs": [
        {
          "internalType": "address",
          "name": "account",
          "type": "address"
        }
      ],
      "name": "isExcludedFromFee",
      "outputs": [
        {
          "internalType": "bool",
          "name": "",
          "type": "bool"
        }
      ],
      "stateMutability": "view",
      "type": "function"
    },
    {
      "inputs": [
        {
          "internalType": "address",
          "name": "account",
          "type": "address"
        }
      ],
      "name": "isExcludedFromReward",
      "outputs": [
        {
          "internalType": "bool",
          "name": "",
          "type": "bool"
        }
      ],
      "stateMutability": "view",
      "type": "function"
    },
    {
      "inputs": [
        {
          "internalType": "uint256",
          "name": "time",
          "type": "uint256"
        }
      ],
      "name": "lock",
      "outputs": [],
      "stateMutability": "nonpayable",
      "type": "function"
    },
    {
      "inputs": [],
      "name": "name",
      "outputs": [
        {
          "internalType": "string",
          "name": "",
          "type": "string"
        }
      ],
      "stateMutability": "view",
      "type": "function"
    },
    {
      "inputs": [],
      "name": "numTokensSellToAddToLiquidity",
      "outputs": [
        {
          "internalType": "uint256",
          "name": "",
          "type": "uint256"
        }
      ],
      "stateMutability": "view",
      "type": "function"
    },
    {
      "inputs": [],
      "name": "owner",
      "outputs": [
        {
          "internalType": "address",
          "name": "",
          "type": "address"
        }
      ],
      "stateMutability": "view",
      "type": "function"
    },
    {
      "inputs": [
        {
          "internalType": "uint256",
          "name": "tAmount",
          "type": "uint256"
        },
        {
          "internalType": "bool",
          "name": "deductTransferFee",
          "type": "bool"
        }
      ],
      "name": "reflectionFromToken",
      "outputs": [
        {
          "internalType": "uint256",
          "name": "",
          "type": "uint256"
        }
      ],
      "stateMutability": "view",
      "type": "function"
    },
    {
      "inputs": [],
      "name": "renounceOwnership",
      "outputs": [],
      "stateMutability": "nonpayable",
      "type": "function"
    },
    {
      "inputs": [
        {
          "internalType": "uint256",
          "name": "liquidityFee",
          "type": "uint256"
        }
      ],
      "name": "setLiquidityFeePercent",
      "outputs": [],
      "stateMutability": "nonpayable",
      "type": "function"
    },
    {
      "inputs": [
        {
          "internalType": "uint256",
          "name": "maxTxPercent",
          "type": "uint256"
        }
      ],
      "name": "setMaxTxPercent",
      "outputs": [],
      "stateMutability": "nonpayable",
      "type": "function"
    },
    {
      "inputs": [
        {
          "internalType": "uint256",
          "name": "swapNumber",
          "type": "uint256"
        }
      ],
      "name": "setNumTokensSellToAddToLiquidity",
      "outputs": [],
      "stateMutability": "nonpayable",
      "type": "function"
    },
    {
      "inputs": [
        {
          "internalType": "bool",
          "name": "_enabled",
          "type": "bool"
        }
      ],
      "name": "setSwapAndLiquifyEnabled",
      "outputs": [],
      "stateMutability": "nonpayable",
      "type": "function"
    },
    {
      "inputs": [
        {
          "internalType": "uint256",
          "name": "taxFee",
          "type": "uint256"
        }
      ],
      "name": "setTaxFeePercent",
      "outputs": [],
      "stateMutability": "nonpayable",
      "type": "function"
    },
    {
      "inputs": [],
      "name": "swapAndLiquifyEnabled",
      "outputs": [
        {
          "internalType": "bool",
          "name": "",
          "type": "bool"
        }
      ],
      "stateMutability": "view",
      "type": "function"
    },
    {
      "inputs": [],
      "name": "symbol",
      "outputs": [
        {
          "internalType": "string",
          "name": "",
          "type": "string"
        }
      ],
      "stateMutability": "view",
      "type": "function"
    },
    {
      "inputs": [
        {
          "internalType": "uint256",
          "name": "rAmount",
          "type": "uint256"
        }
      ],
      "name": "tokenFromReflection",
      "outputs": [
        {
          "internalType": "uint256",
          "name": "",
          "type": "uint256"
        }
      ],
      "stateMutability": "view",
      "type": "function"
    },
    {
      "inputs": [],
      "name": "totalFees",
      "outputs": [
        {
          "internalType": "uint256",
          "name": "",
          "type": "uint256"
        }
      ],
      "stateMutability": "view",
      "type": "function"
    },
    {
      "inputs": [],
      "name": "totalSupply",
      "outputs": [
        {
          "internalType": "uint256",
          "name": "",
          "type": "uint256"
        }
      ],
      "stateMutability": "view",
      "type": "function"
    },
    {
      "inputs": [
        {
          "internalType": "address",
          "name": "recipient",
          "type": "address"
        },
        {
          "internalType": "uint256",
          "name": "amount",
          "type": "uint256"
        }
      ],
      "name": "transfer",
      "outputs": [
        {
          "internalType": "bool",
          "name": "",
          "type": "bool"
        }
      ],
      "stateMutability": "nonpayable",
      "type": "function"
    },
    {
      "inputs": [
        {
          "internalType": "address",
          "name": "sender",
          "type": "address"
        },
        {
          "internalType": "address",
          "name": "recipient",
          "type": "address"
        },
        {
          "internalType": "uint256",
          "name": "amount",
          "type": "uint256"
        }
      ],
      "name": "transferFrom",
      "outputs": [
        {
          "internalType": "bool",
          "name": "",
          "type": "bool"
        }
      ],
      "stateMutability": "nonpayable",
      "type": "function"
    },
    {
      "inputs": [
        {
          "internalType": "address",
          "name": "newOwner",
          "type": "address"
        }
      ],
      "name": "transferOwnership",
      "outputs": [],
      "stateMutability": "nonpayable",
      "type": "function"
    },
    {
      "inputs": [],
      "name": "uniswapV2Pair",
      "outputs": [
        {
          "internalType": "address",
          "name": "",
          "type": "address"
        }
      ],
      "stateMutability": "view",
      "type": "function"
    },
    {
      "inputs": [],
      "name": "uniswapV2Router",
      "outputs": [
        {
          "internalType": "contract IUniswapV2Router02",
          "name": "",
          "type": "address"
        }
      ],
      "stateMutability": "view",
      "type": "function"
    },
    {
      "inputs": [],
      "name": "unlock",
      "outputs": [],
      "stateMutability": "nonpayable",
      "type": "function"
    },
    {
      "stateMutability": "payable",
      "type": "receive"
    }
  ],
  "bytecode": "0x60c06040526001601360016101000a81548160ff0219169083151502179055503480156200002c57600080fd5b506040516200653d3803806200653d83398181016040528101906200005291906200066e565b89600c90805190602001906200006a929190620004f2565b5088600d908051906020019062000083929190620004f2565b5087600e81905550600e54600a6200009c9190620008be565b87620000a99190620009fb565b600981905550600954600019620000c1919062000b41565b600019620000d0919062000a5c565b600a8190555085600f81905550846011819055508560108190555084601281905550600e54600a620001039190620008be565b84620001109190620009fb565b601481905550600e54600a620001279190620008be565b83620001349190620009fb565b601581905550600a54600360008373ffffffffffffffffffffffffffffffffffffffff1673ffffffffffffffffffffffffffffffffffffffff1681526020019081526020016000208190555060008290508073ffffffffffffffffffffffffffffffffffffffff1663c45a01556040518163ffffffff1660e01b815260040160206040518083038186803b158015620001cc57600080fd5b505afa158015620001e1573d6000803e3d6000fd5b505050506040513d601f19601f8201168201806040525081019062000207919062000642565b73ffffffffffffffffffffffffffffffffffffffff1663c9c65396308373ffffffffffffffffffffffffffffffffffffffff1663ad5c46486040518163ffffffff1660e01b815260040160206040518083038186803b1580156200026a57600080fd5b505afa1580156200027f573d6000803e3d6000fd5b505050506040513d601f19601f82011682018060405250810190620002a5919062000642565b6040518363ffffffff1660e01b8152600401620002c4929190620007b2565b602060405180830381600087803b158015620002df57600080fd5b505af1158015620002f4573d6000803e3d6000fd5b505050506040513d601f19601f820116820180604052508101906200031a919062000642565b73ffffffffffffffffffffffffffffffffffffffff1660a08173ffffffffffffffffffffffffffffffffffffffff1660601b815250508073ffffffffffffffffffffffffffffffffffffffff1660808173ffffffffffffffffffffffffffffffffffffffff1660601b815250506001600660008473ffffffffffffffffffffffffffffffffffffffff1673ffffffffffffffffffffffffffffffffffffffff16815260200190815260200160002060006101000a81548160ff0219169083151502179055506001600660003073ffffffffffffffffffffffffffffffffffffffff1673ffffffffffffffffffffffffffffffffffffffff16815260200190815260200160002060006101000a81548160ff021916908315150217905550816000806101000a81548173ffffffffffffffffffffffffffffffffffffffff021916908373ffffffffffffffffffffffffffffffffffffffff1602179055508173ffffffffffffffffffffffffffffffffffffffff16600073ffffffffffffffffffffffffffffffffffffffff167fddf252ad1be2c89b69c2b068fc378daa952ba7f163c4a11628f55a4df523b3ef600954604051620004d99190620007df565b60405180910390a3505050505050505050505062000c76565b828054620005009062000b0b565b90600052602060002090601f01602090048101928262000524576000855562000570565b82601f106200053f57805160ff191683800117855562000570565b8280016001018555821562000570579182015b828111156200056f57825182559160200191906001019062000552565b5b5090506200057f919062000583565b5090565b5b808211156200059e57600081600090555060010162000584565b5090565b6000620005b9620005b38462000830565b620007fc565b905082815260208101848484011115620005d257600080fd5b620005df84828562000ad5565b509392505050565b600081519050620005f88162000c42565b92915050565b600082601f8301126200061057600080fd5b815162000622848260208601620005a2565b91505092915050565b6000815190506200063c8162000c5c565b92915050565b6000602082840312156200065557600080fd5b60006200066584828501620005e7565b91505092915050565b6000806000806000806000806000806101408b8d0312156200068f57600080fd5b60008b015167ffffffffffffffff811115620006aa57600080fd5b620006b88d828e01620005fe565b9a505060208b015167ffffffffffffffff811115620006d657600080fd5b620006e48d828e01620005fe565b9950506040620006f78d828e016200062b565b98505060606200070a8d828e016200062b565b97505060806200071d8d828e016200062b565b96505060a0620007308d828e016200062b565b95505060c0620007438d828e016200062b565b94505060e0620007568d828e016200062b565b9350506101006200076a8d828e01620005e7565b9250506101206200077e8d828e01620005e7565b9150509295989b9194979a5092959850565b6200079b8162000a97565b82525050565b620007ac8162000acb565b82525050565b6000604082019050620007c9600083018562000790565b620007d8602083018462000790565b9392505050565b6000602082019050620007f66000830184620007a1565b92915050565b6000604051905081810181811067ffffffffffffffff8211171562000826576200082562000c06565b5b8060405250919050565b600067ffffffffffffffff8211156200084e576200084d62000c06565b5b601f19601f8301169050602081019050919050565b6000808291508390505b6001851115620008b5578086048111156200088d576200088c62000b79565b5b60018516156200089d5780820291505b8081029050620008ad8562000c35565b94506200086d565b94509492505050565b6000620008cb8262000acb565b9150620008d88362000acb565b9250620009077fffffffffffffffffffffffffffffffffffffffffffffffffffffffffffffffff84846200090f565b905092915050565b600082620009215760019050620009f4565b81620009315760009050620009f4565b81600181146200094a576002811462000955576200098b565b6001915050620009f4565b60ff8411156200096a576200096962000b79565b5b8360020a91508482111562000984576200098362000b79565b5b50620009f4565b5060208310610133831016604e8410600b8410161715620009c55782820a905083811115620009bf57620009be62000b79565b5b620009f4565b620009d4848484600162000863565b92509050818404811115620009ee57620009ed62000b79565b5b81810290505b9392505050565b600062000a088262000acb565b915062000a158362000acb565b9250817fffffffffffffffffffffffffffffffffffffffffffffffffffffffffffffffff048311821515161562000a515762000a5062000b79565b5b828202905092915050565b600062000a698262000acb565b915062000a768362000acb565b92508282101562000a8c5762000a8b62000b79565b5b828203905092915050565b600062000aa48262000aab565b9050919050565b600073ffffffffffffffffffffffffffffffffffffffff82169050919050565b6000819050919050565b60005b8381101562000af557808201518184015260208101905062000ad8565b8381111562000b05576000848401525b50505050565b6000600282049050600182168062000b2457607f821691505b6020821081141562000b3b5762000b3a62000bd7565b5b50919050565b600062000b4e8262000acb565b915062000b5b8362000acb565b92508262000b6e5762000b6d62000ba8565b5b828206905092915050565b7f4e487b7100000000000000000000000000000000000000000000000000000000600052601160045260246000fd5b7f4e487b7100000000000000000000000000000000000000000000000000000000600052601260045260246000fd5b7f4e487b7100000000000000000000000000000000000000000000000000000000600052602260045260246000fd5b7f4e487b7100000000000000000000000000000000000000000000000000000000600052604160045260246000fd5b60008160011c9050919050565b62000c4d8162000a97565b811462000c5957600080fd5b50565b62000c678162000acb565b811462000c7357600080fd5b50565b60805160601c60a05160601c61587162000ccc600039600081816115120152612a97015260008181610b06015281816137170152818161382d01528181613854015281816138f0015261391701526158716000f3fe60806040526004361061024a5760003560e01c8063602bc62b11610139578063a69df4b5116100b6578063d543dbeb1161007a578063d543dbeb146108a1578063dd467064146108ca578063dd62ed3e146108f3578063ea2f0b3714610930578063f0f165af14610959578063f2fde38b1461098257610251565b8063a69df4b5146107ce578063a9059cbb146107e5578063b2bdfa7b14610822578063c49b9a801461084d578063d12a76881461087657610251565b806388f82020116100fd57806388f82020146106d55780638da5cb5b146107125780638ee88c531461073d57806395d89b4114610766578063a457c2d71461079157610251565b8063602bc62b146106005780636bc87c3a1461062b57806370a0823114610656578063715018a6146106935780637d1db4a5146106aa57610251565b806339509351116101c757806348c54b9d1161018b57806348c54b9d1461052d57806349bd5a5e146105445780634a74bb021461056f57806352390c021461059a5780635342acb4146105c357610251565b806339509351146104365780633b124fe7146104735780633bd5d1731461049e578063437823ec146104c75780634549b039146104f057610251565b806318160ddd1161020e57806318160ddd1461033d57806323b872dd146103685780632d838119146103a5578063313ce567146103e25780633685d4191461040d57610251565b8063061c82d01461025657806306fdde031461027f578063095ea7b3146102aa57806313114a9d146102e75780631694505e1461031257610251565b3661025157005b600080fd5b34801561026257600080fd5b5061027d60048036038101906102789190614818565b6109ab565b005b34801561028b57600080fd5b50610294610a4a565b6040516102a19190615029565b60405180910390f35b3480156102b657600080fd5b506102d160048036038101906102cc91906147b3565b610adc565b6040516102de9190614ff3565b60405180910390f35b3480156102f357600080fd5b506102fc610afa565b604051610309919061524b565b60405180910390f35b34801561031e57600080fd5b50610327610b04565b604051610334919061500e565b60405180910390f35b34801561034957600080fd5b50610352610b28565b60405161035f919061524b565b60405180910390f35b34801561037457600080fd5b5061038f600480360381019061038a9190614764565b610b32565b60405161039c9190614ff3565b60405180910390f35b3480156103b157600080fd5b506103cc60048036038101906103c79190614818565b610c0b565b6040516103d9919061524b565b60405180910390f35b3480156103ee57600080fd5b506103f7610c79565b604051610404919061524b565b60405180910390f35b34801561041957600080fd5b50610434600480360381019061042f91906146d6565b610c83565b005b34801561044257600080fd5b5061045d600480360381019061045891906147b3565b61106a565b60405161046a9190614ff3565b60405180910390f35b34801561047f57600080fd5b5061048861111d565b604051610495919061524b565b60405180910390f35b3480156104aa57600080fd5b506104c560048036038101906104c09190614818565b611123565b005b3480156104d357600080fd5b506104ee60048036038101906104e991906146d6565b61129e565b005b3480156104fc57600080fd5b5061051760048036038101906105129190614841565b61138e565b604051610524919061524b565b60405180910390f35b34801561053957600080fd5b50610542611412565b005b34801561055057600080fd5b50610559611510565b6040516105669190614f77565b60405180910390f35b34801561057b57600080fd5b50610584611534565b6040516105919190614ff3565b60405180910390f35b3480156105a657600080fd5b506105c160048036038101906105bc91906146d6565b611547565b005b3480156105cf57600080fd5b506105ea60048036038101906105e591906146d6565b6117fb565b6040516105f79190614ff3565b60405180910390f35b34801561060c57600080fd5b50610615611851565b604051610622919061524b565b60405180910390f35b34801561063757600080fd5b5061064061185b565b60405161064d919061524b565b60405180910390f35b34801561066257600080fd5b5061067d600480360381019061067891906146d6565b611861565b60405161068a919061524b565b60405180910390f35b34801561069f57600080fd5b506106a861194c565b005b3480156106b657600080fd5b506106bf611a9f565b6040516106cc919061524b565b60405180910390f35b3480156106e157600080fd5b506106fc60048036038101906106f791906146d6565b611aa5565b6040516107099190614ff3565b60405180910390f35b34801561071e57600080fd5b50610727611afb565b6040516107349190614f77565b60405180910390f35b34801561074957600080fd5b50610764600480360381019061075f9190614818565b611b24565b005b34801561077257600080fd5b5061077b611bc3565b6040516107889190615029565b60405180910390f35b34801561079d57600080fd5b506107b860048036038101906107b391906147b3565b611c55565b6040516107c59190614ff3565b60405180910390f35b3480156107da57600080fd5b506107e3611d22565b005b3480156107f157600080fd5b5061080c600480360381019061080791906147b3565b611ef6565b6040516108199190614ff3565b60405180910390f35b34801561082e57600080fd5b50610837611f14565b6040516108449190614f77565b60405180910390f35b34801561085957600080fd5b50610874600480360381019061086f91906147ef565b611f38565b005b34801561088257600080fd5b5061088b612021565b604051610898919061524b565b60405180910390f35b3480156108ad57600080fd5b506108c860048036038101906108c39190614818565b612027565b005b3480156108d657600080fd5b506108f160048036038101906108ec9190614818565b6120df565b005b3480156108ff57600080fd5b5061091a60048036038101906109159190614728565b6122a6565b604051610927919061524b565b60405180910390f35b34801561093c57600080fd5b50610957600480360381019061095291906146d6565b61232d565b005b34801561096557600080fd5b50610980600480360381019061097b9190614818565b61241d565b005b34801561098e57600080fd5b506109a960048036038101906109a491906146d6565b6124d5565b005b6109b3612697565b73ffffffffffffffffffffffffffffffffffffffff1660008054906101000a900473ffffffffffffffffffffffffffffffffffffffff1673ffffffffffffffffffffffffffffffffffffffff1614610a40576040517f08c379a0000000000000000000000000000000000000000000000000000000008152600401610a379061516b565b60405180910390fd5b80600f8190555050565b6060600c8054610a5990615683565b80601f0160208091040260200160405190810160405280929190818152602001828054610a8590615683565b8015610ad25780601f10610aa757610100808354040283529160200191610ad2565b820191906000526020600020905b815481529060010190602001808311610ab557829003601f168201915b5050505050905090565b6000610af0610ae9612697565b848461269f565b6001905092915050565b6000600b54905090565b7f000000000000000000000000000000000000000000000000000000000000000081565b6000600954905090565b6000610b3f84848461286a565b610c0084610b4b612697565b610bfb856040518060600160405280602881526020016157ef60289139600560008b73ffffffffffffffffffffffffffffffffffffffff1673ffffffffffffffffffffffffffffffffffffffff1681526020019081526020016000206000610bb1612697565b73ffffffffffffffffffffffffffffffffffffffff1673ffffffffffffffffffffffffffffffffffffffff16815260200190815260200160002054612bd79092919063ffffffff16565b61269f565b600190509392505050565b6000600a54821115610c52576040517f08c379a0000000000000000000000000000000000000000000000000000000008152600401610c499061506b565b60405180910390fd5b6000610c5c612c3b565b9050610c718184612c6690919063ffffffff16565b915050919050565b6000600e54905090565b610c8b612697565b73ffffffffffffffffffffffffffffffffffffffff1660008054906101000a900473ffffffffffffffffffffffffffffffffffffffff1673ffffffffffffffffffffffffffffffffffffffff1614610d18576040517f08c379a0000000000000000000000000000000000000000000000000000000008152600401610d0f9061516b565b60405180910390fd5b600760008273ffffffffffffffffffffffffffffffffffffffff1673ffffffffffffffffffffffffffffffffffffffff16815260200190815260200160002060009054906101000a900460ff16610da4576040517f08c379a0000000000000000000000000000000000000000000000000000000008152600401610d9b906150eb565b60405180910390fd5b60005b600880549050811015611066578173ffffffffffffffffffffffffffffffffffffffff1660088281548110610e05577f4e487b7100000000000000000000000000000000000000000000000000000000600052603260045260246000fd5b9060005260206000200160009054906101000a900473ffffffffffffffffffffffffffffffffffffffff1673ffffffffffffffffffffffffffffffffffffffff1614156110535760086001600880549050610e60919061559e565b81548110610e97577f4e487b7100000000000000000000000000000000000000000000000000000000600052603260045260246000fd5b9060005260206000200160009054906101000a900473ffffffffffffffffffffffffffffffffffffffff1660088281548110610efc577f4e487b7100000000000000000000000000000000000000000000000000000000600052603260045260246000fd5b9060005260206000200160006101000a81548173ffffffffffffffffffffffffffffffffffffffff021916908373ffffffffffffffffffffffffffffffffffffffff1602179055506000600460008473ffffffffffffffffffffffffffffffffffffffff1673ffffffffffffffffffffffffffffffffffffffff168152602001908152602001600020819055506000600760008473ffffffffffffffffffffffffffffffffffffffff1673ffffffffffffffffffffffffffffffffffffffff16815260200190815260200160002060006101000a81548160ff0219169083151502179055506008805480611019577f4e487b7100000000000000000000000000000000000000000000000000000000600052603160045260246000fd5b6001900381819060005260206000200160006101000a81549073ffffffffffffffffffffffffffffffffffffffff02191690559055611066565b808061105e906156b5565b915050610da7565b5050565b6000611113611077612697565b8461110e8560056000611088612697565b73ffffffffffffffffffffffffffffffffffffffff1673ffffffffffffffffffffffffffffffffffffffff16815260200190815260200160002060008973ffffffffffffffffffffffffffffffffffffffff1673ffffffffffffffffffffffffffffffffffffffff16815260200190815260200160002054612cb090919063ffffffff16565b61269f565b6001905092915050565b600f5481565b600061112d612697565b9050600760008273ffffffffffffffffffffffffffffffffffffffff1673ffffffffffffffffffffffffffffffffffffffff16815260200190815260200160002060009054906101000a900460ff16156111bc576040517f08c379a00000000000000000000000000000000000000000000000000000000081526004016111b39061520b565b60405180910390fd5b60006111c783612d0e565b5050505050905061122081600360008573ffffffffffffffffffffffffffffffffffffffff1673ffffffffffffffffffffffffffffffffffffffff16815260200190815260200160002054612d6a90919063ffffffff16565b600360008473ffffffffffffffffffffffffffffffffffffffff1673ffffffffffffffffffffffffffffffffffffffff1681526020019081526020016000208190555061127881600a54612d6a90919063ffffffff16565b600a8190555061129383600b54612cb090919063ffffffff16565b600b81905550505050565b6112a6612697565b73ffffffffffffffffffffffffffffffffffffffff1660008054906101000a900473ffffffffffffffffffffffffffffffffffffffff1673ffffffffffffffffffffffffffffffffffffffff1614611333576040517f08c379a000000000000000000000000000000000000000000000000000000000815260040161132a9061516b565b60405180910390fd5b6001600660008373ffffffffffffffffffffffffffffffffffffffff1673ffffffffffffffffffffffffffffffffffffffff16815260200190815260200160002060006101000a81548160ff02191690831515021790555050565b60006009548311156113d5576040517f08c379a00000000000000000000000000000000000000000000000000000000081526004016113cc9061510b565b60405180910390fd5b816113f55760006113e584612d0e565b505050505090508091505061140c565b600061140084612d0e565b50505050915050809150505b92915050565b61141a612697565b73ffffffffffffffffffffffffffffffffffffffff1660008054906101000a900473ffffffffffffffffffffffffffffffffffffffff1673ffffffffffffffffffffffffffffffffffffffff16146114a7576040517f08c379a000000000000000000000000000000000000000000000000000000000815260040161149e9061516b565b60405180910390fd5b60008054906101000a900473ffffffffffffffffffffffffffffffffffffffff1673ffffffffffffffffffffffffffffffffffffffff166108fc479081150290604051600060405180830381858888f1935050505015801561150d573d6000803e3d6000fd5b50565b7f000000000000000000000000000000000000000000000000000000000000000081565b601360019054906101000a900460ff1681565b61154f612697565b73ffffffffffffffffffffffffffffffffffffffff1660008054906101000a900473ffffffffffffffffffffffffffffffffffffffff1673ffffffffffffffffffffffffffffffffffffffff16146115dc576040517f08c379a00000000000000000000000000000000000000000000000000000000081526004016115d39061516b565b60405180910390fd5b600760008273ffffffffffffffffffffffffffffffffffffffff1673ffffffffffffffffffffffffffffffffffffffff16815260200190815260200160002060009054906101000a900460ff1615611669576040517f08c379a0000000000000000000000000000000000000000000000000000000008152600401611660906150eb565b60405180910390fd5b6000600360008373ffffffffffffffffffffffffffffffffffffffff1673ffffffffffffffffffffffffffffffffffffffff16815260200190815260200160002054111561173d576116f9600360008373ffffffffffffffffffffffffffffffffffffffff1673ffffffffffffffffffffffffffffffffffffffff16815260200190815260200160002054610c0b565b600460008373ffffffffffffffffffffffffffffffffffffffff1673ffffffffffffffffffffffffffffffffffffffff168152602001908152602001600020819055505b6001600760008373ffffffffffffffffffffffffffffffffffffffff1673ffffffffffffffffffffffffffffffffffffffff16815260200190815260200160002060006101000a81548160ff0219169083151502179055506008819080600181540180825580915050600190039060005260206000200160009091909190916101000a81548173ffffffffffffffffffffffffffffffffffffffff021916908373ffffffffffffffffffffffffffffffffffffffff16021790555050565b6000600660008373ffffffffffffffffffffffffffffffffffffffff1673ffffffffffffffffffffffffffffffffffffffff16815260200190815260200160002060009054906101000a900460ff169050919050565b6000600254905090565b60115481565b6000600760008373ffffffffffffffffffffffffffffffffffffffff1673ffffffffffffffffffffffffffffffffffffffff16815260200190815260200160002060009054906101000a900460ff16156118fc57600460008373ffffffffffffffffffffffffffffffffffffffff1673ffffffffffffffffffffffffffffffffffffffff168152602001908152602001600020549050611947565b611944600360008473ffffffffffffffffffffffffffffffffffffffff1673ffffffffffffffffffffffffffffffffffffffff16815260200190815260200160002054610c0b565b90505b919050565b611954612697565b73ffffffffffffffffffffffffffffffffffffffff1660008054906101000a900473ffffffffffffffffffffffffffffffffffffffff1673ffffffffffffffffffffffffffffffffffffffff16146119e1576040517f08c379a00000000000000000000000000000000000000000000000000000000081526004016119d89061516b565b60405180910390fd5b600073ffffffffffffffffffffffffffffffffffffffff1660008054906101000a900473ffffffffffffffffffffffffffffffffffffffff1673ffffffffffffffffffffffffffffffffffffffff167f8be0079c531659141344cd1fd0a4f28419497f9722a3daafe3b4186f6b6457e060405160405180910390a360008060006101000a81548173ffffffffffffffffffffffffffffffffffffffff021916908373ffffffffffffffffffffffffffffffffffffffff160217905550565b60145481565b6000600760008373ffffffffffffffffffffffffffffffffffffffff1673ffffffffffffffffffffffffffffffffffffffff16815260200190815260200160002060009054906101000a900460ff169050919050565b60008060009054906101000a900473ffffffffffffffffffffffffffffffffffffffff16905090565b611b2c612697565b73ffffffffffffffffffffffffffffffffffffffff1660008054906101000a900473ffffffffffffffffffffffffffffffffffffffff1673ffffffffffffffffffffffffffffffffffffffff1614611bb9576040517f08c379a0000000000000000000000000000000000000000000000000000000008152600401611bb09061516b565b60405180910390fd5b8060118190555050565b6060600d8054611bd290615683565b80601f0160208091040260200160405190810160405280929190818152602001828054611bfe90615683565b8015611c4b5780601f10611c2057610100808354040283529160200191611c4b565b820191906000526020600020905b815481529060010190602001808311611c2e57829003601f168201915b5050505050905090565b6000611d18611c62612697565b84611d13856040518060600160405280602581526020016158176025913960056000611c8c612697565b73ffffffffffffffffffffffffffffffffffffffff1673ffffffffffffffffffffffffffffffffffffffff16815260200190815260200160002060008a73ffffffffffffffffffffffffffffffffffffffff1673ffffffffffffffffffffffffffffffffffffffff16815260200190815260200160002054612bd79092919063ffffffff16565b61269f565b6001905092915050565b3373ffffffffffffffffffffffffffffffffffffffff16600160009054906101000a900473ffffffffffffffffffffffffffffffffffffffff1673ffffffffffffffffffffffffffffffffffffffff1614611db2576040517f08c379a0000000000000000000000000000000000000000000000000000000008152600401611da99061522b565b60405180910390fd5b6002544211611df6576040517f08c379a0000000000000000000000000000000000000000000000000000000008152600401611ded906151eb565b60405180910390fd5b600160009054906101000a900473ffffffffffffffffffffffffffffffffffffffff1673ffffffffffffffffffffffffffffffffffffffff1660008054906101000a900473ffffffffffffffffffffffffffffffffffffffff1673ffffffffffffffffffffffffffffffffffffffff167f8be0079c531659141344cd1fd0a4f28419497f9722a3daafe3b4186f6b6457e060405160405180910390a3600160009054906101000a900473ffffffffffffffffffffffffffffffffffffffff166000806101000a81548173ffffffffffffffffffffffffffffffffffffffff021916908373ffffffffffffffffffffffffffffffffffffffff160217905550565b6000611f0a611f03612697565b848461286a565b6001905092915050565b60008054906101000a900473ffffffffffffffffffffffffffffffffffffffff1681565b611f40612697565b73ffffffffffffffffffffffffffffffffffffffff1660008054906101000a900473ffffffffffffffffffffffffffffffffffffffff1673ffffffffffffffffffffffffffffffffffffffff1614611fcd576040517f08c379a0000000000000000000000000000000000000000000000000000000008152600401611fc49061516b565b60405180910390fd5b80601360016101000a81548160ff0219169083151502179055507f53726dfcaf90650aa7eb35524f4d3220f07413c8d6cb404cc8c18bf5591bc159816040516120169190614ff3565b60405180910390a150565b60155481565b61202f612697565b73ffffffffffffffffffffffffffffffffffffffff1660008054906101000a900473ffffffffffffffffffffffffffffffffffffffff1673ffffffffffffffffffffffffffffffffffffffff16146120bc576040517f08c379a00000000000000000000000000000000000000000000000000000000081526004016120b39061516b565b60405180910390fd5b600e54600a6120cb9190615426565b816120d69190615544565b60148190555050565b6120e7612697565b73ffffffffffffffffffffffffffffffffffffffff1660008054906101000a900473ffffffffffffffffffffffffffffffffffffffff1673ffffffffffffffffffffffffffffffffffffffff1614612174576040517f08c379a000000000000000000000000000000000000000000000000000000000815260040161216b9061516b565b60405180910390fd5b60008054906101000a900473ffffffffffffffffffffffffffffffffffffffff16600160006101000a81548173ffffffffffffffffffffffffffffffffffffffff021916908373ffffffffffffffffffffffffffffffffffffffff16021790555060008060006101000a81548173ffffffffffffffffffffffffffffffffffffffff021916908373ffffffffffffffffffffffffffffffffffffffff1602179055508042612222919061534c565b600281905550600073ffffffffffffffffffffffffffffffffffffffff1660008054906101000a900473ffffffffffffffffffffffffffffffffffffffff1673ffffffffffffffffffffffffffffffffffffffff167f8be0079c531659141344cd1fd0a4f28419497f9722a3daafe3b4186f6b6457e060405160405180910390a350565b6000600560008473ffffffffffffffffffffffffffffffffffffffff1673ffffffffffffffffffffffffffffffffffffffff16815260200190815260200160002060008373ffffffffffffffffffffffffffffffffffffffff1673ffffffffffffffffffffffffffffffffffffffff16815260200190815260200160002054905092915050565b612335612697565b73ffffffffffffffffffffffffffffffffffffffff1660008054906101000a900473ffffffffffffffffffffffffffffffffffffffff1673ffffffffffffffffffffffffffffffffffffffff16146123c2576040517f08c379a00000000000000000000000000000000000000000000000000000000081526004016123b99061516b565b60405180910390fd5b6000600660008373ffffffffffffffffffffffffffffffffffffffff1673ffffffffffffffffffffffffffffffffffffffff16815260200190815260200160002060006101000a81548160ff02191690831515021790555050565b612425612697565b73ffffffffffffffffffffffffffffffffffffffff1660008054906101000a900473ffffffffffffffffffffffffffffffffffffffff1673ffffffffffffffffffffffffffffffffffffffff16146124b2576040517f08c379a00000000000000000000000000000000000000000000000000000000081526004016124a99061516b565b60405180910390fd5b600e54600a6124c19190615426565b816124cc9190615544565b60158190555050565b6124dd612697565b73ffffffffffffffffffffffffffffffffffffffff1660008054906101000a900473ffffffffffffffffffffffffffffffffffffffff1673ffffffffffffffffffffffffffffffffffffffff161461256a576040517f08c379a00000000000000000000000000000000000000000000000000000000081526004016125619061516b565b60405180910390fd5b600073ffffffffffffffffffffffffffffffffffffffff168173ffffffffffffffffffffffffffffffffffffffff1614156125da576040517f08c379a00000000000000000000000000000000000000000000000000000000081526004016125d19061508b565b60405180910390fd5b8073ffffffffffffffffffffffffffffffffffffffff1660008054906101000a900473ffffffffffffffffffffffffffffffffffffffff1673ffffffffffffffffffffffffffffffffffffffff167f8be0079c531659141344cd1fd0a4f28419497f9722a3daafe3b4186f6b6457e060405160405180910390a3806000806101000a81548173ffffffffffffffffffffffffffffffffffffffff021916908373ffffffffffffffffffffffffffffffffffffffff16021790555050565b600033905090565b600073ffffffffffffffffffffffffffffffffffffffff168373ffffffffffffffffffffffffffffffffffffffff16141561270f576040517f08c379a0000000000000000000000000000000000000000000000000000000008152600401612706906151cb565b60405180910390fd5b600073ffffffffffffffffffffffffffffffffffffffff168273ffffffffffffffffffffffffffffffffffffffff16141561277f576040517f08c379a0000000000000000000000000000000000000000000000000000000008152600401612776906150ab565b60405180910390fd5b80600560008573ffffffffffffffffffffffffffffffffffffffff1673ffffffffffffffffffffffffffffffffffffffff16815260200190815260200160002060008473ffffffffffffffffffffffffffffffffffffffff1673ffffffffffffffffffffffffffffffffffffffff168152602001908152602001600020819055508173ffffffffffffffffffffffffffffffffffffffff168373ffffffffffffffffffffffffffffffffffffffff167f8c5be1e5ebec7d5bd14f71427d1e84f3dd0314c0f7b2291e5b200ac8c7c3b9258360405161285d919061524b565b60405180910390a3505050565b600073ffffffffffffffffffffffffffffffffffffffff168373ffffffffffffffffffffffffffffffffffffffff1614156128da576040517f08c379a00000000000000000000000000000000000000000000000000000000081526004016128d1906151ab565b60405180910390fd5b600073ffffffffffffffffffffffffffffffffffffffff168273ffffffffffffffffffffffffffffffffffffffff16141561294a576040517f08c379a00000000000000000000000000000000000000000000000000000000081526004016129419061504b565b60405180910390fd5b6000811161298d576040517f08c379a00000000000000000000000000000000000000000000000000000000081526004016129849061518b565b60405180910390fd5b612995611afb565b73ffffffffffffffffffffffffffffffffffffffff168373ffffffffffffffffffffffffffffffffffffffff1614158015612a0357506129d3611afb565b73ffffffffffffffffffffffffffffffffffffffff168273ffffffffffffffffffffffffffffffffffffffff1614155b15612a4e57601454811115612a4d576040517f08c379a0000000000000000000000000000000000000000000000000000000008152600401612a449061512b565b60405180910390fd5b5b6000612a5930611861565b90506014548110612a6a5760145490505b60006015548210159050808015612a8e5750601360009054906101000a900460ff16155b8015612ae657507f000000000000000000000000000000000000000000000000000000000000000073ffffffffffffffffffffffffffffffffffffffff168573ffffffffffffffffffffffffffffffffffffffff1614155b8015612afe5750601360019054906101000a900460ff165b15612b12576015549150612b1182612db4565b5b600060019050600660008773ffffffffffffffffffffffffffffffffffffffff1673ffffffffffffffffffffffffffffffffffffffff16815260200190815260200160002060009054906101000a900460ff1680612bb95750600660008673ffffffffffffffffffffffffffffffffffffffff1673ffffffffffffffffffffffffffffffffffffffff16815260200190815260200160002060009054906101000a900460ff165b15612bc357600090505b612bcf86868684612e8a565b505050505050565b6000838311158290612c1f576040517f08c379a0000000000000000000000000000000000000000000000000000000008152600401612c169190615029565b60405180910390fd5b5060008385612c2e919061559e565b9050809150509392505050565b6000806000612c4861319b565b91509150612c5f8183612c6690919063ffffffff16565b9250505090565b6000612ca883836040518060400160405280601a81526020017f536166654d6174683a206469766973696f6e206279207a65726f0000000000008152506134e6565b905092915050565b6000808284612cbf919061534c565b905083811015612d04576040517f08c379a0000000000000000000000000000000000000000000000000000000008152600401612cfb906150cb565b60405180910390fd5b8091505092915050565b6000806000806000806000806000612d258a613549565b9250925092506000806000612d438d8686612d3e612c3b565b6135a3565b9250925092508282828888889b509b509b509b509b509b5050505050505091939550919395565b6000612dac83836040518060400160405280601e81526020017f536166654d6174683a207375627472616374696f6e206f766572666c6f770000815250612bd7565b905092915050565b6001601360006101000a81548160ff0219169083151502179055506000612de5600283612c6690919063ffffffff16565b90506000612dfc8284612d6a90919063ffffffff16565b90506000479050612e0c8361362c565b6000612e218247612d6a90919063ffffffff16565b9050612e2d83826138ea565b7f17bbfb9a6069321b6ded73bd96327c9e6b7212a5cd51ff219cd61370acafb561848285604051612e60939291906152c0565b60405180910390a1505050506000601360006101000a81548160ff02191690831515021790555050565b80612e9857612e976139da565b5b600760008573ffffffffffffffffffffffffffffffffffffffff1673ffffffffffffffffffffffffffffffffffffffff16815260200190815260200160002060009054906101000a900460ff168015612f3b5750600760008473ffffffffffffffffffffffffffffffffffffffff1673ffffffffffffffffffffffffffffffffffffffff16815260200190815260200160002060009054906101000a900460ff16155b15612f5057612f4b848484613a1d565b613187565b600760008573ffffffffffffffffffffffffffffffffffffffff1673ffffffffffffffffffffffffffffffffffffffff16815260200190815260200160002060009054906101000a900460ff16158015612ff35750600760008473ffffffffffffffffffffffffffffffffffffffff1673ffffffffffffffffffffffffffffffffffffffff16815260200190815260200160002060009054906101000a900460ff165b1561300857613003848484613c7d565b613186565b600760008573ffffffffffffffffffffffffffffffffffffffff1673ffffffffffffffffffffffffffffffffffffffff16815260200190815260200160002060009054906101000a900460ff161580156130ac5750600760008473ffffffffffffffffffffffffffffffffffffffff1673ffffffffffffffffffffffffffffffffffffffff16815260200190815260200160002060009054906101000a900460ff16155b156130c1576130bc848484613edd565b613185565b600760008573ffffffffffffffffffffffffffffffffffffffff1673ffffffffffffffffffffffffffffffffffffffff16815260200190815260200160002060009054906101000a900460ff1680156131635750600760008473ffffffffffffffffffffffffffffffffffffffff1673ffffffffffffffffffffffffffffffffffffffff16815260200190815260200160002060009054906101000a900460ff165b15613178576131738484846140a8565b613184565b613183848484613edd565b5b5b5b5b806131955761319461439d565b5b50505050565b6000806000600a5490506000600954905060005b6008805490508110156134a9578260036000600884815481106131fb577f4e487b7100000000000000000000000000000000000000000000000000000000600052603260045260246000fd5b9060005260206000200160009054906101000a900473ffffffffffffffffffffffffffffffffffffffff1673ffffffffffffffffffffffffffffffffffffffff1673ffffffffffffffffffffffffffffffffffffffff16815260200190815260200160002054118061330f57508160046000600884815481106132a7577f4e487b7100000000000000000000000000000000000000000000000000000000600052603260045260246000fd5b9060005260206000200160009054906101000a900473ffffffffffffffffffffffffffffffffffffffff1673ffffffffffffffffffffffffffffffffffffffff1673ffffffffffffffffffffffffffffffffffffffff16815260200190815260200160002054115b1561332657600a54600954945094505050506134e2565b6133dc6003600060088481548110613367577f4e487b7100000000000000000000000000000000000000000000000000000000600052603260045260246000fd5b9060005260206000200160009054906101000a900473ffffffffffffffffffffffffffffffffffffffff1673ffffffffffffffffffffffffffffffffffffffff1673ffffffffffffffffffffffffffffffffffffffff1681526020019081526020016000205484612d6a90919063ffffffff16565b9250613494600460006008848154811061341f577f4e487b7100000000000000000000000000000000000000000000000000000000600052603260045260246000fd5b9060005260206000200160009054906101000a900473ffffffffffffffffffffffffffffffffffffffff1673ffffffffffffffffffffffffffffffffffffffff1673ffffffffffffffffffffffffffffffffffffffff1681526020019081526020016000205483612d6a90919063ffffffff16565b915080806134a1906156b5565b9150506131af565b506134c1600954600a54612c6690919063ffffffff16565b8210156134d957600a546009549350935050506134e2565b81819350935050505b9091565b6000808311829061352d576040517f08c379a00000000000000000000000000000000000000000000000000000000081526004016135249190615029565b60405180910390fd5b506000838561353c91906153a2565b9050809150509392505050565b600080600080613558856143b1565b90506000613565866143e2565b9050600061358e82613580858a612d6a90919063ffffffff16565b612d6a90919063ffffffff16565b90508083839550955095505050509193909250565b6000806000806135bc858961441390919063ffffffff16565b905060006135d3868961441390919063ffffffff16565b905060006135ea878961441390919063ffffffff16565b90506000613613826136058587612d6a90919063ffffffff16565b612d6a90919063ffffffff16565b9050838184965096509650505050509450945094915050565b6000600267ffffffffffffffff81111561366f577f4e487b7100000000000000000000000000000000000000000000000000000000600052604160045260246000fd5b60405190808252806020026020018201604052801561369d5781602001602082028036833780820191505090505b50905030816000815181106136db577f4e487b7100000000000000000000000000000000000000000000000000000000600052603260045260246000fd5b602002602001019073ffffffffffffffffffffffffffffffffffffffff16908173ffffffffffffffffffffffffffffffffffffffff16815250507f000000000000000000000000000000000000000000000000000000000000000073ffffffffffffffffffffffffffffffffffffffff1663ad5c46486040518163ffffffff1660e01b815260040160206040518083038186803b15801561377b57600080fd5b505afa15801561378f573d6000803e3d6000fd5b505050506040513d601f19601f820116820180604052508101906137b391906146ff565b816001815181106137ed577f4e487b7100000000000000000000000000000000000000000000000000000000600052603260045260246000fd5b602002602001019073ffffffffffffffffffffffffffffffffffffffff16908173ffffffffffffffffffffffffffffffffffffffff1681525050613852307f00000000000000000000000000000000000000000000000000000000000000008461269f565b7f000000000000000000000000000000000000000000000000000000000000000073ffffffffffffffffffffffffffffffffffffffff1663791ac9478360008430426040518663ffffffff1660e01b81526004016138b4959493929190615266565b600060405180830381600087803b1580156138ce57600080fd5b505af11580156138e2573d6000803e3d6000fd5b505050505050565b613915307f00000000000000000000000000000000000000000000000000000000000000008461269f565b7f000000000000000000000000000000000000000000000000000000000000000073ffffffffffffffffffffffffffffffffffffffff1663f305d71982308560008061395f611afb565b426040518863ffffffff1660e01b815260040161398196959493929190614f92565b6060604051808303818588803b15801561399a57600080fd5b505af11580156139ae573d6000803e3d6000fd5b50505050506040513d601f19601f820116820180604052508101906139d3919061487d565b5050505050565b6000600f541480156139ee57506000601154145b156139f857613a1b565b600f546010819055506011546012819055506000600f8190555060006011819055505b565b600080600080600080613a2f87612d0e565b955095509550955095509550613a8d87600460008c73ffffffffffffffffffffffffffffffffffffffff1673ffffffffffffffffffffffffffffffffffffffff16815260200190815260200160002054612d6a90919063ffffffff16565b600460008b73ffffffffffffffffffffffffffffffffffffffff1673ffffffffffffffffffffffffffffffffffffffff16815260200190815260200160002081905550613b2286600360008c73ffffffffffffffffffffffffffffffffffffffff1673ffffffffffffffffffffffffffffffffffffffff16815260200190815260200160002054612d6a90919063ffffffff16565b600360008b73ffffffffffffffffffffffffffffffffffffffff1673ffffffffffffffffffffffffffffffffffffffff16815260200190815260200160002081905550613bb785600360008b73ffffffffffffffffffffffffffffffffffffffff1673ffffffffffffffffffffffffffffffffffffffff16815260200190815260200160002054612cb090919063ffffffff16565b600360008a73ffffffffffffffffffffffffffffffffffffffff1673ffffffffffffffffffffffffffffffffffffffff16815260200190815260200160002081905550613c038161448e565b613c0d8483614633565b8773ffffffffffffffffffffffffffffffffffffffff168973ffffffffffffffffffffffffffffffffffffffff167fddf252ad1be2c89b69c2b068fc378daa952ba7f163c4a11628f55a4df523b3ef85604051613c6a919061524b565b60405180910390a3505050505050505050565b600080600080600080613c8f87612d0e565b955095509550955095509550613ced86600360008c73ffffffffffffffffffffffffffffffffffffffff1673ffffffffffffffffffffffffffffffffffffffff16815260200190815260200160002054612d6a90919063ffffffff16565b600360008b73ffffffffffffffffffffffffffffffffffffffff1673ffffffffffffffffffffffffffffffffffffffff16815260200190815260200160002081905550613d8283600460008b73ffffffffffffffffffffffffffffffffffffffff1673ffffffffffffffffffffffffffffffffffffffff16815260200190815260200160002054612cb090919063ffffffff16565b600460008a73ffffffffffffffffffffffffffffffffffffffff1673ffffffffffffffffffffffffffffffffffffffff16815260200190815260200160002081905550613e1785600360008b73ffffffffffffffffffffffffffffffffffffffff1673ffffffffffffffffffffffffffffffffffffffff16815260200190815260200160002054612cb090919063ffffffff16565b600360008a73ffffffffffffffffffffffffffffffffffffffff1673ffffffffffffffffffffffffffffffffffffffff16815260200190815260200160002081905550613e638161448e565b613e6d8483614633565b8773ffffffffffffffffffffffffffffffffffffffff168973ffffffffffffffffffffffffffffffffffffffff167fddf252ad1be2c89b69c2b068fc378daa952ba7f163c4a11628f55a4df523b3ef85604051613eca919061524b565b60405180910390a3505050505050505050565b600080600080600080613eef87612d0e565b955095509550955095509550613f4d86600360008c73ffffffffffffffffffffffffffffffffffffffff1673ffffffffffffffffffffffffffffffffffffffff16815260200190815260200160002054612d6a90919063ffffffff16565b600360008b73ffffffffffffffffffffffffffffffffffffffff1673ffffffffffffffffffffffffffffffffffffffff16815260200190815260200160002081905550613fe285600360008b73ffffffffffffffffffffffffffffffffffffffff1673ffffffffffffffffffffffffffffffffffffffff16815260200190815260200160002054612cb090919063ffffffff16565b600360008a73ffffffffffffffffffffffffffffffffffffffff1673ffffffffffffffffffffffffffffffffffffffff1681526020019081526020016000208190555061402e8161448e565b6140388483614633565b8773ffffffffffffffffffffffffffffffffffffffff168973ffffffffffffffffffffffffffffffffffffffff167fddf252ad1be2c89b69c2b068fc378daa952ba7f163c4a11628f55a4df523b3ef85604051614095919061524b565b60405180910390a3505050505050505050565b6000806000806000806140ba87612d0e565b95509550955095509550955061411887600460008c73ffffffffffffffffffffffffffffffffffffffff1673ffffffffffffffffffffffffffffffffffffffff16815260200190815260200160002054612d6a90919063ffffffff16565b600460008b73ffffffffffffffffffffffffffffffffffffffff1673ffffffffffffffffffffffffffffffffffffffff168152602001908152602001600020819055506141ad86600360008c73ffffffffffffffffffffffffffffffffffffffff1673ffffffffffffffffffffffffffffffffffffffff16815260200190815260200160002054612d6a90919063ffffffff16565b600360008b73ffffffffffffffffffffffffffffffffffffffff1673ffffffffffffffffffffffffffffffffffffffff1681526020019081526020016000208190555061424283600460008b73ffffffffffffffffffffffffffffffffffffffff1673ffffffffffffffffffffffffffffffffffffffff16815260200190815260200160002054612cb090919063ffffffff16565b600460008a73ffffffffffffffffffffffffffffffffffffffff1673ffffffffffffffffffffffffffffffffffffffff168152602001908152602001600020819055506142d785600360008b73ffffffffffffffffffffffffffffffffffffffff1673ffffffffffffffffffffffffffffffffffffffff16815260200190815260200160002054612cb090919063ffffffff16565b600360008a73ffffffffffffffffffffffffffffffffffffffff1673ffffffffffffffffffffffffffffffffffffffff168152602001908152602001600020819055506143238161448e565b61432d8483614633565b8773ffffffffffffffffffffffffffffffffffffffff168973ffffffffffffffffffffffffffffffffffffffff167fddf252ad1be2c89b69c2b068fc378daa952ba7f163c4a11628f55a4df523b3ef8560405161438a919061524b565b60405180910390a3505050505050505050565b601054600f81905550601254601181905550565b60006143db60646143cd600f548561441390919063ffffffff16565b612c6690919063ffffffff16565b9050919050565b600061440c60646143fe6011548561441390919063ffffffff16565b612c6690919063ffffffff16565b9050919050565b6000808314156144265760009050614488565b600082846144349190615544565b905082848261444391906153a2565b14614483576040517f08c379a000000000000000000000000000000000000000000000000000000000815260040161447a9061514b565b60405180910390fd5b809150505b92915050565b6000614498612c3b565b905060006144af828461441390919063ffffffff16565b905061450381600360003073ffffffffffffffffffffffffffffffffffffffff1673ffffffffffffffffffffffffffffffffffffffff16815260200190815260200160002054612cb090919063ffffffff16565b600360003073ffffffffffffffffffffffffffffffffffffffff1673ffffffffffffffffffffffffffffffffffffffff16815260200190815260200160002081905550600760003073ffffffffffffffffffffffffffffffffffffffff1673ffffffffffffffffffffffffffffffffffffffff16815260200190815260200160002060009054906101000a900460ff161561462e576145ea83600460003073ffffffffffffffffffffffffffffffffffffffff1673ffffffffffffffffffffffffffffffffffffffff16815260200190815260200160002054612cb090919063ffffffff16565b600460003073ffffffffffffffffffffffffffffffffffffffff1673ffffffffffffffffffffffffffffffffffffffff168152602001908152602001600020819055505b505050565b61464882600a54612d6a90919063ffffffff16565b600a8190555061466381600b54612cb090919063ffffffff16565b600b819055505050565b60008135905061467c816157a9565b92915050565b600081519050614691816157a9565b92915050565b6000813590506146a6816157c0565b92915050565b6000813590506146bb816157d7565b92915050565b6000815190506146d0816157d7565b92915050565b6000602082840312156146e857600080fd5b60006146f68482850161466d565b91505092915050565b60006020828403121561471157600080fd5b600061471f84828501614682565b91505092915050565b6000806040838503121561473b57600080fd5b60006147498582860161466d565b925050602061475a8582860161466d565b9150509250929050565b60008060006060848603121561477957600080fd5b60006147878682870161466d565b93505060206147988682870161466d565b92505060406147a9868287016146ac565b9150509250925092565b600080604083850312156147c657600080fd5b60006147d48582860161466d565b92505060206147e5858286016146ac565b9150509250929050565b60006020828403121561480157600080fd5b600061480f84828501614697565b91505092915050565b60006020828403121561482a57600080fd5b6000614838848285016146ac565b91505092915050565b6000806040838503121561485457600080fd5b6000614862858286016146ac565b925050602061487385828601614697565b9150509250929050565b60008060006060848603121561489257600080fd5b60006148a0868287016146c1565b93505060206148b1868287016146c1565b92505060406148c2868287016146c1565b9150509250925092565b60006148d883836148e4565b60208301905092915050565b6148ed816155d2565b82525050565b6148fc816155d2565b82525050565b600061490d82615307565b614917818561532a565b9350614922836152f7565b8060005b8381101561495357815161493a88826148cc565b97506149458361531d565b925050600181019050614926565b5085935050505092915050565b614969816155e4565b82525050565b6149788161561a565b82525050565b6149878161563e565b82525050565b600061499882615312565b6149a2818561533b565b93506149b2818560208601615650565b6149bb8161578b565b840191505092915050565b60006149d360238361533b565b91507f45524332303a207472616e7366657220746f20746865207a65726f206164647260008301527f65737300000000000000000000000000000000000000000000000000000000006020830152604082019050919050565b6000614a39602a8361533b565b91507f416d6f756e74206d757374206265206c657373207468616e20746f74616c207260008301527f65666c656374696f6e73000000000000000000000000000000000000000000006020830152604082019050919050565b6000614a9f60268361533b565b91507f4f776e61626c653a206e6577206f776e657220697320746865207a65726f206160008301527f64647265737300000000000000000000000000000000000000000000000000006020830152604082019050919050565b6000614b0560228361533b565b91507f45524332303a20617070726f766520746f20746865207a65726f20616464726560008301527f73730000000000000000000000000000000000000000000000000000000000006020830152604082019050919050565b6000614b6b601b8361533b565b91507f536166654d6174683a206164646974696f6e206f766572666c6f7700000000006000830152602082019050919050565b6000614bab601b8361533b565b91507f4163636f756e7420697320616c7265616479206578636c7564656400000000006000830152602082019050919050565b6000614beb601f8361533b565b91507f416d6f756e74206d757374206265206c657373207468616e20737570706c79006000830152602082019050919050565b6000614c2b60288361533b565b91507f5472616e7366657220616d6f756e74206578636565647320746865206d61785460008301527f78416d6f756e742e0000000000000000000000000000000000000000000000006020830152604082019050919050565b6000614c9160218361533b565b91507f536166654d6174683a206d756c7469706c69636174696f6e206f766572666c6f60008301527f77000000000000000000000000000000000000000000000000000000000000006020830152604082019050919050565b6000614cf760208361533b565b91507f4f776e61626c653a2063616c6c6572206973206e6f7420746865206f776e65726000830152602082019050919050565b6000614d3760298361533b565b91507f5472616e7366657220616d6f756e74206d75737420626520677265617465722060008301527f7468616e207a65726f00000000000000000000000000000000000000000000006020830152604082019050919050565b6000614d9d60258361533b565b91507f45524332303a207472616e736665722066726f6d20746865207a65726f20616460008301527f64726573730000000000000000000000000000000000000000000000000000006020830152604082019050919050565b6000614e0360248361533b565b91507f45524332303a20617070726f76652066726f6d20746865207a65726f2061646460008301527f72657373000000000000000000000000000000000000000000000000000000006020830152604082019050919050565b6000614e69601f8361533b565b91507f436f6e7472616374206973206c6f636b656420756e74696c20372064617973006000830152602082019050919050565b6000614ea9602c8361533b565b91507f4578636c75646564206164647265737365732063616e6e6f742063616c6c207460008301527f6869732066756e6374696f6e00000000000000000000000000000000000000006020830152604082019050919050565b6000614f0f60238361533b565b91507f596f7520646f6e27742068617665207065726d697373696f6e20746f20756e6c60008301527f6f636b00000000000000000000000000000000000000000000000000000000006020830152604082019050919050565b614f7181615610565b82525050565b6000602082019050614f8c60008301846148f3565b92915050565b600060c082019050614fa760008301896148f3565b614fb46020830188614f68565b614fc1604083018761497e565b614fce606083018661497e565b614fdb60808301856148f3565b614fe860a0830184614f68565b979650505050505050565b60006020820190506150086000830184614960565b92915050565b6000602082019050615023600083018461496f565b92915050565b60006020820190508181036000830152615043818461498d565b905092915050565b60006020820190508181036000830152615064816149c6565b9050919050565b6000602082019050818103600083015261508481614a2c565b9050919050565b600060208201905081810360008301526150a481614a92565b9050919050565b600060208201905081810360008301526150c481614af8565b9050919050565b600060208201905081810360008301526150e481614b5e565b9050919050565b6000602082019050818103600083015261510481614b9e565b9050919050565b6000602082019050818103600083015261512481614bde565b9050919050565b6000602082019050818103600083015261514481614c1e565b9050919050565b6000602082019050818103600083015261516481614c84565b9050919050565b6000602082019050818103600083015261518481614cea565b9050919050565b600060208201905081810360008301526151a481614d2a565b9050919050565b600060208201905081810360008301526151c481614d90565b9050919050565b600060208201905081810360008301526151e481614df6565b9050919050565b6000602082019050818103600083015261520481614e5c565b9050919050565b6000602082019050818103600083015261522481614e9c565b9050919050565b6000602082019050818103600083015261524481614f02565b9050919050565b60006020820190506152606000830184614f68565b92915050565b600060a08201905061527b6000830188614f68565b615288602083018761497e565b818103604083015261529a8186614902565b90506152a960608301856148f3565b6152b66080830184614f68565b9695505050505050565b60006060820190506152d56000830186614f68565b6152e26020830185614f68565b6152ef6040830184614f68565b949350505050565b6000819050602082019050919050565b600081519050919050565b600081519050919050565b6000602082019050919050565b600082825260208201905092915050565b600082825260208201905092915050565b600061535782615610565b915061536283615610565b9250827fffffffffffffffffffffffffffffffffffffffffffffffffffffffffffffffff03821115615397576153966156fe565b5b828201905092915050565b60006153ad82615610565b91506153b883615610565b9250826153c8576153c761572d565b5b828204905092915050565b6000808291508390505b600185111561541d578086048111156153f9576153f86156fe565b5b60018516156154085780820291505b80810290506154168561579c565b94506153dd565b94509492505050565b600061543182615610565b915061543c83615610565b92506154697fffffffffffffffffffffffffffffffffffffffffffffffffffffffffffffffff8484615471565b905092915050565b600082615481576001905061553d565b8161548f576000905061553d565b81600181146154a557600281146154af576154de565b600191505061553d565b60ff8411156154c1576154c06156fe565b5b8360020a9150848211156154d8576154d76156fe565b5b5061553d565b5060208310610133831016604e8410600b84101617156155135782820a90508381111561550e5761550d6156fe565b5b61553d565b61552084848460016153d3565b92509050818404811115615537576155366156fe565b5b81810290505b9392505050565b600061554f82615610565b915061555a83615610565b9250817fffffffffffffffffffffffffffffffffffffffffffffffffffffffffffffffff0483118215151615615593576155926156fe565b5b828202905092915050565b60006155a982615610565b91506155b483615610565b9250828210156155c7576155c66156fe565b5b828203905092915050565b60006155dd826155f0565b9050919050565b60008115159050919050565b600073ffffffffffffffffffffffffffffffffffffffff82169050919050565b6000819050919050565b60006156258261562c565b9050919050565b6000615637826155f0565b9050919050565b600061564982615610565b9050919050565b60005b8381101561566e578082015181840152602081019050615653565b8381111561567d576000848401525b50505050565b6000600282049050600182168061569b57607f821691505b602082108114156156af576156ae61575c565b5b50919050565b60006156c082615610565b91507fffffffffffffffffffffffffffffffffffffffffffffffffffffffffffffffff8214156156f3576156f26156fe565b5b600182019050919050565b7f4e487b7100000000000000000000000000000000000000000000000000000000600052601160045260246000fd5b7f4e487b7100000000000000000000000000000000000000000000000000000000600052601260045260246000fd5b7f4e487b7100000000000000000000000000000000000000000000000000000000600052602260045260246000fd5b6000601f19601f8301169050919050565b60008160011c9050919050565b6157b2816155d2565b81146157bd57600080fd5b50565b6157c9816155e4565b81146157d457600080fd5b50565b6157e081615610565b81146157eb57600080fd5b5056fe45524332303a207472616e7366657220616d6f756e74206578636565647320616c6c6f77616e636545524332303a2064656372656173656420616c6c6f77616e63652062656c6f77207a65726fa2646970667358221220340d2b7941da273eb8c327eeca8734738a52b81e811f405a91835ec9ecb22abb64736f6c63430008000033",
  "linkReferences": {},
  "deployedLinkReferences": {}
}