{
  "_format": "hh-sol-artifact-1",
  "contractName": "Ownable",
  "sourceName": "contracts/RenouncedContract.sol",
  "abi": [
    {
      "anonymous": false,
      "inputs": [
        {
          "indexed": true,
          "internalType": "address",
          "name": "previousOwner",
          "type": "address"
        },
        {
          "indexed": true,
          "internalType": "address",
          "name": "newOwner",
          "type": "address"
        }
      ],
      "name": "OwnershipTransferred",
      "type": "event"
    },
    {
      "inputs": [],
      "name": "_owner",
      "outputs": [
        {
          "internalType": "address",
          "name": "",
          "type": "address"
        }
      ],
      "stateMutability": "view",
      "type": "function"
    },
    {
      "inputs": [],
      "name": "getUnlockTime",
      "outputs": [
        {
          "internalType": "uint256",
          "name": "",
          "type": "uint256"
        }
      ],
      "stateMutability": "view",
      "type": "function"
    },
    {
      "inputs": [
        {
          "internalType": "uint256",
          "name": "time",
          "type": "uint256"
        }
      ],
      "name": "lock",
      "outputs": [],
      "stateMutability": "nonpayable",
      "type": "function"
    },
    {
      "inputs": [],
      "name": "owner",
      "outputs": [
        {
          "internalType": "address",
          "name": "",
          "type": "address"
        }
      ],
      "stateMutability": "view",
      "type": "function"
    },
    {
      "inputs": [],
      "name": "renounceOwnership",
      "outputs": [],
      "stateMutability": "nonpayable",
      "type": "function"
    },
    {
      "inputs": [
        {
          "internalType": "address",
          "name": "newOwner",
          "type": "address"
        }
      ],
      "name": "transferOwnership",
      "outputs": [],
      "stateMutability": "nonpayable",
      "type": "function"
    },
    {
      "inputs": [],
      "name": "unlock",
      "outputs": [],
      "stateMutability": "nonpayable",
      "type": "function"
    }
  ],
  "bytecode": "0x608060405234801561001057600080fd5b50610533806100206000396000f3fe608060405234801561001057600080fd5b506004361061007d5760003560e01c8063a69df4b51161005b578063a69df4b5146100bf578063b2bdfa7b146100c7578063dd467064146100cf578063f2fde38b146100e25761007d565b8063602bc62b14610082578063715018a6146100a05780638da5cb5b146100aa575b600080fd5b61008a6100f5565b60405161009791906104b0565b60405180910390f35b6100a86100fb565b005b6100b2610171565b60405161009791906103a7565b6100a8610180565b6100b261021a565b6100a86100dd36600461038f565b610229565b6100a86100f0366004610361565b6102b9565b60025490565b61010361035d565b6000546001600160a01b039081169116146101395760405162461bcd60e51b815260040161013090610401565b60405180910390fd5b600080546040516001600160a01b03909116906000805160206104de833981519152908390a3600080546001600160a01b0319169055565b6000546001600160a01b031690565b6001546001600160a01b031633146101aa5760405162461bcd60e51b81526004016101309061046d565b60025442116101cb5760405162461bcd60e51b815260040161013090610436565b600154600080546040516001600160a01b0393841693909116916000805160206104de83398151915291a3600154600080546001600160a01b0319166001600160a01b03909216919091179055565b6000546001600160a01b031681565b61023161035d565b6000546001600160a01b0390811691161461025e5760405162461bcd60e51b815260040161013090610401565b60008054600180546001600160a01b03199081166001600160a01b0384161790915516905561028d81426104b9565b600255600080546040516001600160a01b03909116906000805160206104de833981519152908390a350565b6102c161035d565b6000546001600160a01b039081169116146102ee5760405162461bcd60e51b815260040161013090610401565b6001600160a01b0381166103145760405162461bcd60e51b8152600401610130906103bb565b600080546040516001600160a01b03808516939216916000805160206104de83398151915291a3600080546001600160a01b0319166001600160a01b0392909216919091179055565b3390565b600060208284031215610372578081fd5b81356001600160a01b0381168114610388578182fd5b9392505050565b6000602082840312156103a0578081fd5b5035919050565b6001600160a01b0391909116815260200190565b60208082526026908201527f4f776e61626c653a206e6577206f776e657220697320746865207a65726f206160408201526564647265737360d01b606082015260800190565b6020808252818101527f4f776e61626c653a2063616c6c6572206973206e6f7420746865206f776e6572604082015260600190565b6020808252601f908201527f436f6e7472616374206973206c6f636b656420756e74696c2037206461797300604082015260600190565b60208082526023908201527f596f7520646f6e27742068617665207065726d697373696f6e20746f20756e6c6040820152626f636b60e81b606082015260800190565b90815260200190565b600082198211156104d857634e487b7160e01b81526011600452602481fd5b50019056fe8be0079c531659141344cd1fd0a4f28419497f9722a3daafe3b4186f6b6457e0a2646970667358221220ee99b41ef4a70aeef7fe97bb95067fa7f85584d76ff64f3404b82cb6d41e76b964736f6c63430008000033",
  "linkReferences": {},
  "deployedLinkReferences": {}
}